:10000000001A002051230000852300000522000073
:100010000522000005220000052200000522000044
:100020000522000005220000052200001920000022
:100030000522000005220000BD1F0000052200006F
:1000400019230000639A00001923000019230000FF
:1000500019230000192300001923000019230000B0
:1000600019230000192300001923000019230000A0
:100070001923000019230000192300001923000090
:100080001923000019230000192300001923000080
:100090001923000019230000192300001923000070
:1000A000192300001923000000000000312E000079
:1000B000000000007921000000000000792100000C
:1000C00000000000792100000000000079210000FC
:1000D0000000000079210000BC2400203530000021
:1000E00000000000792100000000000079210000DC
:1000F00000000000792100000000000079210000CC
:1001000000000000219A0000F8240020393400008B
:10011000000000005B9A0000000000007921000050
:10012000000000007921000000000000792100009B
:1001300000000000093600000000000079210000E6
:10014000000000007921000000000000792100007B
:10015000000000007921000000000000792100006B
:10016000000000007921000000000000519A00000A
:10017000000000007921000002B4714649084900DE
:10018000095649008E4402BC7047C04602B471460D
:1001900049084900095C49008E4402BC7047C046CA
:1001A00003B47146490840004900095E49008E4485
:1001B00003BC704703B47146490840004900095A1E
:1001C00049008E4403BC7047002934D0012300222B
:1001D00010B488422CD301242407A14204D28142C6
:1001E00002D209011B01F8E7E400A14204D28142D6
:1001F00002D249005B00F8E7884201D3401A1A4353
:100200004C08A04202D3001B5C0822438C08A04289
:1002100002D3001B9C082243CC08A04202D3001B3F
:10022000DC082243002803D01B0901D00909E3E7B9
:10023000101C10BC7047002801D00020C04307B438
:10024000024802A14018029003BDC046D900000038
:100250000029F0D003B5FFF7B9FF0EBC4243891A5D
:100260001847C046002941D010B4041C4C40A44695
:1002700001230022002900D54942002800D5404230
:1002800088422CD301242407A14204D2814202D205
:1002900009011B01F8E7E400A14204D2814202D225
:1002A00049005B00F8E7884201D3401A1A434C0822
:1002B000A04202D3001B5C0822438C08A04202D358
:1002C000001B9C082243CC08A04202D3001BDC0880
:1002D0002243002803D01B0901D00909E3E7101CC1
:1002E0006446002C00D5404210BC7047002806D060
:1002F00003DB0020C043400801E08020000607B473
:10030000024802A14018029003BDC0461900000037
:100310000029EBD003B5FFF7A7FF0EBC4243891AB3
:100320001847C0467047C046D0400B1CD1409C4681
:10033000203AD340184352426346934018437047D3
:100340009140031C90409C46203A934019435242EE
:100350006346D34019437047002B11D1002A0FD1B7
:10036000002900D1002802D00021C943081C07B48D
:10037000024802A14018029003BDC046A9FFFFFF3A
:1003800003B4684601B5029800F054F8019B9E46FC
:1003900002B00CBC7047C046F0B54F464646150447
:1003A0002D0CC0B42E000704140C3F0C9946030C0E
:1003B0007E435D43674363437F19340CE4199C46D5
:1003C000A54203D980235B029846C4444B4651435F
:1003D00043433604360C250C24046544A4195918EB
:1003E000491920000CBC90469946F0BD10B5002379
:1003F000002802D000F08EFF431C180010BDC0463C
:10040000094A43081340C01A0300084A80081040F4
:1004100013401B181809C018054B03401802C018D8
:100420000304C018000E7047555555553333333308
:100430000F0F0F0FF0B54D46564644465F46F0B4D9
:10044000924683B004000D0099468B422FD82CD0E1
:100450004946504600F052FF29000600200000F0F7
:100460004DFF331A9846203B9B4600D574E0534617
:100470005A4693401F005346424693401E00AF42E7
:1004800029D826D05B46A41BBD41002B00DA79E0B9
:10049000002200230092019301235A4693400193C6
:1004A000012342469340009319E08242D0D90022B2
:1004B0000023009201930C9B002B01D01C605D6017
:1004C0000098019903B03CBC90469946A246AB46C1
:1004D000F0BDA342D6D900220023009201934346E7
:1004E000002BE8D0FB0772081A4346467B080EE053
:1004F000AB4201D1A2420CD8A41A9D41012024197B
:100500006D410021013E24184D41002E06D0AB4222
:10051000EED9013E24196D41002EF8D15B460098BA
:10052000019900196941002B22DB2B005A46D34068
:100530002A004446E2401C005B461500002B2CDBE1
:1005400026009E40330026004746BE403200801AF7
:10055000994100900191AEE7424620239B1A5246F2
:10056000DA40414613004A468A4017001F4382E79B
:10057000424620239B1A2A0046469A402300F34015
:100580001343D5E74246202300219B1A0022009105
:1005900001920122DA40019282E74246202326009E
:1005A0009B1ADE402F00B446974066463B0033431B
:1005B000C9E7C046F8B55F46444656464D46F0B4D6
:1005C0000C034E00C90F88460D00610A440F0C430E
:1005D000C70019035800DB0F9B464B0A510F0B4312
:1005E000760D400D1900D200D84500D1AEE0351A85
:1005F000002D00DCF6E000280FD1134300D1DBE032
:100600006B1E002B00D037E1BA1A9742BF41641A23
:100610007F42E41B0126170024E0C64B9E424DD0CA
:1006200080231B041943382D00DD07E11F2D00DD59
:1006300038E12020431B9A460B00504683409946E0
:1006400013004846EB401843030050468240501EBA
:100650008241E9401A43BA1A611A9742A44117002D
:1006600064420C1B230262D56402650A002D00D18E
:10067000DFE0280000F024FE0300083B1F2B00DD14
:10068000D2E020223C00D21A9D40D4409F40254316
:100690009E4200DDC4E09E1B731C1F2B00DDF1E0B9
:1006A000202238002900D21AD840914097402C00CF
:1006B0000143781E8741DC4000260F437B0709D0A9
:1006C0000F233B40042B05D03B1DBB42BF417F4263
:1006D000E4191F0023022CD5964B01369E4200D10F
:1006E0009AE04546944BFF081C406007760564027B
:1006F0000743240B760D00212403230B0C0D8F4A96
:1007000024051C431440330523435B00ED075B08BD
:100710002B43380019003CBC90469946A246AB4694
:10072000F8BD6446044300D111E2040067467B072C
:10073000C6D145466007FF080743E4087D4B9E424B
:1007400030D024037605240B760DD4E7331A9A466D
:10075000002B78DD002831D076488642AED080204C
:10076000000401435346382B00DCE9E00A43511EE4
:100770008A410021D219BA42BF4109197C421700AF
:100780000C192302D3D56B4B01369E4200D13AE1BE
:100790000120694B1C407B0807401F43E0070743CB
:1007A00064088BE723003B4300D1CBE18022120396
:1007B00014432403240B9EE72E007FE70800104318
:1007C00000D1B4E0581E002800D0DEE0BA18BA42CA
:1007D0009B4164185B42E418170001262302A6D54A
:1007E0000226D5E7002D6ED1701C4005400D012872
:1007F00000DCF9E0B81A844687428041E51A40429D
:100800002D1A280200D489E0D71BBA4292411C1B42
:100810005242A51AD84629E74546002400276AE730
:10082000454CF61A2C4049E73D0028388540002702
:100830002EE7380000F044FD20301DE70A43511E2A
:100840008A41002107E7002B00D0F3E0701C43052C
:100850005B0D012B00DCADE0364B984200D1D1E0BE
:10086000BA18BA42BF4164187F42E419E707520838
:1008700017436408060021E72E48854200D193E023
:100880001D00D0E629001F3EF140202B00D18DE055
:100890004022D31A9D402F437D1EAF4100240F43B9
:1008A000002644E72B000800203BD8400300202D01
:1008B00000D17DE04020451BA9400A43511E8A41DA
:1008C00000211A43C7E6002E50D01A4EB04257D02E
:1008D00080266B429946360434434B46382B00DD64
:1008E000D6E01F2B00DD35E12026F51A2600AE40AC
:1008F000B2463E00DE40AC46350056462E436546C5
:10090000AF407D1EAF41DC403743D71BBA42924116
:100910000C1B5242A41A0600D846A3E6644667465A
:100920002C4300D0A2E600250026002706E71E0083
:10093000C4E6C046FF070000FFFF7FFFFFFF0F80F8
:100940001F2B63DC2020C31A080098409C46834676
:1009500053461000D84003005846184363469A4057
:10096000531E9A4153460243D94003E726003E43B3
:1009700006D0EB439946002BC7D0944EB042ACD181
:100980000C0017000600D84698E6904B9A450BD00D
:100990008246E7E6002800D09EE01800104300D110
:1009A000E9E01C001700D846884E87E6002572E76C
:1009B000002182E723003B43002E00D0ABE0002B58
:1009C00000D1E7E00B00134300D177E6BA18BA4232
:1009D000BF4164187F42E419230200D4F2E07C4B4B
:1009E00017001C40060069E620003843002ED1D1D4
:1009F00000285BD11C00144300D1A8E01C001700A4
:100A0000D8465BE606000024002797E650460B0018
:100A10002038C34099465346202B00D195E040230F
:100A200050461B1A99400A43511E8A414B460021E9
:100A30001A439FE6002E30D126003E4367D0DB43A9
:100A40009A46002B1CD0614EB04260D05346382BE2
:100A500000DD96E01F2B00DD9FE02026F31A260024
:100A60009E409C46B34653463E00DE4033005E4601
:100A70001E4363469F407B1E9F415346DC403743E5
:100A8000BF189742924164185242A418060078E6B3
:100A900027437C1EA741002437E74C4EB04236D096
:100AA00080265B4236049A463443CFE71800104351
:100AB00000D103E6B81A84466745AD41E01A6D429D
:100AC000401B050200D42CE6D71BBA4292411C1BE6
:100AD0005242A41AD846F1E51800104300D163E74A
:100AE000F808670707438020E4080003044208D0A1
:100AF000DD08054205D1D208590711430F002C002B
:100B0000D8467B0FE4001C43FF00304ED6E50C00B6
:100B100017000600D2E5002B38D00B00134300D19C
:100B200042E7F808670707438020E408000304420F
:100B3000E7D0CB080342E4D1D208490711430F00A4
:100B40001C00DEE700270024D5E500216BE7002527
:100B50000027F3E54E462500203EF5404B462E008B
:100B6000202B2DD04025ED1AAC4027437C1EA741F9
:100B700000243743C9E6802400252403134E0027B0
:100B8000DCE527437C1EA741002479E70C00170011
:100B90000E4E93E50C00170090E556462300203ECC
:100BA000F34099465346202B0ED0402356469B1BBC
:100BB0009C4027437C1EA7414B4600241F435FE710
:100BC0000024D2E71700B2E50024F2E7FF07000097
:100BD000FFFF7FFFF0B55F46564644464D46F0B4F2
:100BE0000E034C0087B0834692461D008046360BAC
:100BF000640DCF0F002C4FD06F4B9C4235D080231B
:100C0000420F1B04F600134333439946C300984632
:100C10006A4B00269C460023644403932B031B0B62
:100C20009B466B00ED0F50465B0D01955ED0624A0E
:100C3000934253D05A46D1008022400F12040243FF
:100C40000A4393465246D1005C4A944600226344CC
:100C50003800684084460290E41A16430F2E00D9EB
:100C6000B4E0574BB6009B599F4603003343994667
:100C70006CD100239846023308260393CEE7CB4677
:100C80004146039A0197022A65D1019B4A4C9C4632
:100C90000023002298466BE00300334399464ED070
:100CA000002E00D1BCE1300000F00AFB03000B3B3A
:100CB0001C2B00DDACE11D22D31A5A460100DA409C
:100CC00008398E401300334399465B468B40984663
:100CD00000233C4C0026241A03939FE751465A46B2
:100CE000114329D1002293460232B1E7594601430C
:100CF0001ED05B46002B00D19EE1584600F0E0FA82
:100D000003000B3B1C2B00DD8FE102005946083A23
:100D100091408B461D21CB1A5146D9400B005946B4
:100D20000B4351469B469140264B00221B1A8FE7EE
:100D3000002301229B468BE75146032288E70023CC
:100D40009846013304260024039367E70323B14642
:100D500003930C2662E7032A00D15CE2019B012A7F
:100D600000D0E4E113409C46002300240022984672
:100D700000211203130B0A0D12051A432305124C0E
:100D800040462240134362465B00D2075B08134390
:100D9000190007B03CBC90469946A246AB46F0BD50
:100DA000002380229C4612039846034CE0E7002370
:100DB000014C00229846DBE7FF07000001FCFFFF23
:100DC00000C400000DFCFFFFFFFF0F80D94500D9D4
:100DD00039E100D134E1002346464D469A46013CB4
:100DE0005B460A0E1B021A430B02170C03931304F3
:100DF0001B0C3900280090460193FFF7E5F902002B
:100E0000019B83465A43280039009146FFF720FA98
:100E1000350C09040D43A9450DD95B464544013BFA
:100E2000A84500D93AE1A94500D837E102235B4241
:100E30009C464544E3444B46EB1A390018000493A2
:100E4000FFF7C2F9019B0500434339000498994616
:100E5000FFF7FEF9330409041B0C0B43994509D92C
:100E600043446A1E984500D91AE1994500D817E114
:100E7000023D43444A469B1A5A4612042A430399A8
:100E80009346100C0A0C914609045A46090C4E462A
:100E90000D001204120C45430591514372437043F7
:100EA00052190E0CB218954203D980256D02AC463A
:100EB0006044150C09041204090C281852188342C6
:100EC00000D2CEE000D1C8E01D1A53469E1AB245AA
:100ED00092415242AB1A9A46984500D117E1390027
:100EE0001800FFF771F9019B050043433900504694
:100EF0000493FFF7ADF904980B04310C19438842B1
:100F000009D941446B1E884500D907E1884200D8C1
:100F100004E1023D4144049BCB1A180039000493BC
:100F2000FFF752F9019B824643433900049801932D
:100F3000FFF78EF901980B043104090C194388421C
:100F40000DD953464144013B884500D9E8E0884229
:100F500000D8E5E002235B429C464144E244019B09
:100F60002D04CE1A51462943059D4F462A000B04F5
:100F7000080C1B0C5A4345437B4378435B19170C01
:100F8000FB189D4203D980256D02AC4660441D0CC0
:100F900012041B04120C28189B18864200D293E0FE
:100FA00000D18EE001231943A04BE318002B00DC95
:100FB00099E04A0700D09EE05A46D20106D55A462B
:100FC0009B4B1A4080239346DB00E318994A9342D7
:100FD00068DD0123029A984C1A40002394469846F3
:100FE0000022C5E680224B46120313420AD05B461C
:100FF000134206D11A431203120BAC4688468E4C9C
:10100000B6E64B461A431203120BBC468A4CAFE6B7
:1010100003005A46283B9A4000239146984657E6DB
:10102000584600F04DF9203040E603005246283B78
:101030009A400021934677E600F042F920305FE6BF
:10104000884500D2C7E64B46DE075D0843465B088D
:101050001E434346DB079A46C2E60025924500D36D
:1010600033E7039E5946B446E244B245AD416D4272
:101070004544EB180139984507D2984200D97FE0E2
:1010800000D1BCE01D1A8B461FE79845FAD1039D9D
:101090005545F2D943468B461D1A16E79B46CAE6CC
:1010A0001500E7E65A46C90852070A435B05904611
:1010B0005C0D5A460123029952021940120B8C46CC
:1010C00056E6002B00D16FE746444A1EB04529D9A9
:1010D0001100864200D065E7039A934200D061E791
:1010E00062E7012149420120C21A382A21DD029B10
:1010F00003409C4638E60F220A40042A00D15BE7F1
:101100000A00111D914292415242934454E7474BC9
:10111000E318002BE5DD01225242F2E71D00FAE65A
:101120009A461CE7B04239D86ED011003AE70293D4
:101130003AE71F2A3CDC20239B1A0C0058469940B2
:1011400098404B1E99415B46D440D340204308430E
:101150001A00430709D00F230340042B05D00100D8
:10116000081D88429B415B42D21813023AD50123E5
:10117000029A01241A400023944698460022F7E57B
:10118000022149428C46039DE344AC46E244AA4511
:10119000AD416D424544ED182D1A96E68A1E03991D
:1011A0004D008D42894149424144761803958FE7AD
:1011B0001F204042C31A5846D8400300202A28D096
:1011C00040205D46821A954029434A1E91411943A9
:1011D000072300220B4009D00F2300220B400800F8
:1011E000042BBDD1010053075202120BC908194349
:1011F000012388460299002419408C46B8E55245DF
:10120000BED88B46002560E6039D9D42C6D31100E3
:1012100062E70025D8E780225B4612031A43019B50
:101220001203120B9C468846034CA1E5FF03000005
:10123000FFFFFFFEFE070000FF07000070B500285B
:1012400030D0C317C4185C40C50F200000F038F838
:10125000174B184A1B1AD21A1F2A18DD164AD21A1F
:101260009440002224035B05240B5B0D0021100039
:1012700024030A0D240B12052243104C1B052240A7
:1012800013435B00ED075B082B43190070BD210081
:1012900091400A000B21081AC4405B052403240B6B
:1012A0005B0DE3E70025002300240022DEE7C046B3
:1012B0001E0400003304000013040000FFFF0F8031
:1012C0001C2101231B04984201D3000C10391B0A76
:1012D000984201D3000A08391B09984201D300093A
:1012E000043902A2105C40187047C0460403020291
:1012F00001010101000000000000000010B50029FC
:1013000003D1FFF7DDFF203002E0081CFFF7D8FF14
:1013100010BDC046414208401C2101231B049842D5
:1013200001D3000C10391B0A984201D3000A083976
:101330001B09984201D30009043902A2105C401A2B
:101340007047C0461B1C1D1D1E1E1E1E1F1F1F1F7B
:101350001F1F1F1F03000A781A70002A00D1704750
:1013600001330131F7E7C9B20378994205D0002B68
:1013700004D14B4259414942084070470130F3E7DC
:1013800003780A78934202D1002B02D11A00981AEE
:10139000704701300131F3E7002310B59A4205D0C0
:1013A000013A002A04D1037808781B1A180010BDEE
:1013B00004780B789C42F6D101300131F0E710B58A
:1013C000431A934206D300239A4208D0CC5CC454FB
:1013D0000133F9E7013A8B5C8354002AFAD110BD3E
:1013E000030030B503254B402B4219D003000024E5
:1013F000A2421BD130BD002AFCD00C78013A1C70EF
:10140000013101331C002C40F5D1151B032D09D8E7
:1014100003241500A543032449195B192240E6E77C
:101420000300EFE70D591D510434EEE70D5D1D5526
:101430000134DDE770B505000326CBB22C00354240
:1014400011D1C9B20E0231430E0431431600032EEE
:101450000FD8032115008D436119032422408A18F7
:10146000914209D170BD002AFCD02B70013A0135A0
:10147000E4E702C5043EEAE70B700131F0E7F7B597
:1014800004000D0006000092019328000099FEF769
:10149000DFFE28000F000099FEF796FEFAB2050065
:1014A0002723701C092F00DC002330329B18337077
:1014B0000600002DE9D13022001B0199231881423A
:1014C00005DC0022013B5A70A34203D8FEBD225422
:1014D0000130F2E71A782178013B5970227001340B
:1014E000F2E7F0B501240668002334402200416889
:1014F0007408CF073C434D0812196B4102604360EA
:10150000F0BD000000230222F0B500240500416870
:10151000006880185941002385B002930394002489
:101520000090019100980199134BE65C0134320060
:10153000FEF7FAFE0521FEF747FE32000021FEF716
:10154000FFFE0522002306000F00FEF725FF009A8C
:10155000019B121A8B4100920193029A039B9219EC
:101560007B4102920393032CDCD11C0013002B60FF
:101570006C6005B0F0BDC0464BC400000A6810B5F1
:1015800030230400002A0DDD013A0A60002341687F
:1015900000680A22FEF700FF0B0F0901090930332A
:1015A00020606160D8B210BDF0B51D000023C9B045
:1015B0000C900D9106931078531C0393002831D0A2
:1015C000252827D12023079300231F000993089380
:1015D0000A93039E039B347801332100B44803939C
:1015E000FFF7C1FE002827D12A2C40D12A682B1DE5
:1015F0000492002A03DA5242049201220A92039AC8
:101600001D001478B31C0393049BC82B35D9C82341
:10161000049332E00C9B0D999847431C05D101239C
:101620005B420693069849B0F0BD069C05950134CF
:10163000059D039A0694BEE7232C13D006D8002CF0
:10164000F0D0202CC5D101230993C2E72D2C06D060
:10165000302C09D02B2CBCD101230893B9E70123EE
:101660000A93B6E70127B4E730230793B1E72300D5
:10167000303B04900A22092B1AD92E2C4ED1039B01
:101680001B782A2B1CD000230A200193039B197876
:101690000A00303A092A18D8019A013342435218F5
:1016A000303A0192F3E7049850430419303C049413
:1016B000347801362300303B092BF4D90396A3E795
:1016C0002A68039B019201330435019AC82A02DD7E
:1016D0000122524201925A1C1C7803922100754843
:1016E000FFF741FE002803D0039B1C7801330393CE
:1016F000672C3DDC652C00DBA2E0472C00D19FE08D
:1017000010DC252C00D194E2452C00D198E0002C6F
:1017100000D187E7C82C00DC95E280E701235B421B
:101720000193DBE7632C5CD02DDC582CF2D12B1D10
:101730002968059315AD002F06D030232B70483350
:101740006B701E250EABED18019B10222800FFF7D1
:1017500096FE582C05D1002115AA8B5C002B00D0D9
:101760005FE27A1E974115ABED1A28187C005BE00A
:10177000702C00D127E219DC6E2C00D1EAE100DDEB
:10178000EFE1692CC6D12E682B1D059315AD002EF7
:1017900031DA2D232B70802371421B069E4200D12B
:1017A00031001D230EAA9B181D002DE0752C00D1C1
:1017B0002EE2782CBBD0732CACD100272B1D2968CE
:1017C0000593CB5D002B00D014E2019B002B00DBC6
:1017D00018E2002F00D1C2E13A0015A8FFF700FE81
:1017E00007E02B1D2A68059315AB1A70002201270C
:1017F0005A700024C7E1089B002B1BD02B232B70B1
:101800001D2531000EABED18019B28000A22FFF7C1
:1018100036FE089C099B2D1815A8281A1C43012187
:10182000002C00D1F10F0C00019B01333AD0202392
:10183000079337E0099B3100002BE5D02023DEE73A
:10184000072307359D432B0069682A680833550D27
:101850000593CB022B435B00174D4800D2025B0877
:10186000400D10921193A84231D1134315AA002BB9
:1018700024D12D33002900DB023B13704923537020
:1018800005339370083BD37016AD00232B70089C72
:10189000099B15A8281A1C4304D115AB1C782D3CB4
:1018A00067427C41C82800DDB9E607006BE1C0460D
:1018B00040C4000046C40000FF0700004E23612121
:1018C0001F25137093700EAB5170ED18DDE7050006
:1018D00015431D4339D010928022C34D1206134385
:1018E00045191193002930DA2D2215AB1D261A70E7
:1018F0000EABF61800230293AB1C36DB002D51DC37
:1019000010A80135FFF7EDFD042DF9D1019B002B47
:1019100001DA06230193230020229343472B58D159
:1019200000239F4203D1019B5A1E9341DBB20B93CC
:10193000029B033304DB019B029A01339A424CDD84
:10194000672C00D092E0652491E0089A15AB002A3C
:1019500001D02B22CAE7099A1E00002ACAD02022F1
:10196000C4E710A8FFF7BDFD013511999F4B1098F2
:101970009942F6D805220023FEF70EFD029B109037
:101980001191013B02930023994A01358A4204D206
:10199000002BB1D010901191AEE700184941013DE4
:1019A0000123F3E710A8FFF7ADFD0021029B90484B
:1019B0000133013D0293109A119B984204D20029F1
:1019C0009CD01092119399E792185B41013D01213F
:1019D000F3E700230B93662C49D1029B019A6624FE
:1019E0009D18EB43DB171D408023102100221B05AF
:1019F0000F91129213938D4200DD0D00002D39D10D
:101A0000109A119B1298139912184B41109211932E
:101A10001B0F08D010A8FFF775FD10A8FFF761FD98
:101A2000029B01330293662C40D1029B002B29DDDF
:101A3000F5180FA910A8FFF7A1FD30700136B542C7
:101A4000F7D100230293002F02D1019B002B09D074
:101A50002E232E002B70019BEF18BE4216D1019B46
:101A60000133ED180B9B002B3BD10EE74524019B66
:101A70005D1CB9E712A8FFF745FD12A8FFF731FD7D
:101A8000013DBBE73023751C3370DCE7029B002B64
:101A900006D030237370029B013302930136DCE7DA
:101AA0000FA910A8FFF76AFD7070F7E70FA910A83B
:101AB000FFF764FD30703038431E9841029B1B1ABB
:101AC0000293002F03D1019B751C002B06D02E23FF
:101AD0007370019B0236F518B54232D10B9B002B77
:101AE00007D02B00013D2A78302AFAD02E2A00D0C8
:101AF0001D00230020229343452B00D0C5E6029B06
:101B00002C70AC1C002B23DA5B4202932D236B70EC
:101B100064210298FEF7A6FB303020706421029801
:101B2000FEF7F6FB0E000A213000FEF79BFB30307B
:101B300060700A213000FEF7EBFB3031E51CA1702C
:101B4000A3E60FA910A8FFF719FD30700136C3E70F
:101B50002B23DCE72B1D0593069A2B681A60069C45
:101B600066E52B1D0593296815AB002F21D0302287
:101B70001D201A700EAA801800291BD15970019BD4
:101B80000C00013361D1049BBB4261DC069C069BC7
:101B9000FB181B1B002B00DC4AE5069A15AB9B1AB1
:101BA000185D0D990C9B9847431C00D137E5013413
:101BB000EDE7180015AD019B0822451BFFF75FFC00
:101BC0002818002430E630221E202B1D059315AB6B
:101BD0001A700EAC48325A7029680823683A001906
:101BE000FFF74DFC0230ECE702FCFFFF32333333EA
:101BF000FFFFFF7F0137C82F00D0E2E5019B002BDC
:101C000000DAE9E5019B9F4200DCE2E51F00E0E528
:101C10002B1D05930A22019B296815A8FFF72FFCAD
:101C2000CFE71C00613C192C01D8203B8B540131BB
:101C300093E50C9B0D9920009847431C00D1EEE4DE
:101C4000069B01330693059589E7202307939AE7BE
:101C50000A9B002B07D015AB2022FA54049A0137B7
:101C6000BA42F9D192E7049B7A1CDD1B15AB5819D7
:101C70001900FFF7A4FB079B202B00D10A9C6519D4
:101C800015ABAC4201DB049F80E76A46127FE25449
:101C90000134F6E70120404270470000014B186014
:101CA0007047C0468021002010B5022903D1034BA4
:101CB0001B68984710BD01204042FBE780210020AF
:101CC0000FB407B504AB04CB022104480193FFF71E
:101CD0006BFC03B008BC04B01847C046A91C000048
:101CE0007047000010B500F097FFFA228021034BE7
:101CF0005200490200F040FF10BDC0462CC5000054
:101D000010B500F089FFFA22024B9200012100F089
:101D100033FF10BD39C5000010B500F07DFFFA2279
:101D2000024B9200012100F027FF10BD3BC50000CF
:101D300010B500F071FFFA22024B9200012100F071
:101D40001BFF10BD3DC5000010B50D4C930311D510
:101D50000C4800F0D7FC02230B4923700B780B4A88
:101D60002078DB00D3181B5C0B70DB00D2185368A3
:101D7000984710BD064800F0C5FC0123ECE7C046BB
:101D80000C0000204EC400000D0000208421002023
:101D900059C40000F8B5384809F040F84368374C9A
:101DA0001D681122222300212060A84720681A22E2
:101DB000436800211D682223A8473149314B206820
:101DC0004B60314B01228B604368DB6898472F489A
:101DD00009F024F820681122436800211B69984704
:101DE00020681A22436800211B699847284929481E
:101DF00000F088FC284809F011F8284C011E2060EA
:101E000003D1274800F07EFCF8BD036825481A6816
:101E1000FFF756FF20681E2143689B689847011E04
:101E200003D02148FFF74CFFEEE720681F4D4368C1
:101E30000C21DB682A009847011E01D01C48F1E7FD
:101E40006868FFF7FBF900221A4BFEF7C3FE060095
:101E500028680F00FFF7F2F902000B00300039008C
:101E6000FEF7A8FB02000B001348FFF729FF1348F9
:101E700009F052FCCEE7C04664C400001000002008
:101E800000000020491D0000000002046BC4000097
:101E900071C4000075C400008EC40000140000204E
:101EA00095C40000ACC40000CBC4000018000020A2
:101EB000F2C4000080842E4118C500008813000081
:101EC00030B5EFF3108072B61D490B78012B0FD19E
:101ED0001C4B1B681B070BD11B4BE0251A68F0231A
:101EE00014001C402A421AD1184A12681A4219D00A
:101EF0000B68DBB2012B0DD1124A1268120709D10F
:101F0000F021114A12680A40402A03D10F4A126890
:101F10000A420FD0002800D162B6002030BD302C1C
:101F2000E2D0E5E70A4A0B4B1A6080220A4B120204
:101F30001A60DDE7C1228021D200C9058B50E9E794
:101F4000E00F00F0E40F00F0E80F00F0EC0F00F0FD
:101F5000DFFF07C004050040186C00400848816896
:101F60004A897F2A0AD8C069884207D000B509F09B
:101F700025FC01BC86460349034A0A6070470000FD
:101F8000D40B002004ED00E000000010F0B5C024E8
:101F900000220326FF25A40010002F003040C000BF
:101FA0008740930804499B005B1819590132B943D3
:101FB00019511A2AF0D1F0BD00E100E013498A68F6
:101FC00028201044EFF3098CF0C043464C46554698
:101FD0005E466746F8C00E4F0E4E72B6CA698A60FA
:101FE0003E60906D00239365002800D162B62824DE
:101FF00010191030F8C89846A146AA46B346BC4608
:102000002438F0C88CF3098870470000D40B0020F6
:1020100004ED00E00000000804207146014202D0F7
:10202000EFF3098001D1EFF3088081690239097863
:10203000022900D092E700B500F01CF900BDC046AF
:1020400005498A68906505490968D1650449054BC9
:102050000B6062B6D06D7047D40B0020B0CA000090
:1020600004ED00E0000000100E4B10B55A680400AB
:10207000D205D20D032A0ED10B4800F043FB09F024
:102080006FFBA2690100094800F03CFB2100002021
:1020900000F0F6F810BD06490F2A00DD0549103A98
:1020A0000548F1E700ED00E06DC5000085C50000C2
:1020B0003FC5000054C50000CFC5000070470000B8
:1020C000030605D41F2318401E3B8340014A1360BA
:1020D0007047C04600E100E0030609D41F23184002
:1020E0001E3B8340034AD367BFF34F8FBFF36F8F0D
:1020F0007047C04604E100E04309054A9B009B5835
:102100001F2210401E3A8240100018407047C046FF
:1021100000E100E043B270B58901002B12DB144AE4
:102120009B0803259B009B18FF222840A840150010
:10213000C024854011408140A4001E59AE43314364
:10214000195170BD03240F23C0B203402040A040AA
:10215000FC342500214085408140083B054A9B080E
:102160009B009B18DA69AA431143D961E9E7C0468D
:1021700000E100E000ED00E010B500F043F810BD14
:1021800010B5EFF3108472B6054B9869002803D0A0
:1021900000229A6108F06AFE002C00D162B610BDE0
:1021A000D40B0020F8B517001E000C000A9B0999FB
:1021B0000422050009F0EAFD39000722012000236E
:1021C000203961189143094AEB6482432B658A6187
:1021D000069A0E604A60079A8A60089ACA6080224E
:1021E0005204CA61A964AB65F8BDC046F9BB0000E2
:1021F000014910220A60704710ED00E062B630BF5E
:102200007047C04662B604207146014202D0EFF327
:10221000098001D1EFF3088000B5FFF725FF00BD6D
:1022200070B504000D00042809D0052816D00C480C
:10223000032C05D021000B4800F064FA02E00A48A4
:1022400000F060FA09F08CFAAA690100074800F072
:1022500059FA2900200000F013F870BD0448EFE798
:10226000E3C500003EC6000009C6000061C60000CC
:1022700023C6000010B501000068FFF7D1FF10BDB4
:1022800010B505280CD009F0A5FC00280BD009F0EA
:10229000A1FC0B49002800D10A490B4800F032FA92
:1022A000FFF7ACFFFCE709F09FFC0028EFD1074CDB
:1022B0000748A16800F026FAA06800F00BF810BDEE
:1022C0009DC60000A1C60000B2C60000D40B0020CD
:1022D000D2C6000070B50500EFF3108472B609F0A5
:1022E000EDFC0B4B9B689D420DD10A4B5A68D20501
:1022F00004D109F063FA2000FFF7A2FE802259689A
:1023000052050A435A60200009F09CF970BDC0468E
:10231000D40B002000ED00E000B572B60A4A9069C7
:10232000002803D00021916108F0A0FD62B6EFF310
:1023300005801021401AC0000449014409C998478A
:1023400008BC9E460AE60000D40B0020A80000004E
:1023500072B604480449401880F30988022080F3CB
:10236000148806E0001B00208002000030BFFDE75B
:10237000704710B5FFF7FCFF08F0A8FD08F0B2FDAC
:1023800008F0DAFD10B5FFF7F1FFFFF7E7FD10BD2C
:10239000002070470B6810B501330B60014B1B68C0
:1023A000984710BDAC210020F0B587B003930C9B7B
:1023B000070002910093002B01DC012300932023EE
:1023C0000593039B012B01D12F3305930A2301931E
:1023D0000023140001261F4D0493049B002B01D100
:1023E000A54226D2691C2000FDF7EEFE029930308E
:1023F000B847012301360493019B691C013B20006F
:102400000193FDF725FF28000C000A21FDF7DCFEF3
:10241000019B0500012BE0D1200002993030B84724
:10242000039B032B03D1009B9C1B002C0DDC07B0EE
:10243000F0BD009B019A9342DEDB039B022BDBD8AD
:1024400002990598B8470136D6E702992020B84787
:10245000013CEAE7FFC99A3B0A6830B58B68002A5D
:1024600002D04C68A34202DB01338B6030BD651E95
:10247000AB4203D18C600021D154F7E75C1C8C6027
:10248000D054F3E7014B18607047C046AC210020E0
:10249000F0B51C0000238DB00593013B039300238E
:1024A00007001E00029107920493079B18780028EA
:1024B00001D10DB0F0BD002E08D1252800D107E1D3
:1024C0000299B847079B01330793EEE764285DD074
:1024D00018D839280AD831284CD22D2839D030289C
:1024E0003AD0252808D10299B84765E0582800D18C
:1024F00087E0632800D1E6E002992520B847079BD2
:102500001878F0E7702872D006D869283ED06C2879
:1025100038D06828F0D1D5E7752857D014D873285B
:10252000EAD12668251D34002078002800D0C1E0BB
:10253000049B032B00D0D4E0039BA41B1C1B002C8A
:1025400000DDBBE02C0037E078285AD07A28B9D0DB
:10255000D2E703230493B5E7039B002B0DDA049B1A
:10256000002B00D1BBE0049B30380390002BA9D195
:102570000233EFE7039B002BF5DB0A23039A534357
:102580001818F0E7059B013305939BE7059B012B8A
:1025900014DC25680434002D06DA02992D20B84792
:1025A000039B6D42013B03932A00039B0093049B12
:1025B00002993800FFF7F8FE002683E7073423006E
:1025C000072293431C001D680834E4E7059B012B98
:1025D00005DC22680434039B0093049BE8E707347E
:1025E0002300072293431C001A680834F3E702997A
:1025F0003020B84702997820B84708230393073B57
:102600000493059B012B16DC2368043409930823EB
:1026100006930023082508930B93013D0998AB000E
:10262000D8400F23184012D10B9B002B01D1002D55
:102630002CD130230FE007342300072293431C00E2
:102640001B6808340993E2E70A9B0693E5E75723E2
:10265000092800D8273BC0180299B847089B0B9659
:1026600001330893069B0A93002DEDD1049B2E00A5
:10267000032B00D026E7039B5D00089BED1A002D7D
:102680009ADD02992020B847013DF8E7069B069A9B
:10269000013B0A93039B9342E6DB049B012B03D18E
:1026A00030200299B847DFE7049B022BDCD1029966
:1026B0002020F7E702990134B84735E70299202036
:1026C000B847013C3BE702992068251DB84739E728
:1026D00001235B420596049603930126F2E601234B
:1026E00038E72C000600EDE607B50B0000210200DC
:1026F0000191034801A9FFF7CBFE01980EBDC0462A
:10270000952300000FB407B504A901C90191FFF793
:10271000EBFF03B008BC04B0184700000CB430B5A0
:10272000002585B008AB04CB01900291040001A9FB
:10273000074800930395FFF7ABFE0398029B98426E
:1027400000DA255405B030BC08BC02B01847C046BA
:102750005924000030B5002585B001900291040095
:1027600001A905480395FFF793FE0398029B984241
:1027700000DA255405B030BD592400007047000030
:1027800070B50400074D0A2804D128680D2143685C
:102790005B6898472868E1B243685B689847200007
:1027A00070BDC0462000002010B5044C2000FFF78B
:1027B00075FA2000FFF766FE10BDC04681270000B5
:1027C00010B5044808F02AFB034B1860FFF7ECFF34
:1027D000002010BDF7C600002000002010B5040046
:1027E000043009F0CBFB2200002339326365013A43
:1027F0005370137007223A3423789343237010BD2B
:10280000F7B5020004008C46002301263C3209275C
:1028100000215F4311600D001D49C91901916746F0
:102820000199485D0109795C0007000FC140314200
:1028300006D03000291D8840010010680143116056
:102840000135092DEBD1106812493500814318007C
:102850000D3085400133294302C2032BD7D1230019
:1028600000223B331A70236D01330AD101225242F8
:10287000D317A264E364201D0422002109F05FFB4A
:10288000F7BD09F05DF8226DD31712184B41F0E740
:10289000FEC60000F01F000010B543680A001C6867
:1028A00000210123A04710BD10B51B4808F0B6FA5F
:1028B0001A4C0D212060FFF7EFFF0E212068FFF773
:1028C000EBFF0F212068FFF7E7FF04212068FFF7E7
:1028D000E3FF05212068FFF7DFFF06212068FFF7EF
:1028E000DBFF07212068FFF7D7FF08212068FFF7EB
:1028F000D3FF09212068FFF7CFFF0A212068FFF7E7
:10290000CBFF0B212068FFF7C7FF0C212068FFF7E2
:10291000C3FF002010BDC04664C40000B0210020E9
:1029200002003A3212780300510702D00C48110716
:102930000ED41900393192060BD50A785B6D084820
:102940009B5C203BDAB25E2A02D805225343C018B2
:10295000704705200A784243586D8018F8E7C04652
:1029600019C70000030001653A331B7810B59B06B8
:102970000CD5436D06491B78203BDAB25E2A02D89B
:1029800005225343C918FFF73BFF10BD416DFAE71D
:1029900019C70000043810B50068002243680121FF
:1029A0005C68014BA04710BDF01F0000F0B50400AB
:1029B00026003736051F337828680E3342689B009F
:1029C000EB18576887B05B6800220121B847307860
:1029D00003210130FDF79CFC0F1E317000D091E007
:1029E000AB6C013303D1EB6C013300D18AE008F00A
:1029F000A7FFEB6C8B4205DB00D083E0AB6C83421E
:102A000000D37FE0210036310A78530700D197E0E8
:102A10005306DB0F05335607DBB2760F00939E4259
:102A200058DA20231340039308231A400192280008
:102A3000FFF776FF039B0290221F002B35D0019BEE
:102A4000002B23D0536D1A784A4B203AD1B25E291D
:102A500002D805214A439B18009ADB5D921B9340E4
:102A6000029AD25D3241134304AABB540137052FA9
:102A7000DDD10722363423780136164093431E43B6
:102A8000267004A92800FFF7BBFE3BE02300353386
:102A9000526D1978535C9C466046364B0028DBD05B
:102AA00052185278203AD1B2D1E7019B002B01D0C5
:102AB000536DD1E7230035331978013B1B78013B77
:102AC0009C462C4B6145C7DA052301315943536DB0
:102AD0005B18C1E72000082335301A4214D09A430E
:102AE0000A7020230A78134012D003786C6DE45CDE
:102AF00063426341DBB2002B16D0D3060ED428000C
:102B0000FFF76CFE07B0F0BD037801330370E8E710
:102B1000343406782478A6425B41EBE70023037047
:102B20000A78083313430B7007220B7893431A007B
:102B3000012313430B702800FFF7F2FE0100A1E709
:102B4000210020233531087813400130C0B20870CD
:102B5000002B0AD06B6D185C43424341DBB2002B63
:102B6000E9D0D306CBD50023E4E734342478A0425F
:102B70005B41F3E719C7000008B4FFB50400270064
:102B800009AD08CD5837009116000193FFF726FED6
:102B90002B00019A282138000395FFF7DBFD3B78D5
:102BA000002B2AD025002200002167653A353932F2
:102BB0002B781170009A6031D2030B43D20F503939
:102BC00012018B4313432B706B461B88012B1BD0C8
:102BD000002B01D0022B10D1002E12D00621300084
:102BE000FDF740FB206507222B780A499343023208
:102BF00013432B702000FFF703FEFFBC08BC01B09D
:102C0000184750232365EEE731002000FFF7AAFEA6
:102C1000F3E7C04619C7000000487047B021002004
:102C200010B5EFF3108272B615490B78002B05D161
:102C3000002A00D162B64520404213E0013BDBB2DE
:102C40000B70002B04D0002A00D162B61020F3E7ED
:102C50000C4B01201C78002C05D00870002A0DD1E7
:102C600062B60C3810BD1870002A00D162B68022FE
:102C700001210020D20551601870F3E70B20DBE73B
:102C80002600002025000020002210B510000121A0
:102C9000FFF740FA0020FFF713FA002010BD0000F4
:102CA00070B5EFF3108372B6274A1078441C147085
:102CB00000280BD0002B00D162B68022234BD20516
:102CC000D3580020DB0300D4443870BD204E347844
:102CD000002C06D01070002B00D162B60B204042B1
:102CE000F3E701223270002B00D162B68024194D27
:102CF000E405002924D00020FFF7EEF90023C122CB
:102D00006B6092000133A158A35023606B68002BC5
:102D100012D000236B600133194202D1C22292000B
:102D2000A350C02301210C4A5B00D1500020FFF7C3
:102D3000C7F900233370C0E720BF40BF20BFE5E7DD
:102D4000012369602360F4E7260000200C040000E2
:102D500025000020FC00004000E100E0F8B507007D
:102D60000D00EFF3108372B62D4A117800290CD0B4
:102D7000002B00D162B683238022DB00D205D3581A
:102D80000020DB0300D44438F8BD01211170002B72
:102D900000D162B60020FFF79FF90022214C80236A
:102DA000A260C1220220DB05920099589850A3220C
:102DB000D2009D5001229A60A268002A2CD00022E5
:102DC000A2600232114202D1C22189005A50C023AE
:102DD0000126154A5B00D6500020FFF771F98023C9
:102DE000C22218209200DB059850032100222940BE
:102DF000226162619142BED1A7221024D2009C5070
:102E0000C122920098509E503800FFF749FF0028D9
:102E1000B1D1064B5E60AEE720BF40BF20BFCBE71D
:102E200024000020FC00004000E100E0FCE100E0A4
:102E3000F7B5244C8023E268DB059446C12292005A
:102E4000995801220A40204905005E58009267689F
:102E5000A0682169626901926246002A01D00022BD
:102E6000E260002F01D000276760009A002A06D098
:102E7000F20304D5C2260122B6009A511A61002835
:102E800001D00023A360002908D00021280021617F
:102E9000FFF7C6FE80230122DB055A61019B002B50
:102EA0000ED00021C1238022616101249B00D20544
:102EB000D4502800FFF7F4FE002801D1034B5C60DA
:102EC000F7BDC046FC0000400C040000FCE100E03F
:102ED000036870B59B6801259A681F2683680020E7
:102EE000DC682300C3402B4208D003004533FF3386
:102EF0009B009B581B0A33408B4203D001300428AF
:102F0000EFD1173870BD30B515000268A220926865
:102F1000C00014682258002902D1EA4001310A4059
:102F200000201A6030BD0000006880680068002939
:102F30000AD101319140002B04D0A123DB00C15004
:102F400000207047024BFAE7024A8350F8E7C04678
:102F50000C0500000405000010B58368002A08D0A5
:102F60001A680A605A681960002A00D15960002066
:102F700010BD18680028FAD081420FD15C6808683B
:102F8000002A06D11860A14200D1586000230B60CE
:102F9000EDE71060A142F9D15A60F7E7020000683E
:102FA000E8E7F8B503680C009B6817009D68866821
:102FB000002914D11100FFF78BFF00280EDB01233D
:102FC0001A00BA40B16883400A43B260020040323E
:102FD00092005451C12220009200AB50F8BD232032
:102FE0004042FBE7F8B503680C009B6816009F6839
:102FF0008568002910D11100FFF76AFF00280ADB5D
:1030000001231A00B240A96883409143C2222000E4
:103010009200A960BB50F8BD23204042FBE710B5E9
:10302000002201210620FFF775F80620FFF748F877
:10303000002010BD0368F7B59B6804009B6801275A
:10304000019300231A00856801989900411808002F
:10305000FC304668002E0AD000264660A220C00040
:1030600009581F20090A01403800884002430133F3
:10307000042BE9D1AE6806201640FFF72DF82D6825
:10308000002D03D10620FFF71BF8F7BDAB683342D4
:10309000F5D03200290020006B689847EFE7000068
:1030A000F0B506001400026885B09268B5689068B3
:1030B00017680390002902D02320404263E00322D6
:1030C000C020191311408C469913114080021840FA
:1030D0000291C021019080208900194009324000EE
:1030E000814204D0354A89184A424A4192008021DF
:1030F00001984902884201D10021019160460121D5
:10310000800084460B4245D00C2A3ED1A120A1402C
:10311000C000395002992A486144890008580321A7
:1031200001430A432100C131FF318900CA51022005
:10313000184028D09A06BFD55A0639D480275B0795
:1031400038D4BF02E868FDF75BF9042834D03000BA
:103150002100FFF7BDFEEE68002803DAF043FDF71B
:1031600045F9013801231A0082401643F82224024F
:103170005201144045301C43FF30039B800027431D
:10318000EE60C750002005B0F0BD042AC2D1A140B6
:103190000C48BEE702990A48614489000958019821
:1031A0000A4310432200C132FF329200D051BEE7E1
:1031B000C027C6E77F02C5E705207EE700FEFFFFC8
:1031C00024C900000C050000F0B587B00193036826
:1031D00000929E68826801980291B179131D0028BF
:1031E00009D00098019CA04205D01C00C800043002
:1031F0001018844205D10020814210D14B1EDBB251
:103200001FE0029D2768BD4207D06568002D04D0ED
:10321000009D1768BD4200D0B7E00834E9E70833E5
:103220001C00083C2468029DA54244D00130C0B275
:10323000E2E7DD005519AD685C1EE4B2002D04D054
:103240002300FF2BF5D10C20A0E08342FBD2307984
:103250004F4DC01880004019A22704900020049D03
:10326000FF003468E85176795D007519EDB2AC461F
:1032700001260135AE4067460125BD40A1272E43FA
:10328000444DFF000396EE510126029D1037AE40DB
:10329000A025ED05EE51019F87420ED13E482E50EC
:1032A0000020DB00D318C90098605118914265D105
:1032B0000123636067E00300C9E7009F019DAF42FF
:1032C00004D1A120A025C000ED05E8E7A025324FDC
:1032D000ED05EE51314D890060510C356051083DCE
:1032E00060519D0067193D006118FC3568640D0050
:1032F000FC35686480250826AD006651009D059167
:103300002E0C019DF5402900A825ED007951009F64
:103310000599F7404F510121A226E1600299F6007C
:103320000D021F49A3272943049DFF00A9516146AF
:103330001D00184EC9008919A2265035AD00651927
:10334000F6008D51124E9D00B446164E65448D51C7
:1033500026004D36FF36CE51134EDB008D510D4900
:103360000E4D039E4E510121216000991160D2182B
:10337000029B5360019B936007B0F0BD0832136855
:10338000002B00D192E70020F6E716204042F3E739
:103390000060004000F001400C0500000405000042
:1033A00003001300140500001C050000802000210C
:1033B00040041060516000207047002070470000FA
:1033C00070B5836815000C290ED19B69084C09491A
:1033D0005C432000FCF746FF064928602000FCF70C
:1033E00097FF0020696070BD23204042FBE7C04684
:1033F00090D0030040420F0010B584680C4807F0DD
:103400000DFD0122E06152422000002108F002FA85
:10341000002201210C20FEF77DFE0C20FEF750FE5D
:10342000C1230121034A9B000020D15010BDC0469A
:1034300017C9000000C00040002210B5024B806890
:103440005A6008F0F1F910BDFCC0004070B5846806
:103450001E2901D00C2918D1E069012143680126F9
:103460001B68984701210A4D49422E60200008F050
:1034700035FAE069310043685B689847A123002072
:10348000DB00EB58A3616E6070BD23204042FBE778
:1034900000C0004003689B681B681A00FC32D068BB
:1034A000002806D00020D060A322D2009B580B70C9
:1034B000704701204042FBE70368064A9B681B688F
:1034C0009950FC331A6A002AFCD0002208001A62C4
:1034D0007047C0461C050000036800209B681B68FD
:1034E0001A00FC32926A824203D09022D20098588D
:1034F00098500F2318407047F8B5036805009B6883
:1035000018481C6807F08AFC436806001F680223FD
:103510001822FF330021B847736830001F6800236A
:1035200019221900B84718220F4BEB21E2500F4B1C
:103530000132E250E122AB6852021A602B68490462
:103540009B6800201A680A4BD1500422243BE250A9
:103550002300FC331862D8600123A3602360054B6D
:103560006B60F8BD64C400000C0500001405000089
:1035700024050000B4C90000A822084BD2009850CE
:10358000074A9B58C01A0002000A064B02389842AC
:1035900003D98022044B92025A6070470010014008
:1035A00004050000FDFF7F00FCE100E070B5114B59
:1035B000114A124CD0582568401B0002000A82288C
:1035C00012D98321FCF700FE0D4B1A68824200D904
:1035D0000200832353435B191B021B0A2360094B20
:1035E00010001A6008F0B4F920688330FFF7C4FFB8
:1035F00070BDC046040500000010014078000020A6
:103600007400002064240020002210B5024B5A648C
:10361000FFF7CCFF10BDC046FC100140074A10B5B3
:103620000300904200D913008320054A58431360D9
:10363000044B1B68C018FFF79FFF10BD23FA000062
:1036400074000020780000200022074B10B5802174
:103650005A64C023054A5B008902D150FFF7A6FFD8
:103660000122034B1A6010BDFC10014000E100E094
:103670007400002070B51A4807F0D0FB00282BD04A
:1036800000240126436800211B689847154B8322BC
:103690001C60154B154D1E60A123DB00EC50383328
:1036A000EA508023D1225B029200AB50403AAB50EB
:1036B0000F4B80215C64C0230E4A5B008902D1500D
:1036C000112022003100FEF725FD1120FEF7F8FC45
:1036D0002000AE602E6070BD01204042FBE7C04676
:1036E0000CC9000078000020740000200010014088
:1036F000FC10014000E100E070B5060088790D0083
:1037000007F072FA0E4B984218D1280007F072FAAF
:10371000280007F06FFA0B4CC00020184368002BFC
:103720000CD0280007F066FAC0000655280007F004
:1037300061FAC0002418606808F076F870BDC046D1
:10374000402500207C00002010B5420904000648F6
:1037500092007030801808F055FC1F231C40204157
:103760001E3B184010BDC04638220020F7B501911D
:10377000012105004942134807F0C8FA070008373D
:1037800004000021380007F0C9FA00232000237547
:1037900007F030FA0C4EC00030184580200007F0CA
:1037A00029FA0023C000361873603800032107F09F
:1037B000FDFA6B461B7905702D0A45708370200059
:1037C000FEBDC046402500207C00002070B50C00E6
:1037D00086B01500002903D1FFF7C8FF041E2FD0C3
:1037E00001220021684608F015F8200007F002FACF
:1037F0006B46144EC00030184360200007F0D2FA28
:1038000011482100B43007F08DFA1049684608F0DD
:1038100065F8200007F0EEF9C000805D002805D0B3
:10382000200007F08DFA0520404202E0002D02D072
:103830002C6006B070BD200007F082FA2800F8E77F
:103840003720F1E77C0000203822002010270000FC
:10385000F8B5144E06223700083739000500FDF789
:103860009BFD041E18D006210F48FFF77FFF041EA2
:1038700014D006222900083007F09FFA2100002208
:103880000948FFF7A3FF041E06D1062229003800CD
:10389000FDF7A6FD0123F3712000F8BD3724644233
:1038A000FAE7C046382200200520000070B502214A
:1038B00005001648FFF75AFF041E23D002210830E6
:1038C00007F074FA0600012D14D10A20FFF73CFF1F
:1038D00070702100357000220C48FFF777FF041E3E
:1038E00006D10B487030012D07D1802108F096FBDE
:1038F000200070BD00234370EBE78121494208F0AE
:1039000098FBF5E737246442F2E7C0460C2000003C
:103910003822002010B50820FFF716FF041E01D042
:10392000002010BD0720FFF70FFF0028F8D020006F
:10393000FFF7BCFFF5E7012310B506210400037073
:10394000C01801F0F1FA002804D14023A2795B42AB
:103950001343A37110BD0000F0B587B004AA002185
:10396000C548FFF733FF041E00D035E1049B9B6878
:103970001B78002B06D1C148C14A01217030136069
:1039800008F042FB049807F0DBF904AA0021BD48C7
:10399000FFF71CFF041E00D01EE1B84D049B280059
:1039A0009968082201311630FDF71AFD049807F0D6
:1039B000C7F9210004AAB448FFF708FF041E00D08D
:1039C0000AE1049883685A78AA73DA78997812021F
:1039D0000A432A821A79EA731A7AD97912020A43B7
:1039E0006A825A799B791B021343AB8207F0A8F9CC
:1039F000210004AAA548FFF7E9FE041E00D0EBE071
:103A0000049B06229968681C0131FDF7E9FC0498C3
:103A10002C7007F095F9210004AA9D48FFF7D6FE07
:103A2000041E00D0D8E02800049B402299681E3074
:103A30000131FDF7D5FC049807F082F9AB7E5B06F7
:103A400000D457E1210004AA9248FFF7BFFE041EEC
:103A500000D0C1E02800049B082299687830013129
:103A6000FDF7BEFC049807F06BF9AB7E9B0600D413
:103A70009AE02B003A331B781B0700D5AFE00821F2
:103A80008548FFF773FE041E00D193E0082140181B
:103A900007F08CF92B0040331A7806231A40043BB8
:103AA000062A01D18133FF33002203701B0A4370C1
:103AB0008270C270027142718271C27121007648B7
:103AC000FFF784FE041E00D086E008217348FFF74C
:103AD0004DFE061E6ED00821083007F067F98023DE
:103AE00002274370603B04708470047144718471D8
:103AF000C770C371220031006848FFF767FE041EDB
:103B00006AD1010004AA6648FFF760FE002826D1AA
:103B1000049807F015F904AA21006248FFF756FE41
:103B200000281CD12800049B3A0099685F300131BD
:103B3000FDF756FC049807F003F904AA21005A483F
:103B4000FFF744FE00280AD12800049B5E309968E4
:103B500001220131FDF744FC049807F0F1F8072237
:103B6000002102A8FDF766FC072202A92800FDF744
:103B700013FC002857D14D4E3368002B60D12B0029
:103B8000012460331B78234200D097E02800FFF720
:103B9000D2FE041E20D13368002B5AD05E682A0062
:103BA00007230100B04754E002214148FFF7DEFD42
:103BB000061E02D1372464420EE00221083007F0CD
:103BC000F5F8012344700370220031003848FFF7F4
:103BD000FDFD041E00D14CE7200007B0F0BD04AA93
:103BE00000213448FFF7F2FD041EF5D104988268E5
:103BF000531C59785278090211439A781C7912049F
:103C00001143DA7812060A43597909020C4399796B
:103C1000DB79090421431B060B43290080310CC1C9
:103C200007F08EF82BE70722234904A8FDF7D8FBFD
:103C3000072204A92800FDF7AFFB00289BD0CBE7A3
:103C400000211C682A0007230800A047072800D08D
:103C500095E72B78012B4BD13F22AB799343C02BB7
:103C600046D1681CFFF7F4FD041EB5D128000421DD
:103C7000703008F0D3F9AFE7030C000038220020C1
:103C8000D8000020031000000110000009100000FF
:103C9000021000000320000001200000010C0000C1
:103CA00001FC000002FC000003FC0000000D0020ED
:103CB0006D0C00001C200000DCC3000001AA0021E4
:103CC0000D48FFF783FD002800D05FE70198816869
:103CD0004B78002B09D00231681C06222C70FDF7AE
:103CE0007FFB019807F02CF8B3E707F029F84DE7C0
:103CF000162460E713245EE709FC000010B5FFF707
:103D00002BFE041E07D107480221703008F086F907
:103D10002000FFF7FFFD044B1B68002B01D02000A3
:103D2000984710BD38220020D4000020F0B5057D52
:103D300087B00400012D3FD187683B780E3B012BF3
:103D40003FD862B6042002DF11214A4FA6687037BF
:103D50004942380008F06DF93378002B08D1711C06
:103D600040224548FDF73CFB2900380008F056F991
:103D7000424B1D68002D05D1200006F0E1FF002018
:103D800007B0F0BD002032782B68824200D1701C51
:103D900098476D68EEE73A4DA2682B68002BEBD090
:103DA00000201178814200D1501C984700232B60DD
:103DB000E2E7FDF715FB37E006F0C2FF16204042B0
:103DC000DEE7060008360221300007F000F83B78F5
:103DD0003E2BD1D1A7682900300006F0F8FF3D78CE
:103DE000082DB1D0092DD6D0022DC5D1300006F056
:103DF000F6FF0090009B002BBED0A5680921300083
:103E000006F0E5FF2B7A691CEB185B7A0722019319
:103E10006B7804A8023B012BCBD8FDF7E1FA04AB89
:103E20001B7804AA023B1370164F3B68002B17D077
:103E3000300006F0DCFFA389029003932B7A042163
:103E4000A3816B462A7859563F68330004A8B847C7
:103E50006B4622691B89D318A3606B469B89A3819B
:103E6000297A3000013106F0B2FF009B013BDBB242
:103E70000093BFE73822002090000020D0000020EF
:103E80008C000020D8000020F8B5037D040086686F
:103E9000012B02D062B6042002DF8389012BF9D9FD
:103EA00033780E3B012BF5D8050008350221280098
:103EB00006F08DFF33780E2B05D00F2B19D0200084
:103EC00006F03EFFE6E7A368032128001E7806F00F
:103ED0007EFFA36821001878FFF70EFC002E03D0A8
:103EE0000A48883007F0A0FC200006F029FF0020D7
:103EF000F8BDA66804217778280006F068FF3078BE
:103F00002100FFF7F9FB002FEED0E9E7382200206F
:103F1000094AC4321368002B08D18168002908D0EF
:103F2000C168002905D01060180070474520404244
:103F3000FBE71620FBE7C0463822002070B50500DD
:103F4000054806F0E3FE041E04D00021083006F008
:103F5000E5FE2575200070BD6025002010B501002C
:103F6000EFF3108272B600200B4BA0331C68186070
:103F7000824200D162B6002C09D00123002120002A
:103F80002375A181083006F0C9FE200010BD012074
:103F9000FFF7D4FF0400F8E73822002073B51400BF
:103FA000032205001860C31D601E80B2484393437E
:103FB0001C800E00281801320021FDF73BFA023C5C
:103FC000084BA4B29C4200D173BD601C70432B18F7
:103FD000801B2818042201A90193013CFDF700FA77
:103FE000EEE7C046FFFF0000F7B505680600002DAC
:103FF00011D00327EB1DBB431C880422290001A814
:10400000FDF7EEF9019B013CA4B2002B02D0DA1DB2
:10401000BA43148033602800FEBD0B6870B50500FC
:104020000C001E1E03D00322073393431E88280072
:1040300004222100FDF7D4F90322EB1D013693433E
:104040001E80256070BD4A4380187047401A10B525
:1040500080B21100FCF7B8F880B210BD10B5064B65
:104060008918013A92B29A4200D110BD01390C78F8
:1040700004700130F5E7C046FFFF000010600860E3
:104080007047136818601368596010607047884261
:1040900004D0002A01D04368136070470020FCE779
:1040A0000B6883420AD0002A04D0586810601A684E
:1040B0000A6001E0002BFAD1180070470023FBE7EB
:1040C000F7B504243026013CE4B2FF2C18D03300AD
:1040D0006343A700019304250DE00C216943019B74
:1040E0000848C918084B0A1D9A1859187B19DB0093
:1040F000C018FFF7C3FF013DEDB2FF2DEDD1E2E7A0
:10410000F7BDC046DC0000205C01002070B5104DFA
:104110000C243026002A0DD023004E4343439B1924
:10412000EB181D7A5C7AAC4201D101341C7206F0A6
:10413000CFFC70BD44434E43A4192C19A27AE37AF4
:104140009342F6D10133A37206F0EEFCF1E7C046CC
:104150005C010020F8B506000F001C00002A14D0F6
:104160000121032263782578ED1A15402BD0002910
:1041700022D00120854207D01B18DBB22370390002
:10418000300006F0D1FC0020F8BD06F0BEFC00288F
:10419000E6D03900300006F0AAFC0028E0D00C235D
:1041A000302273437A439B18124AD3189A7AD97AE9
:1041B000511A4A1E9141D4E70233DBB22370E368FF
:1041C000A0689847DFE70029F9D00133DBB230223D
:1041D00023700C237A4373430432D218054B210019
:1041E0009A186068FFF74DFF3000390006F09CFC1C
:1041F0002800C9E75C01002030231A00F0B54243D3
:1042000089B00592002204000426029203920093D2
:10421000013EF6B2FF2E0BD1039B002B77D0029B01
:10422000002B74D11A002100200006F051FC6EE032
:1042300000230C250793009B75436343354FEB1810
:10424000F918D85907AA4968FFF721FF059B019083
:10425000ED187B190493019B002B1BD10C230099B3
:10426000734361432B4A5B18D318997AD87A8842F2
:1042700002D0D972012303930C2300997343614345
:104280005B18D3181A7A597A9142C1D05A72012315
:104290000293BDE70321079B1F785A78BF1A0F408E
:1042A000012F04D1013A5A709868DA6890470322C6
:1042B000079B1D785B78EDB2EB1A1340012B0FD0F2
:1042C0000C23009A734362439B18124A0499D31833
:1042D00058680022FFF7E4FE079B019A5D705A6060
:1042E0000C23009A734362430A489B18C11807AA1B
:1042F00049681858FFF7CBFE0190012FABD1002E73
:1043000001D10028AAD02100200006F00DFC09B040
:10431000F0BDC0465C01002002004118002010B52D
:104320008A4200D110BD1478002C01D10132F7E788
:10433000631E01301C40C0B2F6E72823F0B5457F6C
:1043400000242A009C460668FF2A01D10020F0BD07
:1043500063465343F3181F788A4204D09B681500C4
:10436000E4183A00F0E7954200D1477728225543F8
:1043700019789868A9551B78FF2B04D05343F3187C
:104380009A6812189A602018E1E7531A70B5846889
:1043900045691E0209D41B021B0A1B19AB420ED928
:1043A0005B1B00254561836070BD8B1A1B021B0AD5
:1043B0009C4201D9E31AF1E7ED1800232D1BED1AF9
:1043C0000023EFE7030000221A709A6A10B5080074
:1043D0005962002A01D0D96A904710BD0123F7B570
:1043E000867F0400C377002E03D1437FFF2B01D1CA
:1043F000C677F7BD05F09AFE6369677FC51A2D027F
:104400002B0A009323680193FF2F07D028235F43D3
:10441000019B009AD9198B689A4217D2A27AE37A43
:10442000934205D10133DBB2022B00D10023E372AA
:10443000E37A656A02339B00E3185E600023012281
:10444000E377042123000320A847D2E7009AF61857
:10445000D21A00928A784B780F789B1ADBB2012B24
:10446000D2D1CB68013A8A701D1ECDD04B69CA8B60
:10447000F01A6369C01800020B69000A496AA8476C
:10448000C2E70000F0B5C27F97B00700002A00D055
:1044900080E00123837743690893837AC17A994244
:1044A00000D179E00133DBB2022B00D11300BB72E3
:1044B00002339B00FB185B680093009A089B9B18D3
:1044C0001B021B0A7B61012303937B7F05933B68DF
:1044D0000D937B680E937B7A013BDBB20493002340
:1044E0000C93FF330193049BFF2B58D17B7F059ADC
:1044F0009B1A5A1E9341DBB20B93039B002B16D0E1
:104500003B680793002302937E7FFF2E0AD0282466
:104510007443079B1C19A568009B9D4200D821E1AC
:10452000ED1AA560059BB34201D0039B0B933B683A
:104530000E937B6812937B7A013BDBB20693069B5A
:10454000FF2B00D059E17B7F059A934200D021E3F5
:104550000C9B002B07D17B6803937B7A013BDDB278
:10456000FF2D00D087E20023BB770B9B002B08D0E8
:104570007B7FFF2B00D0D3E205F0C2FD002800D1E5
:10458000B861FB7F002B05D07C6A3B000122032130
:104590000420A04717B0F0BD0392009295E7049B5A
:1045A0000E9ADB00D31802935B680F93029BDA78B4
:1045B000029B9E78964200D1CFE0302575430F9B39
:1045C00002995D190978731CDBB2994200D100236E
:1045D00002998B702B78032BEAD9052B16D8282447
:1045E00069780D9A4C4314196278A078121AD2B2E5
:1045F0000692002A0AD0042B0DD16B68002B0AD139
:10460000AB68002B07D1EB681B0204D10121280005
:10461000FFF7D8FECAE7069B012B00D093E03800D5
:10462000FFF78BFE2B780600A060042B00D07FE004
:104630007B69099305F07AFD099A0A90801A0002B5
:10464000009B000AC01886423AD9301A63689C461B
:10465000002B12D0AB89002B0FD0013B9BB20793EC
:104660006B469B8BAB81844530D3D34EE18B079B4C
:104670008B4248D86B469B8BA383AB886269181822
:10468000A060EB880999D31863610A9A2000FFF7AC
:104690007CFEA2692B899B18A3616A89934245D944
:1046A0009B1AA361AB7B002B00D0E3706B461B7998
:1046B00023706B7801936378013363700021A6E760
:1046C00063699E1B301860610020BFE7E38B0B938A
:1046D0000B9A079B9342C8D2666AB84971180B00BF
:1046E0001A00B54B00219A4203D9B54B0699F6182A
:1046F0006662636A266A0B9A9E1B6144013A66628F
:10470000401AE283AFE7636A226A9A18AB4BD31868
:10471000B34206D962620022624401318018E1830B
:10472000A4E7A84BD2186262069AF5E70023B8E71F
:10473000A37863703A7F6B789A42BFD1FF233B77AF
:104740000023BB61BAE704213B00012208007C6A18
:10475000A047029B9E7001230C93049B013BDBB29C
:104760000493C0E6029B5B190293BB699D4237D25A
:104770005B1BBB61A369002B01D03E77BB610022AC
:104780002378A2607B776068904232D0A38B069337
:10479000894B9C46216A636A5B18884959186145B0
:1047A00022D9636200231B18D218069B013B069393
:1047B000F0D2089BA260029A79699A182000FFF74C
:1047C000E4FDA38BE3830023E3706B461B79237026
:1047D000637801336370009B01965B1B009393E643
:1047E000FF233B770023C4E776495B186362039B92
:1047F000D9E7A378019E6370EDE7069B129ADB0070
:10480000D31807935B681393079B5B780393019B13
:10481000FF2B00D183E02824019B5C430E9B1C19D5
:10482000019B029323780193002300933B680021AE
:104830001493FF23A28B2370E38B0F91934202D931
:104840009B1A9BB20F932823029A534315933B68FC
:10485000BA699C46159B634408939E687B7F0992C6
:10486000FF220D930A92FF2B06D028225A4362445E
:104870009068864200D9ABE01D00089A92691092B8
:10488000B018FF2D00D0B1E0109A002A06D0099A86
:10489000964200D2C3E0FF2D00D081E1089A9660D5
:1048A00013700D9A934200D0B1E06A46127A7A777B
:1048B000FF2B05D02822534363449A68921B9A60C9
:1048C0000021A37801336370009B002B9FD0180058
:1048D000FFF778FD9BE73023039A5343139AD318CD
:1048E0000093039B0133DBB20393079B039A1B786E
:1048F000934201D100230393009B1B78032B0ED11D
:104900002824009B5B785C4302930E9B1C19627801
:10491000A3789A420AD001210098FFF753FD079B24
:10492000039A9B789342D6D1069B05E60025009B0F
:104930007969DB6820006360009B1B690893236230
:10494000009B9B8AA383009B9B69A361009BDB69FF
:10495000E360009B1B6A2361009B9B686561089371
:10496000A360009B5A68FFF710FD01236562E58391
:10497000E3705BE76368002B00D17AE0216A626A2A
:1049800052180E4950180C49884210D96262002210
:10499000A1685B189B18E28BA3600132E283626915
:1049A0000021934210D99B1AA36061614FE705492A
:1049B000521862620122EBE7592B177F5A2B17FF1F
:1049C0004AA9D101B6562EFED31A6361A1603EE713
:1049D0009569361A002D07D10999884200D20D1A1F
:1049E0000D93099513783EE70A93F9E728226A4365
:1049F000624491681191814207D29169002900D0E7
:104A000042E711991578401A3BE7049D3CE72821BD
:104A10000D9A68464A436146007A505448E7029B23
:104A20000A9A934200D14BE70A9BFF2BA2D01D00AC
:104A300028266E43149B00229E19F38BB18B8B4268
:104A400001D95B1A9AB27368002B93D00F9B9A42DC
:104A500090D8F278E3789A428CD229003800FFF798
:104A60006CFCB378B06073706B461B790195337042
:104A7000EDE6012128E7039BEC001C196368049311
:104A80006378E2789A4202D1013DEDB268E53022C6
:104A90005343049AD3181A78012A26D0022A2BD11C
:104AA0005A68D9689446009139689A6801916146BC
:104AB0000978FF2904D0106806007869864224D05E
:104AC0007869797F10600022FF290AD028204843A6
:104AD000019E3018866802968669002E1CD00298C6
:104AE00012186046017000990A6000209A6A5862A4
:104AF000824201D0D96A9047637822780133DBB2D1
:104B00009A4200D100236370BAE728204143009AFB
:104B100001981268415CD7E7029952180178D3E7EF
:104B2000059BFF2B07D105F001FB040005F0D8FA27
:104B3000002800D17C6128230A267A7F53433A68F3
:104B4000D3189B68009305F0F1FA7B69009AC41AA8
:104B50002402240A03340500944200D214001C19D4
:104B60002402240A2000BB6A984705F0DFFA401BA4
:104B70000002000A641B24020330240AA04200D869
:104B8000FFE4013E002EDED162B6042002DF0023E6
:104B9000BB77EDE40C9B002BF9D101230B93DAE4F6
:104BA000029BAB4200D043E78AE6C046F7B5060059
:104BB0002C2708AC01CC77432578174C01903A514B
:104BC000E019302701720199437241600A99013B53
:104BD000DBB2FF2B13D10120002D0FD12B307043FE
:104BE0000B9A201802620C9A437742620D9A03775F
:104BF0008262856145618572C5722800FEBD01989B
:104C0000DA00821838005160127850438446AD1A99
:104C10006144EDB2DBE7C0461C0200202C23584360
:104C2000054B10B51B185C6A002C03D00122032130
:104C30000220A04710BDC0461C020020F7B52C275B
:104C400078431E4F0BAC3F1824887868CD00451977
:104C50000194EC782878661CF6B2864280410640C2
:104C6000687884460120B44526D02F3044436868D4
:104C700004196360089B0320A360099B6270E360D2
:104C80000A9B207023610C9B0800A3616B469B88E4
:104C9000A3820D9BE3610E9B2362022363620F9B41
:104CA000A362109BE362EE703B6A7D6A98473B000B
:104CB00000220421A847606AFEBDC0461C020020F5
:104CC000F0B52C2687B09C460CAB1B887043019333
:104CD0000DAB1B88214E02930EAB1B883618039335
:104CE0000FAB1B88CD00049310AB1B780593736842
:104CF0005D19EC782878631CDBB2834280416F78C1
:104D0000034001209F4227D02F3044436868042786
:104D1000041962706246A2806A4692882770E28017
:104D20006A461289080022816A46928962816A462F
:104D3000128AA2816A46127DA27302226262119ACD
:104D4000A262129AE262EB70336A756A9847330086
:104D500000223900A847606A07B0F0BD1C0200209D
:104D6000F8B52C277843144FCD003F1878684519C3
:104D7000E8786C78461C84462878F6B286428041F2
:104D800006400120B44216D060463024444368688F
:104D90000419627005200222A362069B20706262E1
:104DA000E362EE7008003B6A7D6A98473B00002290
:104DB0000421A847606AF8BD1C020020F7B52C2723
:104DC0007843184FCD003F18786801934519E8786B
:104DD0006C78461C84462878F6B2864280410640AC
:104DE0000120B4421CD060463024FF23444368684D
:104DF000041902206370019B6260A360089B20700D
:104E0000E360099B6062A3620A9B0800E362EE70A4
:104E10003B6A7D6A98473B0000220421A847606AEC
:104E2000FEBDC0461C020020F7B52C277843154F65
:104E3000CD003F18786801934519E8786C78461CD6
:104E400084462878F6B28642804106400120B4426A
:104E500016D0634630245C436B681C192070019B9C
:104E6000FE306070FD386062A262E362EE7008009E
:104E70003B6A7D6A98473B0000220421A847606A8C
:104E8000FEBDC0461C02002070B52C246043054CBA
:104E90002418236A0800656A984723000022042129
:104EA000A84770BD1C02002010B505F03FF910BDE9
:104EB000401A0002000A7047020010B508000023E3
:104EC000012A0BD8064C9A4200D1064C2300002838
:104ED00004D006222100FCF783FA2300180010BD3D
:104EE0007A0200207402002070B506000D0004F064
:104EF00065FA041E02D00C24200070BD04F072FA82
:104F000006221042F7D129000348002E00D10348A1
:104F1000FCF766FAF0E7C0467A020020740200202F
:104F2000002303700B707047F8B5012706000C00D2
:104F30007F42002C01D10020F8BD094D3900280026
:104F400006F004F92000310005F0D2F90400280031
:104F500006F05EF9002CEED020BF40BF20BFE8E78E
:104F60001C25002010B50248FEF7D2FF002010BD1E
:104F7000ECC9000010B583890400002B0DD0037D1F
:104F8000002B0AD100F078F9002801D0FEF77CFF51
:104F9000200005F0D5FE002010BD16204042FBE7A2
:104FA00037B501256D422900194806F0FBF9041EAA
:104FB00025D000F003FDC3B20194022B22D80021BA
:104FC000012801D029000120FEF7B8FF041E03D0FC
:104FD0000100019800F01EFC019B0021D88804F01C
:104FE000CFFA0022019B01A81A6004F065FA002C98
:104FF00005D0A3892000002B07D0FEF797FE06F00E
:105000006FFBD0E762B6042002DF05F099FEF6E7F9
:105010003025002013B5012464426B4601A8991C79
:1050200004F010FA0028F8D1019B002B06D004F000
:1050300085FC0199044806F08EF9EEE7210003484B
:1050400006F04CFCE9E7C04630250020042500208E
:1050500010B5144886B004F015FD041E1FD100F0F1
:10506000CDFC0A23E0225B42039352000E4B0F4912
:10507000059404940294019400940D4806F0FEFDFA
:10508000082380225B4203930594049402940194C4
:105090000094084BD2000849084806F0EFFD2000B4
:1050A00006B010BD0425002015500000401000205F
:1050B000640D0020A14F000000120020040D00200C
:1050C000030A0870000C8870000A4B70C8707047A3
:1050D00070B508300D000221140005F067FE057060
:1050E000447070BD70B5040001200D004042FEF711
:1050F00035FFEA1C2060D2B20E21FFF7E9FF2068DD
:105100000321083005F052FE01230370054B2900EE
:105110001A785B78427083702068083005F046FE8C
:1051200070BDC0468002002070B504001500013239
:105130000E00D2B208343E21FFF7CAFF0121200041
:1051400005F034FE29000670200005F02FFE70BD2A
:10515000F8B51400104A070052680E00920014D5EA
:1051600008250E4A12682A420FD00B22042118008B
:10517000FFF7DAFF4470EC40077084700330002FB3
:1051800004D1311D2A00FCF72BF9F8BD2A000021BB
:10519000FCF750F9F9E7C04600230020082300205F
:1051A00070B503788AB004000E0007AD032B21D838
:1051B0001800FAF7EBFF02191B1D11492800FCF734
:1051C000C9F86278A3790492A27805950392E278EF
:1051D0001B21029222793000019262790092094AE1
:1051E000FDF79CFA0AB070BD0749E7E70749E5E714
:1051F0000749E3E7074A0A212800FDF78FFAE0E7AD
:1052000007CA000030CA00000ECA000015CA00001C
:105210001FCA000029CA000010B583788AB09B0617
:1052200011D0C378DB070ED5037801AC5B06DB0F2A
:1052300023706B46011D0622581DFCF7D1F803A907
:105240002000FFF7ADFF0AB010BD03005A780078C8
:10525000120202439878197900040243D8780006B4
:1052600010435A7912020A43997909040A43D979F9
:105270000906114370470000F0B5002699B00D965D
:1052800081890500022902D8002019B0F0BD82688A
:10529000C04C537810781B020343238093788B42D1
:1052A000F2D828000321083005F091FD23889C05E1
:1052B000A40D9B0A042B59D007D8032B19D0012128
:1052C0000DA8FFF70FFF0123DAE0082B00D1BDE0A6
:1052D0003F2BF4D1601E0928F1D8FAF761FFAD0128
:1052E000C301D801F0FFF0FFF101F0FFE301F60187
:1052F0002802032C13D008D8012CE0D1A868FFF7AE
:10530000A4FFA54B1860596003E02D2C15D0632C29
:10531000D5D101210DA8FFF7E5FE067024E001209C
:105320009E499D4B4042186059601F2000219C4BB4
:105330001860596003F0E0FFEBE7AB6804215C788C
:105340001A7824020DA814439E78FFF7CBFE310093
:105350000500C21C200004F069F8431E98416C70DF
:105360004000240A2870AC700D988EE7601E082853
:10537000A5D8FAF701FF051852A4A4A4A4A46000BC
:1053800009210DA8FFF7AEFE0023092203708370E8
:10539000C3700F3B437114338371063B427002713B
:1053A000C3710372E0E741210DA8FFF79BFE0021C6
:1053B0000400017040220130FCF73CF88023E278C1
:1053C0005B421A43E2704022A17952420A43A27121
:1053D0000422E17AE07B1143E17228210143E17369
:1053E0000221207CA67E01432174E17D207F0A43B7
:1053F000E2753D225242104320770820617FE57E0E
:105400000843092149422A4331436077A176E27675
:105410000834E27F1343E377A6E709210DA8FFF7DD
:1054200061FE00210400017008220130FCF702F83F
:105430006023637198E707210DA8FFF753FE010071
:10544000002008700131FFF737FD8DE70A2C00D1ED
:10545000E4E028D8052C00D180E013D8022C5FD0DE
:10546000032C69D0012C00D029E7A868FFF7EDFED6
:105470004B4B1860596001210DA8FFF733FE002344
:10548000037071E7072C00D149E100D2A5E0082C98
:1054900000D1BDE0092C00D011E7AB68591C187889
:1054A00004F0D4FCE7E7122C70D010D8102C60D098
:1054B00068D80F2C00D002E702210DA8FFF712FEDA
:1054C00000230370040004F05DFD60704CE7182CAD
:1054D00068D015D8172C00D0F1E6A8680023010089
:1054E0000EAA103104F062FF11210DA8FFF7FAFD9A
:1054F00000231022037001300EA9FBF771FF33E780
:105500001C2C5AD04B2C00D0D9E603210DA8FFF754
:10551000E9FD0023811C03700130FFF701FD23E743
:1055200004210DA8FFF7DEFD00231B21037083700B
:1055300002334170C37017E709210DA8FFF7D2FDB0
:1055400000210400017008220130FBF773FF0C23D7
:1055500063703433A3703F3BE37005E7A968012013
:10556000FFF7C2FC040001210DA8FFF7BBFD04708A
:10557000FAE601210DA8FFF7B5FD040004F004FDD3
:105580002070F1E6A86804F015FDEBE7A86804F0C8
:1055900047FDE7E78002002000230020FF1F0000F6
:1055A0000823002009210DA8FFF79CFD00230821F6
:1055B00003700130FFF7B8FCD6E609210DA8FFF70C
:1055C00091FD0025411C040005700320FFF778FDC4
:1055D0002800611DFFF774FDC6E6A9684A780878BF
:1055E0001202024300200B790A900990089007905C
:1055F000069005908C7B04944C7B0394CC1D029404
:105600008C79019449790091010004F0CDFAA9E761
:10561000AB68591C187804F0C1FB2CE7AB6818780C
:1056200004F050FC012104000DA8FFF75BFD002CE5
:1056300000D172E60C2670E60D210DA8FFF752FD91
:1056400002210023012241700B2103708370C2707C
:10565000037143718271C171037243728372C372A9
:10566000037381E641210DA8FFF73CFD00210400F2
:10567000017040220130FBF7DDFE592362785B4266
:10568000134363700323A2781343A3706CE60921CC
:105690000DA8FFF727FD0021082201700130FBF75C
:1056A000C9FE61E627224E490EA8FBF799FE282184
:1056B0000DA8FFF717FD00232722037001301BE719
:1056C000A9680020FFF710FCD5E6464E3368013389
:1056D00005D1454B454A1B689BB293421FD0012719
:1056E000434B1B683B421AD018210DA8FFF7FAFC68
:1056F00000250400057047703068A61C3100FFF7D4
:10570000DFFC40222000384B52421B680830A37156
:105710009BB21B0A1343E37150322900BFE70221F9
:105720000DA8FFF7DFFC0023037043701CE6212166
:105730000DA8FFF7D7FC00232E4A03701168040060
:10574000431C013141D02C4F396801313DD02B4EE3
:105750003168013139D02A4D2968013135D01068BE
:105760001900FFF7ADFC3868611DFFF7A9FC2100A7
:1057700030680931FFF7A4FC210028680D31FFF7DC
:105780009FFC23001F4A1133D16F013123D01E4FDC
:10579000F96F01311FD01D4E316801311BD01C4DF6
:1057A0002968013117D0D06F1900FFF789FC21005B
:1057B000F86F1531FFF784FC210030681931FFF7CD
:1057C0007FFC210028681D3104E710220021180009
:1057D000FBF730FED5E71022002118005FE7C04636
:1057E00053CA0000A4000010A8000010FFFF000032
:1057F000A00000109000001094000010980000100D
:105800009C00001004000010080000108800001028
:105810008C000010F0B50700040000798DB00E0078
:105820000837012800D188E00238032800D9BEE0FB
:10583000FAF7ACFC024C4C5801220025042105ABC0
:105840005A7002329A70FC325A71DA70FD3A19714C
:105850009A711D70574B5B689B0035D5564B1B6882
:10586000134231D00F23227A1A40637A012A01D0E1
:105870009D1FEDB22A00E3189B7A0B325B425BB2AC
:10588000D2B2022130000193FFF74EFC0123210028
:105890000370237A05AA1B071B0FD35C0600437015
:1058A000237A0A315B06DB0F837006220330FBF795
:1058B00097FD390075720A3608312A003000FBF76F
:1058C0008FFD6B461B7973550DB0F0BD0F22237A07
:1058D0001340072BF8D1637A002BF5D03800FFF77F
:1058E0009BFCF1E72500334B0A355B689B0003D531
:1058F000314B1B685B030FD4237A03AE5B06DB0FCF
:10590000337002AB29000622581DFBF769FD05A97B
:105910003000FFF745FCD7E7082213213000FFF7DE
:1059200003FC00230370237A06225B06DB0F43701F
:1059300029000230FBF754FDC6E7E17AE588092922
:105940000BD00C2910D0072931D1237B0E2BBBD1D2
:1059500033002A0000211A2003E033002A00390016
:105960000020FFF7F5FBAFE7124B1B681B05ABD51B
:1059700008223000FFF7ACFB30000821083005F0AA
:1059800015FA00230370237B45702D0AC3708570C0
:10599000A37B627B1B02134303711B0A4371237CAD
:1059A000E27B1B02134383711B0AC3718CE762B64F
:1059B000042002DF00230020082300200379012BAC
:1059C00012D00A2B18D80122110099400B00B021E7
:1059D000C90002200B420ED13C2110000B420AD11B
:1059E0009B099843404206E00323007A184003389D
:1059F000431E9841023070470120F3E70120054B18
:105A000005494042186059601F200021034B18606F
:105A10005960704700230020FF1F0000082300206A
:105A200020BF40BF20BF704770B506000D0088B092
:105A300001AC1A2205492000FBF7D2FCA05D401BF7
:105A400043425841C0B208B070BDC046E3C3000035
:105A500008607047002804D180230A681B0613439E
:105A60000B607047002803D10B685B005B080B607C
:105A70007047F0B50200461D01270020B24200D158
:105A8000F0BD040015780834E4B2A04201D101321F
:105A9000F4E73D4203D00029F2D00139C9B2013008
:105AA000C0B26D08F1E700009B23362130B50D4AE6
:105AB0005B00FF31D35C545CA3420CD3545C1B1BD2
:105AC000DBB20024984204D8535CFC32526B9B003A
:105AD0009C58200030BD9A256D00555D545C5B19C3
