:10000000181A0020B52C0000E92C0000692B000014
:10001000692B0000692B0000692B0000692B000090
:10002000692B0000692B0000692B00007D2900006E
:10003000692B0000692B000021290000692B0000BA
:100040007D2C00002BAA00007D2C00007D2C0000E0
:100050007D2C00007D2C00007D2C00007D2C0000FC
:100060007D2C00007D2C00007D2C00007D2C0000EC
:100070007D2C00007D2C00007D2C00007D2C0000DC
:100080007D2C00007D2C00007D2C00007D2C0000CC
:100090007D2C00007D2C00007D2C00007D2C0000BC
:1000A0007D2C00007D2C0000000000009537000032
:1000B00000000000DD2A000000000000DD2A000032
:1000C000482500205B3E000000000000DD2A000003
:1000D00000000000DD2A00002425002099390000DE
:1000E00000000000DD2A000000000000DD2A000002
:1000F00000000000DD2A000000000000DD2A0000F2
:1001000000000000E9A900006C250020C5430000A4
:100110000000000023AA000000000000DD2A00000B
:1001200000000000DD2A000000000000DD2A0000C1
:10013000000000009545000000000000DD2A0000DE
:1001400000000000DD2A000000000000DD2A0000A1
:1001500000000000DD2A000000000000DD2A000091
:1001600000000000DD2A00000000000019AA0000C5
:1001700000000000DD2A000002B471464908490071
:10018000095649008E4402BC7047C04602B471460D
:1001900049084900095C49008E4402BC7047C046CA
:1001A00003B47146490840004900095E49008E4485
:1001B00003BC704703B47146490840004900095A1E
:1001C00049008E4403BC7047002934D0012300222B
:1001D00010B488422CD301242407A14204D28142C6
:1001E00002D209011B01F8E7E400A14204D28142D6
:1001F00002D249005B00F8E7884201D3401A1A4353
:100200004C08A04202D3001B5C0822438C08A04289
:1002100002D3001B9C082243CC08A04202D3001B3F
:10022000DC082243002803D01B0901D00909E3E7B9
:10023000101C10BC7047002801D00020C04307B438
:10024000024802A14018029003BDC046D900000038
:100250000029F0D003B5FFF7B9FF0EBC4243891A5D
:100260001847C046002941D010B4041C4C40A44695
:1002700001230022002900D54942002800D5404230
:1002800088422CD301242407A14204D2814202D205
:1002900009011B01F8E7E400A14204D2814202D225
:1002A00049005B00F8E7884201D3401A1A434C0822
:1002B000A04202D3001B5C0822438C08A04202D358
:1002C000001B9C082243CC08A04202D3001BDC0880
:1002D0002243002803D01B0901D00909E3E7101CC1
:1002E0006446002C00D5404210BC7047002806D060
:1002F00003DB0020C043400801E08020000607B473
:10030000024802A14018029003BDC0461900000037
:100310000029EBD003B5FFF7A7FF0EBC4243891AB3
:100320001847C0467047C046D0400B1CD1409C4681
:10033000203AD340184352426346934018437047D3
:100340009140031C90409C46203A934019435242EE
:100350006346D34019437047002B11D1002A0FD1B7
:10036000002900D1002802D00021C943081C07B48D
:10037000024802A14018029003BDC046A9FFFFFF3A
:1003800003B4684601B5029800F072F8019B9E46DE
:1003900002B00CBC7047C046F0B54F464646150447
:1003A0002D0CC0B42E000704140C3F0C9946030C0E
:1003B0007E435D43674363437F19340CE4199C46D5
:1003C000A54203D980235B029846C4444B4651435F
:1003D00043433604360C250C24046544A4195918EB
:1003E000491920000CBC90469946F0BD10B5002379
:1003F000002802D001F034FB431C180010BDC04699
:10040000094A43081340C01A0300084A80081040F4
:1004100013401B181809C018054B03401802C018D8
:100420000304C018000E7047555555553333333308
:100430000F0F0F0F70B500220C4B04000D0001F0E0
:10044000DBFA002804D12000290001F02BFA70BD4E
:10045000064B00222000290000F00EFF01F022FAD6
:1004600080231B069C466044F1E7C0460000E04143
:10047000F0B54D46564644465F46F0B4924683B0CA
:1004800004000D0099468B422FD82CD04946504687
:1004900001F0DAFA29000600200001F0D5FA331A3B
:1004A0009846203B9B4600D574E053465A469340FD
:1004B0001F005346424693401E00AF4229D826D023
:1004C0005B46A41BBD41002B00DA79E0002200232B
:1004D0000092019301235A4693400193012342461F
:1004E0009340009319E08242D0D900220023009269
:1004F00001930C9B002B01D01C605D60009801995A
:1005000003B03CBC90469946A246AB46F0BDA34220
:10051000D6D900220023009201934346002BE8D055
:10052000FB0772081A4346467B080EE0AB4201D136
:10053000A2420CD8A41A9D41012024196D4100212A
:10054000013E24184D41002E06D0AB42EED9013EAB
:1005500024196D41002EF8D15B46009801990019CD
:100560006941002B22DB2B005A46D3402A00444627
:10057000E2401C005B461500002B2CDB26009E4051
:10058000330026004746BE403200801A9941009051
:100590000191AEE7424620239B1A5246DA4041467B
:1005A00013004A468A4017001F4382E74246202331
:1005B0009B1A2A0046469A402300F3401343D5E78E
:1005C0004246202300219B1A002200910192012221
:1005D000DA40019282E74246202326009B1ADE4041
:1005E0002F00B446974066463B003343C9E7C046F8
:1005F000F8B55F46444656464D46F0B40C034E00EF
:10060000C90F88460D00610A440F0C43C700190347
:100610005800DB0F9B464B0A510F0B43760D400DE4
:100620001900D200D84500D1AEE0351A002D00DC0B
:10063000F6E000280FD1134300D1DBE06B1E002B46
:1006400000D037E1BA1A9742BF41641A7F42E41BD7
:100650000126170024E0C64B9E424DD080231B0488
:100660001943382D00DD07E11F2D00DD38E1202082
:10067000431B9A460B005046834099461300484658
:10068000EB401843030050468240501E8241E9402F
:100690001A43BA1A611A9742A441170064420C1B0C
:1006A000230262D56402650A002D00D1DFE0280034
:1006B00001F0ACF90300083B1F2B00DDD2E0202243
:1006C0003C00D21A9D40D4409F4025439E4200DD0D
:1006D000C4E09E1B731C1F2B00DDF1E020223800BC
:1006E0002900D21AD840914097402C000143781E2F
:1006F0008741DC4000260F437B0709D00F233B4096
:10070000042B05D03B1DBB42BF417F42E4191F00B3
:1007100023022CD5964B01369E4200D19AE04546E5
:10072000944BFF081C406007760564020743240BC6
:10073000760D00212403230B0C0D8F4A24051C4346
:100740001440330523435B00ED075B082B4338005F
:1007500019003CBC90469946A246AB46F8BD64469B
:10076000044300D111E2040067467B07C6D1454629
:100770006007FF080743E4087D4B9E4230D0240306
:100780007605240B760DD4E7331A9A46002B78DDD4
:10079000002831D076488642AED080200004014344
:1007A0005346382B00DCE9E00A43511E8A41002100
:1007B000D219BA42BF4109197C4217000C19230211
:1007C000D3D56B4B01369E4200D13AE10120694BF3
:1007D0001C407B0807401F43E007074364088BE782
:1007E00023003B4300D1CBE18022120314432403B6
:1007F000240B9EE72E007FE70800104300D1B4E0F1
:10080000581E002800D0DEE0BA18BA429B41641896
:100810005B42E418170001262302A6D50226D5E77D
:10082000002D6ED1701C4005400D012800DCF9E060
:10083000B81A844687428041E51A40422D1A2802A0
:1008400000D489E0D71BBA4292411C1B5242A51A20
:10085000D84629E74546002400276AE7454CF61AA2
:100860002C4049E73D002838854000272EE7380016
:1008700001F0CCF820301DE70A43511E8A410021C7
:1008800007E7002B00D0F3E0701C43055B0D012B44
:1008900000DCADE0364B984200D1D1E0BA18BA4244
:1008A000BF4164187F42E419E70752081743640800
:1008B000060021E72E48854200D193E01D00D0E6D6
:1008C00029001F3EF140202B00D18DE04022D31A99
:1008D0009D402F437D1EAF4100240F43002644E777
:1008E0002B000800203BD8400300202D00D17DE0E4
:1008F0004020451BA9400A43511E8A4100211A434A
:10090000C7E6002E50D01A4EB04257D080266B4218
:100910009946360434434B46382B00DDD6E01F2B76
:1009200000DD35E12026F51A2600AE40B2463E0035
:10093000DE40AC46350056462E436546AF407D1E30
:10094000AF41DC403743D71BBA4292410C1B5242A5
:10095000A41A0600D846A3E6644667462C4300D096
:10096000A2E600250026002706E71E00C4E6C046D2
:10097000FF070000FFFF7FFFFFFF0F801F2B63DCDF
:100980002020C31A080098409C4683465346100016
:10099000D84003005846184363469A40531E9A4174
:1009A00053460243D94003E726003E4306D0EB43BB
:1009B0009946002BC7D0944EB042ACD10C00170022
:1009C0000600D84698E6904B9A450BD08246E7E65B
:1009D000002800D09EE01800104300D1E9E01C0080
:1009E0001700D846884E87E6002572E7002182E787
:1009F00023003B43002E00D0ABE0002B00D1E7E00A
:100A00000B00134300D177E6BA18BA42BF4164180D
:100A10007F42E419230200D4F2E07C4B17001C4013
:100A2000060069E620003843002ED1D100285BD1B2
:100A30001C00144300D1A8E01C001700D8465BE658
:100A400006000024002797E650460B002038C340DC
:100A500099465346202B00D195E0402350461B1A5F
:100A600099400A43511E8A414B4600211A439FE692
:100A7000002E30D126003E4367D0DB439A46002B40
:100A80001CD0614EB04260D05346382B00DD96E05A
:100A90001F2B00DD9FE02026F31A26009E409C4677
:100AA000B34653463E00DE4033005E461E43634677
:100AB0009F407B1E9F415346DC403743BF189742FF
:100AC000924164185242A418060078E627437C1E1F
:100AD000A741002437E74C4EB04236D080265B4217
:100AE00036049A463443CFE71800104300D103E69A
:100AF000B81A84466745AD41E01A6D42401B0502B5
:100B000000D42CE6D71BBA4292411C1B5242A41AB5
:100B1000D846F1E51800104300D163E7F8086707ED
:100B200007438020E4080003044208D0DD080542A2
:100B300005D1D208590711430F002C00D8467B0F6E
:100B4000E4001C43FF00304ED6E50C001700060001
:100B5000D2E5002B38D00B00134300D142E7F80850
:100B6000670707438020E40800030442E7D0CB086E
:100B70000342E4D1D208490711430F001C00DEE70D
:100B800000270024D5E500216BE700250027F3E5C9
:100B90004E462500203EF5404B462E00202B2DD002
:100BA0004025ED1AAC4027437C1EA7410024374363
:100BB000C9E6802400252403134E0027DCE52743E3
:100BC0007C1EA741002479E70C0017000E4E93E528
:100BD0000C00170090E556462300203EF34099464E
:100BE0005346202B0ED0402356469B1B9C40274348
:100BF0007C1EA7414B4600241F435FE70024D2E739
:100C00001700B2E50024F2E7FF070000FFFF7FFFB7
:100C1000F0B55F46564644464D46F0B40E034C00D0
:100C200087B0834692461D008046360B640DCF0F79
:100C3000002C4FD06F4B9C4235D08023420F1B04B9
:100C4000F600134333439946C30098466A4B002687
:100C50009C460023644403932B031B0B9B466B00B1
:100C6000ED0F50465B0D01955ED0624A934253D022
:100C70005A46D1008022400F120402430A43934691
:100C80005246D1005C4A94460022634438006840D2
:100C900084460290E41A16430F2E00D9B4E0574B55
:100CA000B6009B599F460300334399466CD10023FD
:100CB0009846023308260393CEE7CB464146039A73
:100CC0000197022A65D1019B4A4C9C4600230022D1
:100CD00098466BE00300334399464ED0002E00D176
:100CE000BCE1300000F092FE03000B3B1C2B00DD4A
:100CF000ACE11D22D31A5A460100DA4008398E4071
:100D00001300334399465B468B40984600233C4C86
:100D10000026241A03939FE751465A46114329D1CE
:100D2000002293460232B1E7594601431ED05B468A
:100D3000002B00D19EE1584600F068FE03000B3BFB
:100D40001C2B00DD8FE102005946083A91408B468A
:100D50001D21CB1A5146D9400B0059460B43514631
:100D60009B469140264B00221B1A8FE7002301224D
:100D70009B468BE75146032288E7002398460133C0
:100D800004260024039367E70323B14603930C264C
:100D900062E7032A00D15CE2019B012A00D0E4E172
:100DA00013409C4600230024002298460021120391
:100DB000130B0A0D12051A432305124C404622401C
:100DC000134362465B00D2075B081343190007B068
:100DD0003CBC90469946A246AB46F0BD002380221B
:100DE0009C4612039846034CE0E70023014C002286
:100DF0009846DBE7FF07000001FCFFFFE0D300009F
:100E00000DFCFFFFFFFF0F80D94500D939E100D16C
:100E100034E1002346464D469A46013C5B460A0EA5
:100E20001B021A430B02170C039313041B0C39000B
:100E3000280090460193FFF7C7F90200019B834603
:100E40005A43280039009146FFF702FA350C09048D
:100E50000D43A9450DD95B464544013BA84500D942
:100E60003AE1A94500D837E102235B429C4645445C
:100E7000E3444B46EB1A390018000493FFF7A4F93A
:100E8000019B05004343390004989946FFF7E0F9B8
:100E9000330409041B0C0B43994509D943446A1ECA
:100EA000984500D91AE1994500D817E1023D43441D
:100EB0004A469B1A5A4612042A4303999346100C39
:100EC0000A0C914609045A46090C4E460D001204BC
:100ED000120C4543059151437243704352190E0C55
:100EE000B218954203D980256D02AC466044150CBA
:100EF00009041204090C28185218834200D2CEE0CB
:100F000000D1C8E01D1A53469E1AB2459241524282
:100F1000AB1A9A46984500D117E139001800FFF73F
:100F200053F9019B05004343390050460493FFF7F2
:100F30008FF904980B04310C1943884209D94144B4
:100F40006B1E884500D907E1884200D804E1023DC4
:100F50004144049BCB1A180039000493FFF734F97D
:100F6000019B82464343390004980193FFF770F9CF
:100F700001980B043104090C194388420DD95346DA
:100F80004144013B884500D9E8E0884200D8E5E0CB
:100F900002235B429C464144E244019B2D04CE1A4D
:100FA00051462943059D4F462A000B04080C1B0C93
:100FB0005A4345437B4378435B19170CFB189D420A
:100FC00003D980256D02AC4660441D0C12041B043D
:100FD000120C28189B18864200D293E000D18EE0B4
:100FE00001231943A04BE318002B00DC99E04A07CA
:100FF00000D09EE05A46D20106D55A469B4B1A4075
:1010000080239346DB00E318994A934268DD01236D
:10101000029A984C1A400023944698460022C5E64E
:1010200080224B46120313420AD05B46134206D17C
:101030001A431203120BAC4688468E4CB6E64B465A
:101040001A431203120BBC468A4CAFE603005A4601
:10105000283B9A4000239146984657E6584600F0B0
:10106000D5FC203040E603005246283B9A40002140
:10107000934677E600F0CAFC20305FE6884500D250
:10108000C7E64B46DE075D0843465B081E43434602
:10109000DB079A46C2E60025924500D333E7039E5C
:1010A0005946B446E244B245AD416D424544EB1861
:1010B0000139984507D2984200D97FE000D1BCE0C1
:1010C0001D1A8B461FE79845FAD1039D5545F2D965
:1010D00043468B461D1A16E79B46CAE61500E7E60F
:1010E0005A46C90852070A435B0590465C0D5A46AA
:1010F0000123029952021940120B8C4656E6002B2E
:1011000000D16FE746444A1EB04529D911008642F6
:1011100000D065E7039A934200D061E762E70121BE
:1011200049420120C21A382A21DD029B03409C4615
:1011300038E60F220A40042A00D15BE70A00111D9D
:10114000914292415242934454E7474BE318002B9B
:10115000E5DD01225242F2E71D00FAE69A461CE75D
:10116000B04239D86ED011003AE702933AE71F2A0D
:101170003CDC20239B1A0C005846994098404B1E9B
:1011800099415B46D440D340204308431A004307AB
:1011900009D00F230340042B05D00100081D88420D
:1011A0009B415B42D21813023AD50123029A0124D3
:1011B0001A400023944698460022F7E5022149424E
:1011C0008C46039DE344AC46E244AA45AD416D42E2
:1011D0004544ED182D1A96E68A1E03994D008D425E
:1011E000894149424144761803958FE71F204042C8
:1011F000C31A5846D8400300202A28D040205D4614
:10120000821A954029434A1E91411943072300221F
:101210000B4009D00F2300220B400800042BBDD146
:10122000010053075202120BC908194301238846D3
:101230000299002419408C46B8E55245BED88B4629
:10124000002560E6039D9D42C6D3110062E700259C
:10125000D8E780225B4612031A43019B1203120B4C
:101260009C468846034CA1E5FF030000FFFFFFFEFC
:10127000FE070000FF070000F0B5574645464E4602
:101280000C03E0B44E00CD0F610A440F0C43C100C3
:101290005800400D84468A460F001903500F490A32
:1012A0000143C648760DA846DB0FD200844500D125
:1012B000D8E001204340AB4200D1A6E06046351A99
:1012C000002D00DC05E1002810D10B00134300D1F4
:1012D000D7E06B1E002B00D04BE153469F1ABA4556
:1012E0008041641A4042241A01261EE0B34B9E42FC
:1012F00048D080231B041943382D00DD19E11F2D30
:1013000000DD4CE120230F005B1B10009A409F4042
:10131000E840531E9A41E940074317435346DF1BF9
:10132000611ABA45A44164420C1B230200D4C5E0F3
:101330006402650A002D00D1F6E0280000F066FB8B
:101340000300083B1F2B00DDE9E020223C00D21AFD
:101350009D40D4409F4025439E4200DDDBE09E1B24
:10136000731C1F2B00DD0AE120223800D21A29004D
:1013700097402C009140D8407A1E9741DC400026CF
:1013800001430F437B0709D00F233B40042B05D0BB
:101390003B1DBB42BF417F42E4191F00230225D5FC
:1013A000864B01369E4200D1AFE0854B01251C40A3
:1013B00043466207FF08640276051743240B760D47
:1013C0001D4000212403230B0C0D7E4A24051C43E1
:1013D0001440330523435B00ED075B082B433800C3
:1013E00019001CBC90469946A246F0BD0125434613
:1013F0006207FF081743E4081D40704B9E4236D039
:1014000024037605240B760DDBE76346F31A002BE5
:1014100000DC94E06046002835D068488642B1D0B0
:1014200080273F043943382B00DCFDE00A431700D6
:1014300000217A1E9741574457458041091944427B
:101440000C1923023AD55D4B01369E4200D14BE187
:1014500001225B4B1C407B0817401F43E2071743E8
:1014600064088FE70800104300D024E721E7230039
:101470003B4300D1B9E18022120314432403240B1F
:101480009FE72E007EE70800104300D1CAE0581EF7
:101490008446002800D0E7E0524452458041641859
:1014A0004042241817000126230207D50226CFE761
:1014B00064462C4300D1B3E12C0067467B0700D083
:1014C00062E76307FF081F4301254346E4081D4008
:1014D00093E7002D78D1751C6D056D0D012D00DC95
:1014E000F2E05046801A8245BF41651A7F42ED1BEB
:1014F0008446280200D48CE05046171ABA42924122
:101500000C1B5542651B984614E7012543460024F1
:101510001D40002755E72A4CF61A2C4032E73D00C3
:1015200028388540002717E7380000F06FFA203090
:1015300006E70A43170000217A1E9741EEE6002BCA
:1015400000D0E5E0731C9C465B055B0D012B00DCC5
:101550009FE01A4B9C4500D1C5E052445245804162
:10156000641840422418E707520817436408664687
:1015700008E71248854200D185E01D00BCE629003D
:101580001F3EF140202B00D17FE04022D31A9D4026
:101590002F437D1EAF4100240F4300268EE72B0012
:1015A0000F00203BDF40202D71D040235D1BA94060
:1015B0000A43511E8A4100211743AFE6FF0700008E
:1015C000FFFF7FFFFFFF0F80002E3ED0B34EB445DC
:1015D00045D0802636046D423443382D00DDA8E026
:1015E0001F2D00DD1FE1202627005046761BB74047
:1015F000E84007435046B040461EB041EC403843F7
:10160000171ABA4292410C1B5242A41A66469846D7
:101610008BE6644667462C4300D08BE60025002607
:101620000027EAE61E00ADE61F2B60DC2027F81A33
:101630000F00844687401000D84007436046824030
:10164000501E8241D9401743F5E626005046064316
:1016500005D0ED43002DD3D0904EB445BDD10C0044
:101660001700664698468DE68C4883420BD0634649
:10167000D9E6002D00D096E00800104300D1E2E04A
:101680000C0017009846854E7CE6002580E7002177
:101690008EE7230050460343002E00D0A8E0002B25
:1016A00000D1DEE00B00134300D16BE652445245FB
:1016B00080416418404224181700230200D4FDE63C
:1016C000774B66461C405DE6250050460543002EDC
:1016D000CFD1002D4FD10C00144300D1A0E00C005D
:1016E000170098464EE666460024002785E61F0050
:1016F0000800203FF8400700202B00D18EE040205A
:10170000C31A99400A43511E8A410021174392E6A9
:10171000002E14D126005046064362D0DB43002B36
:101720005CD187189742924164185242A4186646C9
:1017300087E650462043441EA041002460E7574EF0
:10174000B4454ED0802636045B423443382B00DD4E
:101750007FE01F2B00DD8BE0202627005046F61A85
:10176000B740D84007435046B040461EB0410743FB
:10177000DC40BF18D6E70D00154300D102E6504605
:10178000801A8245BF41651A7F42ED1B84462802BC
:1017900000D48DE65046171ABA4292410C1B5242B1
:1017A000A41A9846EEE50D00154300D16BE75046AC
:1017B0006707C00807438020E4080003044207D0FD
:1017C000CD08054204D12C009846D70849070F439D
:1017D0007B0FE4001C43FF00304ED3E52F4EB44591
:1017E000B4D10C0017006646CCE500270024E8E5DC
:1017F000002B39D00B00134300D144E7C008670722
:1018000007438020E40800030442E1D0CB080342F0
:10181000DED1D70849070F431C00D9E7002171E743
:1018200000250027E9E52E002700203EF740202D67
:101830002FD04026751BAC4050462043441EA0418B
:1018400000243843DCE6802400252403134E0027BF
:10185000D3E5504620430700781E87410024BF1877
:1018600060E70C0017008DE50C0017000B4E89E5B2
:101870001E002700203EF740202B0CD04026F31AF4
:101880009C4050462043441EA04107430024BF18FB
:1018900048E70024D0E70024F3E7C046FF07000034
:1018A000FFFF7FFF30B5134D0A034B00120B5B0D9A
:1018B000C90F0024AB4210DD0F4CA3420FDC802483
:1018C0000E4D64032243ED1A1F2D0BDD0C48C31A85
:1018D000DA405442002900D11400200030BD094BE9
:1018E000CC18FAE7084CE840A44663449A40024307
:1018F000EFE7C046FE0300001D04000033040000B3
:1019000013040000FFFFFF7FEDFBFFFF70B5002811
:1019100030D0C317C4185C40C50F200000F076F823
:10192000174B184A1B1AD21A1F2A18DD164AD21A48
:101930009440002224035B05240B5B0D0021100062
:1019400024030A0D240B12052243104C1B052240D0
:1019500013435B00ED075B082B43190070BD2100AA
:1019600091400A000B21081AC4405B052403240B94
:101970005B0DE3E70025002300240022DEE7C046DC
:101980001E0400003304000013040000FFFF0F805A
:101990008446101C62468C46191C634600E0C04613
:1019A0001FB500F01BF9002801D40021C8421FBD5B
:1019B00010B500F075F84042013010BD10B500F0D0
:1019C0000DF9002801DB002010BD012010BDC0462C
:1019D00010B500F003F9002801DD002010BD012042
:1019E00010BDC04610B500F095F8002801DC0020BD
:1019F00010BD012010BDC04610B500F08BF80028C6
:101A000001DA002010BD012010BDC0461C210123B9
:101A10001B04984201D3000C10391B0A984201D3D1
:101A2000000A08391B09984201D30009043902A2AF
:101A3000105C40187047C046040302020101010116
:101A4000000000000000000010B5002903D1FFF7DE
:101A5000DDFF203002E0081CFFF7D8FF10BDC046B4
:101A6000414208401C2101231B04984201D3000C71
:101A700010391B0A984201D3000A08391B09984201
:101A800001D30009043902A2105C401A7047C04615
:101A90001B1C1D1D1E1E1E1E1F1F1F1F1F1F1F1F65
:101AA000F0B557464E4645465C00E0B41F03DB0FD9
:101AB0009A46174B0E034D0084468046360B6D0D3B
:101AC000C90F91463F0B640D01209D4208D09C42F6
:101AD00001D0A5420BD01CBC90469946A246F0BD51
:101AE00063463343F7D1AC42F5D13A43F3D10120F9
:101AF000BE42F0D1C845EED1514507D0002DEAD104
:101B000063461E433000461EB041E4E70020E2E792
:101B1000FF070000F0B55F46444656464D46F0B418
:101B20001F033D0B2C4F0E034C00AB465D0084465B
:101B3000360B640DC90F90466D0DDB0FBC422AD0E9
:101B4000254FBD422DD0002C0FD1304307008146D8
:101B500078427841C0B2002D17D15F463A4314D184
:101B60004B460020002B0AD006E0002D02D158463B
:101B7000024301D0994218D04842012108433CBC9D
:101B800090469946A246AB46F0BD0028F2D001200F
:101B9000013B1843F3E737000743D1D0022040420E
:101BA000EDE75F461743CED0F8E7AC42E4DC03DA5A
:101BB000481E01210843E2E75E45DDD806D000203B
:101BC0005E45DCD20123481E1843D8E7C445D3D86C
:101BD0000020C445F6D3D2E7FF070000F0B55F460A
:101BE0004D4644465646F0B41F035C00DB0F994651
:101BF0002A4B0E034D00C90F8446360B6D0D8B46E4
:101C000090463F0B640D9D4220D0244B9C4222D035
:101C1000002D12D1304343424341DBB2002C1FD090
:101C2000002B0CD04B460120013B034318003CBC69
:101C300090469946A246AB46F0BD002C16D0CB4547
:101C400017D05B46594201230B43EFE731000223D3
:101C50000143EBD1D9E7390002231143E6D1D7E79D
:101C60003A43DDD100230028E0D0EAE73A43E6D149
:101C7000E7E7A542E5DC05DBBE42E2D807D000235A
:101C8000BE42D3D25946012301390B43CEE7C445A6
:101C9000D7D80023C445F5D3C8E7C046FF070000E6
:101CA00003000A781A70002A00D17047013301310D
:101CB000F7E7C9B20378994205D0002B04D14B4213
:101CC00059414942084070470130F3E703780A78E8
:101CD000934202D1002B02D11A00981A70470130AA
:101CE0000131F3E7002310B59A4205D0013A002AEA
:101CF00004D1037808781B1A180010BD04780B78FB
:101D00009C42F6D101300131F0E710B5431A9342FD
:101D100006D300239A4208D0CC5CC4540133F9E7BF
:101D2000013A8B5C8354002AFAD110BD030030B510
:101D300003254B402B4219D003000024A2421BD1A3
:101D400030BD002AFCD00C78013A1C7001310133FF
:101D50001C002C40F5D1151B032D09D803241500B8
:101D6000A543032449195B192240E6E70300EFE786
:101D70000D591D510434EEE70D5D1D550134DDE7AD
:101D800070B505000326CBB22C00354211D1C9B283
:101D90000E0231430E0431431600032E0FD80321E7
:101DA00015008D436119032422408A18914209D1FC
:101DB00070BD002AFCD02B70013A0135E4E702C562
:101DC000043EEAE70B700131F0E7F7B504000D00BF
:101DD00006000092019328000099FEF739FA2800C6
:101DE0000F000099FEF7F0F9FAB205002723701CE6
:101DF000092F00DC002330329B1833700600002DC1
:101E0000E9D13022001B01992318814205DC002210
:101E1000013B5A70A34203D8FEBD22540130F2E7C1
:101E20001A782178013B597022700134F2E7F0B53D
:101E30000124066800233440220041687408CF075B
:101E40003C434D0812196B4102604360F0BD000035
:101E500000230222F0B500240500416800688018C4
:101E60005941002385B0029303940024009001910E
:101E700000980199134BE65C01343200FEF754FAE6
:101E80000521FEF7A1F932000021FEF759FA0522DB
:101E9000002306000F00FEF77FFA009A019B121A3A
:101EA0008B4100920193029A039B92197B4102920B
:101EB0000393032CDCD11C0013002B606C6005B075
:101EC000F0BDC0462BD400000A6810B530230400D2
:101ED000002A0DDD013A0A600023416800680A22E9
:101EE000FEF75AFA0B0F09010909303320606160CF
:101EF000D8B210BDF0B51D000023C9B00C900D91F3
:101F000006931078531C0393002831D0252827D13D
:101F10002023079300231F00099308930A93039E2D
:101F2000039B347801332100B4480393FFF7C1FECB
:101F3000002827D12A2C40D12A682B1D0492002A80
:101F400003DA5242049201220A92039A1D00147885
:101F5000B31C0393049BC82B35D9C823049332E0E8
:101F60000C9B0D999847431C05D101235B420693B6
:101F7000069849B0F0BD069C05950134059D039A6D
:101F80000694BEE7232C13D006D8002CF0D0202CCA
:101F9000C5D101230993C2E72D2C06D0302C09D0DE
:101FA0002B2CBCD101230893B9E701230A93B6E790
:101FB0000127B4E730230793B1E72300303B0490B7
:101FC0000A22092B1AD92E2C4ED1039B1B782A2BBF
:101FD0001CD000230A200193039B19780A00303A91
:101FE000092A18D8019A013342435218303A019213
:101FF000F3E7049850430419303C049434780136D4
:102000002300303B092BF4D90396A3E72A68039BEE
:10201000019201330435019AC82A02DD012252429D
:1020200001925A1C1C78039221007548FFF741FE6B
:10203000002803D0039B1C7801330393672C3DDCFD
:10204000652C00DBA2E0472C00D19FE010DC252CA2
:1020500000D194E2452C00D198E0002C00D187E714
:10206000C82C00DC95E280E701235B420193DBE7AB
:10207000632C5CD02DDC582CF2D12B1D29680593E4
:1020800015AD002F06D030232B7048336B701E2502
:102090000EABED18019B10222800FFF796FE582C7E
:1020A00005D1002115AA8B5C002B00D05FE27A1EBF
:1020B000974115ABED1A28187C005BE0702C00D11D
:1020C00027E219DC6E2C00D1EAE100DDEFE1692C9A
:1020D000C6D12E682B1D059315AD002E31DA2D23A8
:1020E0002B70802371421B069E4200D131001D23BC
:1020F0000EAA9B181D002DE0752C00D12EE2782C25
:10210000BBD0732CACD100272B1D29680593CB5D68
:10211000002B00D014E2019B002B00DB18E2002F03
:1021200000D1C2E13A0015A8FFF700FE07E02B1D21
:102130002A68059315AB1A70002201275A700024F3
:10214000C7E1089B002B1BD02B232B701D253100D2
:102150000EABED18019B28000A22FFF736FE089C03
:10216000099B2D1815A8281A1C430121002C00D109
:10217000F10F0C00019B01333AD02023079337E085
:10218000099B3100002BE5D02023DEE7072307352C
:102190009D432B0069682A680833550D0593CB02CF
:1021A0002B435B00174D4800D2025B08400D109294
:1021B0001193A84231D1134315AA002B24D12D33FA
:1021C000002900DB023B13704923537005339370E1
:1021D000083BD37016AD00232B70089C099B15A8F3
:1021E000281A1C4304D115AB1C782D3C67427C4156
:1021F000C82800DDB9E607006BE1C04620D4000026
:1022000026D40000FF0700004E2361211F25137014
:1022100093700EAB5170ED18DDE7050015431D43BB
:1022200039D010928022C34D1206134345191193E1
:10223000002930DA2D2215AB1D261A700EABF618C8
:1022400000230293AB1C36DB002D51DC10A80135B6
:10225000FFF7EDFD042DF9D1019B002B01DA0623D8
:102260000193230020229343472B58D100239F4200
:1022700003D1019B5A1E9341DBB20B93029B0333A4
:1022800004DB019B029A01339A424CDD672C00D09B
:1022900092E0652491E0089A15AB002A01D02B2228
:1022A000CAE7099A1E00002ACAD02022C4E710A853
:1022B000FFF7BDFD013511999F4B10989942F6D853
:1022C00005220023FEF768F8029B10901191013B54
:1022D00002930023994A01358A4204D2002BB1D0DF
:1022E00010901191AEE700184941013D0123F3E739
:1022F00010A8FFF7ADFD0021029B90480133013D7E
:102300000293109A119B984204D200299CD01092FB
:10231000119399E792185B41013D0121F3E70023F6
:102320000B93662C49D1029B019A66249D18EB43BE
:10233000DB171D408023102100221B050F911292F4
:1023400013938D4200DD0D00002D39D1109A119BA1
:102350001298139912184B41109211931B0F08D029
:1023600010A8FFF775FD10A8FFF761FD029B013370
:102370000293662C40D1029B002B29DDF5180FA992
:1023800010A8FFF7A1FD30700136B542F7D1002348
:102390000293002F02D1019B002B09D02E232E0087
:1023A0002B70019BEF18BE4216D1019B0133ED1833
:1023B0000B9B002B3BD10EE74524019B5D1CB9E72D
:1023C00012A8FFF745FD12A8FFF731FD013DBBE75D
:1023D0003023751C3370DCE7029B002B06D03023C2
:1023E0007370029B013302930136DCE70FA910A83A
:1023F000FFF76AFD7070F7E70FA910A8FFF764FDFB
:1024000030703038431E9841029B1B1A0293002FF4
:1024100003D1019B751C002B06D02E237370019BEA
:102420000236F518B54232D10B9B002B07D02B009A
:10243000013D2A78302AFAD02E2A00D01D00230030
:1024400020229343452B00D0C5E6029B2C70AC1C88
:10245000002B23DA5B4202932D236B7064210298D8
:10246000FDF700FF3030207064210298FDF750FF27
:102470000E000A213000FDF7F5FE303060700A21B1
:102480003000FDF745FF3031E51CA170A3E60FA930
:1024900010A8FFF719FD30700136C3E72B23DCE7E6
:1024A0002B1D0593069A2B681A60069C66E52B1D6A
:1024B0000593296815AB002F21D030221D201A70FA
:1024C0000EAA801800291BD15970019B0C00013302
:1024D00061D1049BBB4261DC069C069BFB181B1B65
:1024E000002B00DC4AE5069A15AB9B1A185D0D9986
:1024F0000C9B9847431C00D137E50134EDE71800E9
:1025000015AD019B0822451BFFF75FFC281800242E
:1025100030E630221E202B1D059315AB1A700EAC31
:1025200048325A7029680823683A0019FFF74DFCB1
:102530000230ECE702FCFFFF32333333FFFFFF7F53
:102540000137C82F00D0E2E5019B002B00DAE9E556
:10255000019B9F4200DCE2E51F00E0E52B1D059397
:102560000A22019B296815A8FFF72FFCCFE71C0062
:10257000613C192C01D8203B8B54013193E50C9B15
:102580000D9920009847431C00D1EEE4069B0133CF
:102590000693059589E7202307939AE70A9B002B6A
:1025A00007D015AB2022FA54049A0137BA42F9D168
:1025B00092E7049B7A1CDD1B15AB58191900FFF735
:1025C000A4FB079B202B00D10A9C651915ABAC42DC
:1025D00001DB049F80E76A46127FE2540134F6E78C
:1025E0000120404270470000014B18607047C04610
:1025F0009821002010B5022903D1034B1B6898478E
:1026000010BD01204042FBE7982100200FB407B520
:1026100004AB04CB022104480193FFF76BFC03B029
:1026200008BC04B01847C046F525000010B500F0FE
:10263000A5FFFA228021034B5200490200F04EFF11
:1026400010BDC046F8D4000010B500F097FFFA2284
:10265000024B9200012100F041FF10BD05D50000A2
:1026600010B500F08BFFFA22024B9200012100F01E
:1026700035FF10BD07D5000010B500F07FFFFA222E
:10268000024B9200012100F029FF10BD26D5000069
:1026900010B50D4C930311D50C4800F0E5FC022356
:1026A0000B4923700B780B4A2078DB00D3181B5C96
:1026B0000B70DB00D2185368984710BD064800F035
:1026C000D3FC0123ECE7C0460C0000202ED4000010
:1026D0000D0000209C21002039D4000010B50448D2
:1026E00000F0C2FC034B04481978FFF78FFF10BDC0
:1026F00009D500000E00002012D50000F8B53748BB
:1027000009F070FB4368364C1D681122222300211A
:102710002060A84720681A22436800211D682223F0
:10272000A8473049304B20684B60304B01228B600A
:102730004368DB6898472E4809F054FB2068112253
:10274000436800211B69984720681A2243680021CA
:102750001B69984727492848FFF758FF274809F081
:1027600041FB274C2060002802D1264800F07CFC69
:10277000216825480B681A68FFF748FF20681E216A
:1027800043689B689847011E03D02048FFF73EFF2F
:10279000F8BD20681E4D43680C21DB682A0098476D
:1027A000011E01D01B48F1E76868FFF7AFF800226F
:1027B000194BFEF72DFA060028680F00FFF7A6F860
:1027C00002000B0030003900FDF712FFFDF732FE6A
:1027D000124B1870124809F083FFCFE744D4000071
:1027E00010000020000000209126000000000204DC
:1027F0004BD4000051D4000055D400006ED400002A
:102800001400002075D400008CD40000ABD400006C
:1028100018000020D2D4000080842E410E00002039
:10282000C409000030B5EFF3108072B61D490B7873
:10283000012B0FD11C4B1B681B070BD11B4BE02539
:102840001A68F02314001C402A421AD1184A126850
:102850001A4219D00B68DBB2012B0DD1124A126853
:10286000120709D1F021114A12680A40402A03D107
:102870000F4A12680A420FD0002800D162B6002029
:1028800030BD302CE2D0E5E70A4A0B4B1A608022BB
:102890000A4B12021A60DDE7C1228021D200C9056D
:1028A0008B50E9E7E00F00F0E40F00F0E80F00F0D4
:1028B000EC0F00F0DFFF07C004050040186C00407B
:1028C000084881684A897F2A0AD8C069884207D0A7
:1028D00000B509F057FF01BC86460349034A0A6068
:1028E00070470000E80B002004ED00E0000000103D
:1028F000F0B5C02400220326FF25A40010002F00FD
:102900003040C0008740930804499B005B18195968
:102910000132B94319511A2AF0D1F0BD00E100E0AB
:1029200013498A6828201044EFF3098CF0C043460D
:102930004C4655465E466746F8C00E4F0E4E72B680
:10294000CA698A603E60906D00239365002800D1BB
:1029500062B6282410191030F8C89846A146AA4635
:10296000B346BC462438F0C88CF309887047000091
:10297000E80B002004ED00E0000000080420714690
:10298000014202D0EFF3098001D1EFF308808169A1
:1029900002390978022900D092E700B500F01CF94D
:1029A00000BDC04605498A68906505490968D1653A
:1029B0000449054B0B6062B6D06D7047E80B0020F0
:1029C000E4DA000004ED00E0000000100E4B10B54A
:1029D0005A680400D205D20D032A0ED10B4800F02C
:1029E00043FB09F0A1FEA2690100094800F03CFB8D
:1029F0002100002000F0F6F810BD06490F2A00DD86
:102A00000549103A0548F1E700ED00E056D5000011
:102A10006ED5000028D500003DD50000B8D50000D7
:102A200070470000030605D41F2318401E3B834057
:102A3000014A13607047C04600E100E0030609D474
:102A40001F2318401E3B8340034AD367BFF34F8FB9
:102A5000BFF36F8F7047C04604E100E04309054AA9
:102A60009B009B581F2210401E3A824010001840C5
:102A70007047C04600E100E043B270B58901002B09
:102A800012DB144A9B0803259B009B18FF22284059
:102A9000A8401500C024854011408140A4001E5963
:102AA000AE433143195170BD03240F23C0B203401C
:102AB0002040A040FC342500214085408140083B57
:102AC000054A9B089B009B18DA69AA431143D96108
:102AD000E9E7C04600E100E000ED00E010B500F0DD
:102AE00043F810BD10B5EFF3108472B6054B98692A
:102AF000002803D000229A6109F09CF9002C00D133
:102B000062B610BDE80B0020F8B517001E000C00DF
:102B10000A9B0999042205000AF01CF939000722D2
:102B200001200023203961189143094AEB64824354
:102B30002B658A61069A0E604A60079A8A60089A35
:102B4000CA6080225204CA61A964AB65F8BDC04660
:102B5000C1CB0000014910220A60704710ED00E06F
:102B600062B630BF7047C04662B60420714601426B
:102B700002D0EFF3098001D1EFF3088000B5FFF731
:102B800025FF00BD70B504000D00042809D00528FC
:102B900016D00C48032C05D021000B4800F064FA35
:102BA00002E00A4800F060FA09F0BEFDAA690100DF
:102BB000074800F059FA2900200000F013F870BD12
:102BC0000448EFE7CCD5000027D60000F2D500007E
:102BD0004AD600000CD6000010B501000068FFF7CF
:102BE000D1FF10BD10B505280CD009F0D7FF002883
:102BF0000BD009F0D3FF0B49002800D10A490B483C
:102C000000F032FAFFF7ACFFFCE709F0D1FF002833
:102C1000EFD1074C0748A16800F026FAA06800F041
:102C20000BF810BD86D600008AD600009BD60000A7
:102C3000E80B0020BBD6000070B50500EFF3108450
:102C400072B60AF01FF80B4B9B689D420DD10A4BE0
:102C50005A68D20504D109F095FD2000FFF7A2FEC5
:102C60008022596852050A435A60200009F0CEFCC0
:102C700070BDC046E80B002000ED00E000B572B664
:102C80000A4A9069002803D00021916109F0D2F826
:102C900062B6EFF305801021401AC00004490144D8
:102CA00009C9984708BC9E460AE60000E80B0020C8
:102CB000A800000072B604480449401880F309884F
:102CC000022080F3148806E0181B00208002000018
:102CD00030BFFDE7704710B5FFF7FCFF09F0DAF8E9
:102CE00009F0E4F809F00CF910B5FFF7F1FFFFF770
:102CF000E7FD10BD002070470B6810B501330B6075
:102D0000014B1B68984710BDC4210020F0B587B067
:102D100003930C9B070002910093002B01DC01231D
:102D2000009320230593039B012B01D12F3305939F
:102D30000A2301930023140001261F4D0493049BD2
:102D4000002B01D1A54226D2691C2000FDF73CFAD8
:102D500002993030B847012301360493019B691C66
:102D6000013B20000193FDF773FA28000C000A21B3
:102D7000FDF72AFA019B0500012BE0D12000029902
:102D80003030B847039B032B03D1009B9C1B002CC6
:102D90000DDC07B0F0BD009B019A9342DEDB039B84
:102DA000022BDBD802990598B8470136D6E702997D
:102DB0002020B847013CEAE7FFC99A3B0A6830B5D2
:102DC0008B68002A02D04C68A34202DB01338B607F
:102DD00030BD651EAB4203D18C600021D154F7E7B2
:102DE0005C1C8C60D054F3E7014B18607047C04600
:102DF000C4210020F0B51C0000238DB00593013BD9
:102E00000393002307001E00029107920493079B7F
:102E10001878002801D10DB0F0BD002E08D125286A
:102E200000D107E10299B847079B01330793EEE70A
:102E300064285DD018D839280AD831284CD22D28DA
:102E400039D030283AD0252808D10299B84765E012
:102E5000582800D187E0632800D1E6E002992520B8
:102E6000B847079B1878F0E7702872D006D8692811
:102E70003ED06C2838D06828F0D1D5E7752857D0D7
:102E800014D87328EAD12668251D3400207800283C
:102E900000D0C1E0049B032B00D0D4E0039BA41B13
:102EA0001C1B002C00DDBBE02C0037E078285AD03A
:102EB0007A28B9D0D2E703230493B5E7039B002B0C
:102EC0000DDA049B002B00D1BBE0049B303803904B
:102ED000002BA9D10233EFE7039B002BF5DB0A237C
:102EE000039A53431818F0E7059B013305939BE7BA
:102EF000059B012B14DC25680434002D06DA0299A9
:102F00002D20B847039B6D42013B03932A00039B8E
:102F10000093049B02993800FFF7F8FE002683E730
:102F200007342300072293431C001D680834E4E79C
:102F3000059B012B05DC22680434039B0093049B52
:102F4000E8E707342300072293431C001A6808347B
:102F5000F3E702993020B84702997820B847082350
:102F60000393073B0493059B012B16DC2368043471
:102F70000993082306930023082508930B93013D2A
:102F80000998AB00D8400F23184012D10B9B002B9F
:102F900001D1002D2CD130230FE00734230007226C
:102FA00093431C001B6808340993E2E70A9B0693CD
:102FB000E5E75723092800D8273BC0180299B847EE
:102FC000089B0B9601330893069B0A93002DEDD1C5
:102FD000049B2E00032B00D026E7039B5D00089B7B
:102FE000ED1A002D9ADD02992020B847013DF8E73F
:102FF000069B069A013B0A93039B9342E6DB049BE4
:10300000012B03D130200299B847DFE7049B022B44
:10301000DCD102992020F7E702990134B84735E75F
:1030200002992020B847013C3BE702992068251D02
:10303000B84739E701235B420596049603930126BE
:10304000F2E6012338E72C000600EDE607B50B0099
:10305000002102000191034801A9FFF7CBFE01986E
:103060000EBDC046F92C00000FB407B504A901C974
:103070000191FFF7EBFF03B008BC04B01847000054
:103080000CB430B5002585B008AB04CB019002919B
:10309000040001A9074800930395FFF7ABFE0398CE
:1030A000029B984200DA255405B030BC08BC02B03F
:1030B0001847C046BD2D000030B5002585B00190F1
:1030C0000291040001A905480395FFF793FE0398B8
:1030D000029B984200DA255405B030BDBD2D00009A
:1030E0007047000070B50400074D0A2804D1286815
:1030F0000D2143685B6898472868E1B243685B68C4
:103100009847200070BDC0462000002010B5044C38
:103110002000FFF769FA2000FFF766FE10BDC046E9
:10312000E530000010B5044808F05CFE034B186061
:10313000FFF7ECFF002010BDE0D6000020000020CB
:1031400010B50400043009F0FDFE220000233932DE
:103150006365013A5370137007223A34237893431E
:10316000237010BDF7B5020004008C460023012631
:103170003C32092700215F4311600D001D49C91928
:10318000019167460199485D0109795C0007000FCC
:10319000C140314206D03000291D8840010010682E
:1031A000014311600135092DEBD11068124935003A
:1031B000814318000D3085400133294302C2032B9F
:1031C000D7D1230000223B331A70236D01330AD17B
:1031D00001225242D317A264E364201D042200217D
:1031E00009F091FEF7BD09F08FFB226DD31712187D
:1031F0004B41F0E7E7D60000F01F000010B5436830
:103200000A001C6800210123A04710BD10B51B480F
:1032100008F0E8FD1A4C0D212060FFF7EFFF0E21AA
:103220002068FFF7EBFF0F212068FFF7E7FF04217D
:103230002068FFF7E3FF05212068FFF7DFFF062185
:103240002068FFF7DBFF07212068FFF7D7FF082181
:103250002068FFF7D3FF09212068FFF7CFFF0A217D
:103260002068FFF7CBFF0B212068FFF7C7FF0C2179
:103270002068FFF7C3FF002010BDC04644D4000003
:10328000C821002002003A3212780300510702D010
:103290000C4811070ED41900393192060BD50A7863
:1032A0005B6D08489B5C203BDAB25E2A02D805229F
:1032B0005343C018704705200A784243586D801860
:1032C000F8E7C04602D70000030001653A331B78D7
:1032D00010B59B060CD5436D06491B78203BDAB22E
:1032E0005E2A02D805225343C918FFF73BFF10BDE1
:1032F000416DFAE702D70000043810B500680022DB
:10330000436801215C68014BA04710BDF01F00001D
:10331000F0B5040026003736051F337828680E33D1
:1033200042689B00EB18576887B05B680022012158
:10333000B847307803210130FCF7EAFF0F1E3170E7
:1033400000D091E0AB6C013303D1EB6C013300D1C1
:103350008AE009F0D9FAEB6C8B4205DB00D083E000
:10336000AB6C834200D37FE0210036310A785307EB
:1033700000D197E05306DB0F05335607DBB2760F1B
:1033800000939E4258DA20231340039308231A40E7
:1033900001922800FFF776FF039B0290221F002B6B
:1033A00035D0019B002B23D0536D1A784A4B203A1D
:1033B000D1B25E2902D805214A439B18009ADB5DF1
:1033C000921B9340029AD25D3241134304AABB542C
:1033D0000137052FDDD10722363423780136164018
:1033E00093431E43267004A92800FFF7BBFE3BE071
:1033F00023003533526D1978535C9C466046364B3A
:103400000028DBD052185278203AD1B2D1E7019B84
:10341000002B01D0536DD1E7230035331978013BE0
:103420001B78013B9C462C4B6145C7DA05230131D3
:103430005943536D5B18C1E72000082335301A4209
:1034400014D09A430A7020230A78134012D00378CC
:103450006C6DE45C63426341DBB2002B16D0D30693
:103460000ED42800FFF76CFE07B0F0BD03780133DF
:103470000370E8E7343406782478A6425B41EBE732
:10348000002303700A78083313430B7007220B786C
:1034900093431A00012313430B702800FFF7F2FE39
:1034A0000100A1E7210020233531087813400130C5
:1034B000C0B20870002B0AD06B6D185C43424341C8
:1034C000DBB2002BE9D0D306CBD50023E4E73434BC
:1034D0002478A0425B41F3E702D7000008B4FFB5AF
:1034E0000400270009AD08CD58370091160001935C
:1034F000FFF726FE2B00019A282138000395FFF7DD
:10350000DBFD3B78002B2AD02500220000216765D7
:103510003A3539322B781170009A6031D2030B435F
:10352000D20F503912018B4313432B706B461B880B
:10353000012B1BD0002B01D0022B10D1002E12D05A
:1035400006213000FCF78EFE206507222B780A4901
:103550009343023213432B702000FFF703FEFFBC9E
:1035600008BC01B0184750232365EEE73100200066
:10357000FFF7AAFEF3E7C04602D7000000487047F5
:10358000C821002010B5EFF3108272B615490B78F0
:10359000002B05D1002A00D162B64520404213E03D
:1035A000013BDBB20B70002B04D0002A00D162B6C5
:1035B0001020F3E70C4B01201C78002C05D008707C
:1035C000002A0DD162B60C3810BD1870002A00D147
:1035D00062B6802201210020D20551601870F3E705
:1035E0000B20DBE72600002025000020002210B57C
:1035F00010000121FFF740FA0020FFF713FA002026
:1036000010BD000070B5EFF3108372B6274A107832
:10361000441C147000280BD0002B00D162B680220D
:10362000234BD205D3580020DB0300D4443870BDAF
:10363000204E3478002C06D01070002B00D162B6DA
:103640000B204042F3E701223270002B00D162B61A
:103650008024194DE405002924D00020FFF7EEF95D
:103660000023C1226B6092000133A158A350236054
:103670006B68002B12D000236B600133194202D11A
:10368000C2229200A350C02301210C4A5B00D150FA
:103690000020FFF7C7F900233370C0E720BF40BF09
:1036A00020BFE5E7012369602360F4E726000020DE
:1036B0000C04000025000020FC00004000E100E0B8
:1036C000F8B507000D00EFF3108372B62D4A11789C
:1036D00000290CD0002B00D162B683238022DB00AE
:1036E000D205D3580020DB0300D44438F8BD0121B3
:1036F0001170002B00D162B60020FFF79FF9002265
:10370000214C8023A260C1220220DB05920099583F
:103710009850A322D2009D5001229A60A268002AEC
:103720002CD00022A2600232114202D1C2218900B3
:103730005A50C0230126154A5B00D6500020FFF7DF
:1037400071F98023C22218209200DB0598500321D2
:1037500000222940226162619142BED1A722102439
:10376000D2009C50C122920098509E503800FFF722
:1037700049FF0028B1D1064B5E60AEE720BF40BFD5
:1037800020BFCBE724000020FC00004000E100E067
:10379000FCE100E0F7B5244C8023E268DB059446A9
:1037A000C1229200995801220A40204905005E5822
:1037B00000926768A0682169626901926246002AE6
:1037C00001D00022E260002F01D000276760009A3C
:1037D000002A06D0F20304D5C2260122B6009A516F
:1037E0001A61002801D00023A360002908D000211D
:1037F00028002161FFF7C6FE80230122DB055A6104
:10380000019B002B0ED00021C12380226161012485
:103810009B00D205D4502800FFF7F4FE002801D108
:10382000034B5C60F7BDC046FC0000400C04000088
:10383000FCE100E0036870B59B6801259A681F26CB
:1038400083680020DC682300C3402B4208D00300BB
:103850004533FF339B009B581B0A33408B4203D0F8
:1038600001300428EFD1173870BD30B5150002685B
:10387000A2209268C00014682258002902D1EA40B0
:1038800001310A4000201A6030BD000000688068E5
:10389000006800290AD101319140002B04D0A123F6
:1038A000DB00C15000207047024BFAE7024A835008
:1038B000F8E7C0460C0500000405000010B5836859
:1038C000002A08D01A680A605A681960002A00D1D4
:1038D0005960002010BD18680028FAD081420FD12D
:1038E0005C680868002A06D11860A14200D15860BF
:1038F00000230B60EDE71060A142F9D15A60F7E7B1
:1039000002000068E8E7F8B503680C009B68170040
:103910009D688668002914D11100FFF78BFF0028ED
:103920000EDB01231A00BA40B16883400A43B2603B
:103930000200403292005451C12220009200AB504C
:10394000F8BD23204042FBE7F8B503680C009B68F4
:1039500016009F688568002910D11100FFF76AFFE3
:1039600000280ADB01231A00B240A9688340914372
:10397000C22220009200A960BB50F8BD2320404223
:10398000FBE710B5002201210620FFF775F806209D
:10399000FFF748F8002010BD0368F7B59B680400E6
:1039A0009B680127019300231A00856801989900FC
:1039B00041180800FC304668002E0AD000264660F8
:1039C000A220C00009581F20090A01403800884081
:1039D00002430133042BE9D1AE6806201640FFF7FD
:1039E0002DF82D68002D03D10620FFF71BF8F7BD39
:1039F000AB683342F5D03200290020006B6898474D
:103A0000EFE70000F0B506001400026885B0926888
:103A1000B568906817680390002902D023204042BF
:103A200063E00322C020191311408C469913114002
:103A3000800218400291C021019080208900194025
:103A400009324000814204D0354A89184A424A412D
:103A50009200802101984902884201D10021019100
:103A600060460121800084460B4245D00C2A3ED19D
:103A7000A120A140C000395002992A486144890020
:103A80000858032101430A432100C131FF31890055
:103A9000CA510220184028D09A06BFD55A0639D4F8
:103AA00080275B0738D4BF02E868FCF7A9FC04282C
:103AB00034D030002100FFF7BDFEEE68002803DAA5
:103AC000F043FCF793FC013801231A0082401643AF
:103AD000F82224025201144045301C43FF30039B5E
:103AE00080002743EE60C750002005B0F0BD042AD7
:103AF000C2D1A1400C48BEE702990A48614489003E
:103B0000095801980A4310432200C132FF32920043
:103B1000D051BEE7C027C6E77F02C5E705207EE794
:103B200000FEFFFF10D900000C05000010B503686F
:103B300040681B68984710BD10B5036840685B6813
:103B4000984710BD10B5036840689B68984710BD42
:103B500070B5040000F096FD050000F093FD401BD9
:103B6000A042FAD370BD10B50400FFF7EBFF011EB1
:103B70000ED12000FFF7DAFFA3681868FFF7E8FF0F
:103B800020000121FFF7D2FFA3681868FFF7E0FFCC
:103B900000212000FFF7D0FFA3685868FFF7D8FF87
:103BA00010BD70B504000021FFF7C0FF0121200007
:103BB000FFF7C2FFA3681868FFF7CAFF2000FFF7EE
:103BC000C1FF050001212000FFF7B0FFA36858687E
:103BD000FFF7BEFF681E8541E8B270BD70B50400F6
:103BE0000D000021FFF7A2FF29002000FFF7A4FF2E
:103BF000A3681868FFF7ACFF01212000FFF796FFCC
:103C0000A3685868FFF7A4FF70BD10B50400FFF764
:103C100099FF00280BD0A3681868FFF799FF2000D0
:103C20000021FFF789FFA3685868FFF791FFA36899
:103C30005868FFF78DFF01212000FFF77DFFA36883
:103C40001868FFF785FF10BD03000120084005D16B
:103C50000907490F012904D0022905D02320404239
:103C600001E0024A9A607047014AFBE780D90000F0
:103C700078D90000F0B5002587B004000F0001924C
:103C80001E00AA4235D00121FFF750FF73000593B3
:103C9000062300930222009B134202D02000FFF76C
:103CA000B4FF0423009D1D4026D02000FFF75BFFDA
:103CB00004223B7A2B43009313422AD001251D4056
:103CC000059B08261D43EBB2802502930299200034
:103CD0002940013EFFF782FF6D08002EF6D120003B
:103CE000FFF75FFF002810D005256D422000FFF789
:103CF0008CFF280007B0F0BD04223B7A1342D7D0D6
:103D0000A3681868FFF724FFCFE70422009B9343C2
:103D100000933D687B68009AEB18029301231A40D8
:103D2000039230D1029BAB4230D92B78802604938A
:103D300008230393049920003140FFF74FFF039BB2
:103D40007608013B0393002BF4D12000FFF729FFF5
:103D500001350028E6D0C7E76B1C039E04932000C2
:103D6000FFF71FFF8023760006435B001E42F6D05C
:103D7000029B049A2E70991A4A424A41200011006F
:103D8000FFF72CFF049D029B9D42E5D3019B0C375E
:103D9000013BDBB20193002B00D07BE71D00A5E7C0
:103DA000024B0160426083607047C04680D90000CA
:103DB000036870B59E6884680500306808F012F8E2
:103DC000E06000280CD073792000637433792200FE
:103DD00023740549FFF7E4FF0020044B6B6070BDBE
:103DE00016204042FBE7C04690D900004822002040
:103DF00010B58068FFF73EFF10BD10B58068FFF773
:103E000023FF10BD0122030013B5C06801925A7C44
:103E1000436800219C6801ABA047019816BD0200D1
:103E200010B5C0680B004168527C4C680021A04767
:103E300010BD020010B5C0680B004168127C4C68D0
:103E40000021A04710BD10B5002201210320FEF77C
:103E500013FE0320FEF7E6FD10BD036870B59B68F6
:103E600084681D68FC35EB68002B08D00123227E96
:103E70002000134323760023EB6008F0B9FC2B6A83
:103E8000002B08D00223227E200013432376002338
:103E90002B6208F0ADFCAB6A002B08D00423227E15
:103EA0002000134323760023AB6208F0A1FCAB682B
:103EB000002B08D00823227E200013432376002302
:103EC000AB6008F095FC70BDF8B5012403680D00E7
:103ED0009B6886681F680C401AD101212036494230
:103EE00030002D0708F0DEFC6D0F012D04D0022DEF
:103EF0000BD01624644203E0CC225204064BFA5045
:103F0000300008F075FC2000F8BDCD22D204F5E7A2
:103F100016246442F7E7C04624050000F0B50D0002
:103F200001211C00036887B09B6849421B68070099
:103F300002938368059220331800049308F0B2FCC2
:103F4000A02305220299DB00CA508833CC500023FD
:103F50000393039B059A934201DB002448E001236D
:103F60002C7A1C4061D00024029B4F4AFC33DC6059
:103F7000C12302999B00CA50BB6801933B689B68B0
:103F80001E686B68A34212D82B7A9B070AD50121C1
:103F90000198494208F086FC0822019B1B7E93434E
:103FA000019A1376039B0C3501330393D1E7013B50
:103FB000A34228D1802202239200B3500123002C77
:103FC00026D1336001210198494208F06BFC04219D
:103FD000019B1B7E1A1C0B421CD0019B8A431A7644
:103FE00001237361A0230022DB00F2500524644208
:103FF000A02300220299DB000498CA5008F0F8FBC5
:10400000200007B0F0BD802301229B00F250D5E7CD
:104010003362D7E701229343019A1376A323DB008F
:10402000F3582A6813550134ABE70822BB680193A3
:104030003B689B681E68019B1B7E9343063A934333
:10404000019A13763300FC331C6280239B00F450EA
:104050006B689C4205D32B7A9B07A3D50123736120
:1040600095E72B681A5D114BF250002C01D101230A
:10407000B36001210198494208F014FC0421019B1E
:104080001B7E1A1C0B4208D0019B8A431A76084BF0
:10409000F258F25001237361A8E702229343019A78
:1040A00001341376D4E7C046860200001C050000E8
:1040B000C4040000F7B5036884689D680190214836
:1040C0002F6807F08FFE0122E0615242002120009C
:1040D00008F084FB01986B689847A0230022E069F0
:1040E000DB00FA5043682A691B6800211E00C123C7
:1040F0001B02B047E069EA68436800211B681E00A4
:10410000C1231B02B047A1232A69DB00FA50EA68E9
:104110000D4BA968FA500D4B0198FA58FA503B0024
:104120000022FC331A62DA609A62C123084A9B00BB
:10413000FA50FFF7C9FE05002000203008F058FBB8
:104140002800FEBD44D400000C050000C40400009B
:1041500086020000F0B587B00193036800929E6864
:10416000826801980291B179131D002809D0009846
:10417000019CA04205D01C00C800043010188442E5
:1041800005D10020814210D14B1EDBB21FE0029D01
:104190002768BD4207D06568002D04D0009D1768D0
:1041A000BD4200D0B7E00834E9E708331C00083C02
:1041B0002468029DA54244D00130C0B2E2E7DD0090
:1041C0005519AD685C1EE4B2002D04D02300FF2B0E
:1041D000F5D10C20A0E08342FBD230794F4DC018BE
:1041E00080004019A22704900020049DFF0034683D
:1041F000E85176795D007519EDB2AC4601260135BE
:10420000AE4067460125BD40A1272E43444DFF0027
:104210000396EE510126029D1037AE40A025ED0514
:10422000EE51019F87420ED13E482E500020DB0008
:10423000D318C90098605118914265D10123636079
:1042400067E00300C9E7009F019DAF4204D1A120B0
:10425000A025C000ED05E8E7A025324FED05EE51A1
:10426000314D890060510C356051083D60519D0011
:1042700067193D006118FC3568640D00FC35686401
:1042800080250826AD006651009D05912E0C019DEC
:10429000F5402900A825ED007951009F0599F740C8
:1042A0004F510121A226E1600299F6000D021F493B
:1042B000A3272943049DFF00A95161461D00184E04
:1042C000C9008919A2265035AD006519F6008D5137
:1042D000124E9D00B446164E65448D5126004D3653
:1042E000FF36CE51134EDB008D510D490E4D039E0E
:1042F0004E510121216000991160D218029B536038
:10430000019B936007B0F0BD08321368002B00D109
:1043100092E70020F6E716204042F3E700600040F5
:1043200000F001400C05000004050000030013002C
:10433000140500001C0500008020002140041060CE
:1043400051600020704700207047000070B58368FE
:1043500015000C290ED19B69084C09495C432000CB
:10436000FBF780FF064928602000FBF7D1FF002003
:10437000696070BD23204042FBE7C04690D0030037
:1043800040420F0010B584680C4807F02BFD012255
:10439000E06152422000002108F020FA00220121B1
:1043A0000C20FEF769FB0C20FEF73CFBC12301212A
:1043B000034A9B000020D15010BDC04603D9000025
:1043C00000C00040002210B5024B80685A6008F01F
:1043D0000FFA10BDFCC0004070B584681E2901D0E2
:1043E0000C2918D1E0690121436801261B68984710
:1043F00001210A4D49422E60200008F053FAE0697D
:10440000310043685B689847A1230020DB00EB582C
:10441000A3616E6070BD23204042FBE700C00040F6
:1044200003689B681B681A00FC32D068002806D01D
:104430000020D060A322D2009B580B70704701204F
:104440004042FBE70368064A9B681B689950FC33AF
:104450001A6A002AFCD0002208001A627047C0467F
:104460001C050000036800209B681B681A00FC32D2
:10447000926A824203D09022D200985898500F231B
:1044800018407047F8B5036805009B6818481C6819
:1044900007F0A8FC436806001F6802231822FF33B8
:1044A0000021B847736830001F68002319221900E3
:1044B000B84718220F4BEB21E2500F4B0132E2506C
:1044C000E122AB6852021A602B6849049B68002005
:1044D0001A680A4BD1500422243BE2502300FC33DB
:1044E0001862D8600123A3602360054B6B60F8BDA0
:1044F00044D400000C050000140500002405000051
:10450000E8D90000A822084BD2009850074A9B58CF
:10451000C01A0002000A064B0238984203D98022D2
:10452000044B92025A6070470010014004050000DD
:10453000FDFF7F00FCE100E070B5114B114A124C09
:10454000D0582568401B0002000A822812D9832116
:10455000FBF73AFE0D4B1A68824200D90200832312
:1045600053435B191B021B0A2360094B10001A609E
:1045700008F0D2F920688330FFF7C4FF70BDC04651
:1045800004050000001001408C000020880000207D
:10459000BC240020002210B5024B5A64FFF7CCFF68
:1045A00010BDC046FC100140074A10B50300904200
:1045B00000D913008320054A58431360044B1B683D
:1045C000C018FFF79FFF10BD23FA000088000020ED
:1045D0008C0000200022074B10B580215A64C023B4
:1045E000054A5B008902D150FFF7A6FF0122034B69
:1045F0001A6010BDFC10014000E100E088000020BE
:1046000070B51A4807F0EEFB00282BD000240126D5
:10461000436800211B689847154B83221C60154B8B
:10462000154D1E60A123DB00EC503833EA50802387
:10463000D1225B029200AB50403AAB500F4B80212D
:104640005C64C0230E4A5B008902D1501120220015
:104650003100FEF711FA1120FEF7E4F92000AE60F8
:104660002E6070BD01204042FBE7C046F8D8000034
:104670008C0000208800002000100140FC10014048
:1046800000E100E00A490B4A70B58B580A4E3468C5
:1046900075688858834209D183206043181A074BF4
:1046A00000021B68000A5C43001970BD0300EEE7BE
:1046B0000010014004050000E80D0020C024002087
:1046C00070B5060088790D0007F072FA0E4B98421B
:1046D00018D1280007F072FA280007F06FFA0B4C87
:1046E000C00020184368002B0CD0280007F066FAA1
:1046F000C0000655280007F061FAC0002418606861
:1047000008F076F870BDC046B42500209000002067
:1047100010B542090400064892007030801808F075
:1047200055FC1F231C4020411E3B184010BDC046B5
:1047300090220020F7B5019101210500494213485C
:1047400007F0C8FA0700083704000021380007F016
:10475000C9FA00232000237507F030FA0C4EC00080
:1047600030184580200007F029FA0023C0003618D1
:1047700073603800032107F0FDFA6B461B79057062
:104780002D0A457083702000FEBDC046B425002070
:104790009000002070B50C0086B01500002903D1F0
:1047A000FFF7C8FF041E2FD001220021684608F041
:1047B00015F8200007F002FA6B46144EC0003018BE
:1047C0004360200007F0D2FA11482100B43007F00E
:1047D0008DFA1049684608F065F8200007F0EEF9F8
:1047E000C000805D002805D0200007F08DFA05206C
:1047F000404202E0002D02D02C6006B070BD2000C7
:1048000007F082FA2800F8E73720F1E7900000204F
:104810009022002010270000F8B5144E0622370021
:10482000083739000500FDF75DFA041E18D006218F
:104830000F48FFF77FFF041E14D00622290008301E
:1048400007F09FFA210000220948FFF7A3FF041E8A
:1048500006D1062229003800FDF768FA0123F3711A
:104860002000F8BD37246442FAE7C04690220020B9
:104870000520000070B5022105001648FFF75AFF19
:10488000041E23D00221083007F074FA0600012D1F
:1048900014D10A20FFF73CFF707021003570002210
:1048A0000C48FFF777FF041E06D10B487030012D2E
:1048B00007D1802108F096FB200070BD00234370D3
:1048C000EBE78121494208F098FBF5E73724644281
:1048D000F2E7C0460C2000009022002010B508200E
:1048E000FFF716FF041E01D0002010BD0720FFF7C0
:1048F0000FFF0028F8D02000FFF7BCFFF5E70123E9
:1049000010B5062104000370C01801F0F1FA002868
:1049100004D14023A2795B421343A37110BD000070
:10492000F0B587B004AA0021C548FFF733FF041E85
:1049300000D035E1049B9B681B78002B06D1C14851
:10494000C14A01217030136008F042FB049807F05F
:10495000DBF904AA0021BD48FFF71CFF041E00D0AC
:104960001EE1B84D049B28009968082201311630D9
:10497000FDF7DCF9049807F0C7F9210004AAB44850
:10498000FFF708FF041E00D00AE1049883685A78F4
:10499000AA73DA78997812020A432A821A79EA739A
:1049A0001A7AD97912020A436A825A799B791B02D0
:1049B0001343AB8207F0A8F9210004AAA548FFF72A
:1049C000E9FE041E00D0EBE0049B06229968681CF7
:1049D0000131FDF7ABF904982C7007F095F921002F
:1049E00004AA9D48FFF7D6FE041E00D0D8E0280098
:1049F000049B402299681E300131FDF797F9049815
:104A000007F082F9AB7E5B0600D457E1210004AACF
:104A10009248FFF7BFFE041E00D0C1E02800049BAF
:104A20000822996878300131FDF780F9049807F081
:104A30006BF9AB7E9B0600D49AE02B003A331B78CF
:104A40001B0700D5AFE008218548FFF773FE041E61
:104A500000D193E00821401807F08CF92B00403377
:104A60001A7806231A40043B062A01D18133FF330A
:104A7000002203701B0A43708270C270027142717F
:104A80008271C27121007648FFF784FE041E00D0B7
:104A900086E008217348FFF74DFE061E6ED0082100
:104AA000083007F067F9802302274370603B0470E9
:104AB0008470047144718471C770C3712200310025
:104AC0006848FFF767FE041E6AD1010004AA664821
:104AD000FFF760FE002826D1049807F015F904AA14
:104AE00021006248FFF756FE00281CD12800049BD5
:104AF0003A0099685F300131FDF718F9049807F022
:104B000003F904AA21005A48FFF744FE00280AD1FD
:104B10002800049B5E30996801220131FDF706F9F7
:104B2000049807F0F1F80722002102A8FDF728F900
:104B3000072202A92800FDF7D5F8002857D14D4ECD
:104B40003368002B60D12B00012460331B78234293
:104B500000D097E02800FFF7D2FE041E20D1336872
:104B6000002B5AD05E682A0007230100B04754E0AA
:104B700002214148FFF7DEFD061E02D137246442C0
:104B80000EE00221083007F0F5F8012344700370AD
:104B9000220031003848FFF7FDFD041E00D14CE72C
:104BA000200007B0F0BD04AA00213448FFF7F2FD51
:104BB000041EF5D104988268531C59785278090272
:104BC00011439A781C7912041143DA7812060A43C9
:104BD000597909020C439979DB79090421431B06B1
:104BE0000B43290080310CC107F08EF82BE7072218
:104BF000234904A8FDF79AF8072204A92800FDF725
:104C000071F800289BD0CBE700211C682A000723FD
:104C10000800A047072800D095E72B78012B4BD13F
:104C20003F22AB799343C02B46D1681CFFF7F4FDBC
:104C3000041EB5D128000421703008F0D3F9AFE785
:104C4000030C000090220020EC0000200310000064
:104C500001100000091000000210000003200000F5
:104C600001200000010C000001FC000002FC00001B
:104C700003FC0000140D00206D0C00001C2000003F
:104C8000BCD3000001AA00210D48FFF783FD0028D6
:104C900000D05FE7019881684B78002B09D0023182
:104CA000681C06222C70FDF741F8019807F02CF8DB
:104CB000B3E707F029F84DE7162460E713245EE711
:104CC00009FC000010B5FFF72BFE041E07D10748B2
:104CD0000221703008F086F92000FFF7FFFD044B39
:104CE0001B68002B01D02000984710BD90220020A7
:104CF000E8000020F0B5057D87B00400012D3FD10C
:104D000087683B780E3B012B3FD862B6042002DF58
:104D100011214A4FA66870374942380008F06DF9F2
:104D20003378002B08D1711C40224548FCF7FEFF68
:104D30002900380008F056F9424B1D68002D05D1B6
:104D4000200006F0E1FF002007B0F0BD002032781F
:104D50002B68824200D1701C98476D68EEE73A4D8F
:104D6000A2682B68002BEBD000201178814200D183
:104D7000501C984700232B60E2E7FCF7D7FF37E091
:104D800006F0C2FF16204042DEE706000836022188
:104D9000300007F000F83B783E2BD1D1A7682900FE
:104DA000300006F0F8FF3D78082DB1D0092DD6D09F
:104DB000022DC5D1300006F0F6FF0090009B002BBD
:104DC000BED0A5680921300006F0E5FF2B7A691CEA
:104DD000EB185B7A072201936B7804A8023B012B46
:104DE000CBD8FCF7A3FF04AB1B7804AA023B1370DB
:104DF000164F3B68002B17D0300006F0DCFFA3896C
:104E0000029003932B7A0421A3816B462A7859568A
:104E10003F68330004A8B8476B4622691B89D31842
:104E2000A3606B469B89A381297A3000013106F08B
:104E3000B2FF009B013BDBB20093BFE79022002052
:104E4000A4000020E4000020A0000020EC000020CE
:104E5000F8B5037D04008668012B02D062B60420F9
:104E600002DF8389012BF9D933780E3B012BF5D86A
:104E7000050008350221280006F08DFF33780E2B3F
:104E800005D00F2B19D0200006F03EFFE6E7A368FF
:104E9000032128001E7806F07EFFA3682100187801
:104EA000FFF70EFC002E03D00A48883007F0A0FC64
:104EB000200006F029FF0020F8BDA66804217778BD
:104EC000280006F068FF30782100FFF7F9FB002F7B
:104ED000EED0E9E790220020094AC4321368002B83
:104EE00008D18168002908D0C168002905D0106068
:104EF0001800704745204042FBE71620FBE7C046FC
:104F00009022002070B50500054806F0E3FE041E5F
:104F100004D00021083006F0E5FE2575200070BDA4
:104F2000D425002010B50100EFF3108272B60020E6
:104F30000B4BA0331C681860824200D162B6002C73
:104F400009D00123002120002375A181083006F03B
:104F5000C9FE200010BD0120FFF7D4FF0400F8E7D0
:104F60009022002073B51400032205001860C31DB1
:104F7000601E80B2484393431C800E002818013203
:104F80000021FCF7FDFE023C084BA4B29C4200D17C
:104F900073BD601C70432B18801B2818042201A9C4
:104FA0000193013CFCF7C2FEEEE7C046FFFF0000A4
:104FB000F7B505680600002D11D00327EB1DBB4394
:104FC0001C880422290001A8FCF7B0FE019B013CCB
:104FD000A4B2002B02D0DA1DBA431480336028003B
:104FE000FEBD0B6870B505000C001E1E03D0032229
:104FF000073393431E88280004222100FCF796FE05
:105000000322EB1D013693431E80256070BD4A4389
:1050100080187047401A10B580B21100FBF7D4F821
:1050200080B210BD10B5064B8918013A92B29A426F
:1050300000D110BD01390C7804700130F5E7C0468D
:10504000FFFF000010600860704713681860136865
:10505000596010607047884204D0002A01D043682C
:10506000136070470020FCE70B6883420AD0002AD7
:1050700004D0586810601A680A6001E0002BFAD169
:10508000180070470023FBE7F7B504243026013CE5
:10509000E4B2FF2C18D033006343A700019304252A
:1050A0000DE00C216943019B0848C918084B0A1DF3
:1050B0009A1859187B19DB00C018FFF7C3FF013D90
:1050C000EDB2FF2DEDD1E2E7F7BDC046F0000020C4
:1050D0007001002070B5104D0C243026002A0DD030
:1050E00023004E4343439B19EB181D7A5C7AAC4274
:1050F00001D101341C7206F0CFFC70BD44434E4315
:10510000A4192C19A27AE37A9342F6D10133A3723F
:1051100006F0EEFCF1E7C04670010020F8B506008D
:105120000F001C00002A14D0012103226378257887
:10513000ED1A15402BD0002922D00120854207D03E
:105140001B18DBB223703900300006F0D1FC0020C0
:10515000F8BD06F0BEFC0028E6D03900300006F0AD
:10516000AAFC0028E0D00C23302273437A439B181A
:10517000124AD3189A7AD97A511A4A1E9141D4E721
:105180000233DBB22370E368A0689847DFE70029A9
:10519000F9D00133DBB2302223700C237A437343FE
:1051A0000432D218054B21009A186068FFF74DFFB2
:1051B0003000390006F09CFC2800C9E7700100208F
:1051C00030231A00F0B5424389B005920022040052
:1051D0000426029203920093013EF6B2FF2E0BD1F9
:1051E000039B002B77D0029B002B74D11A00210067
:1051F000200006F051FC6EE000230C250793009B75
:1052000075436343354FEB18F918D85907AA496815
:10521000FFF721FF059B0190ED187B190493019B7B
:10522000002B1BD10C230099734361432B4A5B185D
:10523000D318997AD87A884202D0D972012303937D
:105240000C230099734361435B18D3181A7A597A77
:105250009142C1D05A7201230293BDE70321079BFB
:105260001F785A78BF1A0F40012F04D1013A5A70A3
:105270009868DA6890470322079B1D785B78EDB247
:10528000EB1A1340012B0FD00C23009A7343624397
:105290009B18124A0499D31858680022FFF7E4FEBD
:1052A000079B019A5D705A600C23009A7343624316
:1052B0000A489B18C11807AA49681858FFF7CBFE7F
:1052C0000190012FABD1002E01D10028AAD02100DE
:1052D000200006F00DFC09B0F0BDC04670010020B2
:1052E00002004118002010B58A4200D110BD147888
:1052F000002C01D10132F7E7631E01301C40C0B21F
:10530000F6E72823F0B5457F00242A009C4606686E
:10531000FF2A01D10020F0BD63465343F3181F78E4
:105320008A4204D09B681500E4183A00F0E79542E1
:1053300000D147772822554319789868A9551B78DA
:10534000FF2B04D05343F3189A6812189A60201860
:10535000E1E7531A70B5846845691E0209D41B023F
:105360001B0A1B19AB420ED95B1B002545618360EC
:1053700070BD8B1A1B021B0A9C4201D9E31AF1E78C
:10538000ED1800232D1BED1A0023EFE70300002288
:105390001A709A6A10B508005962002A01D0D96AB9
:1053A000904710BD0123F7B5867F0400C377002E18
:1053B00003D1437FFF2B01D1C677F7BD05F09AFEDD
:1053C0006369677FC51A2D022B0A00932368019336
:1053D000FF2F07D028235F43019B009AD9198B68C0
:1053E0009A4217D2A27AE37A934205D10133DBB213
:1053F000022B00D10023E372E37A656A02339B003B
:10540000E3185E6000230122E377042123000320D8
:10541000A847D2E7009AF618D21A00928A784B78F9
:105420000F789B1ADBB2012BD2D1CB68013A8A707C
:105430001D1ECDD04B69CA8BF01A6369C0180002DB
:105440000B69000A496AA847C2E70000F0B5C27FAD
:1054500097B00700002A00D080E0012383774369DA
:105460000893837AC17A994200D179E00133DBB2A3
:10547000022B00D11300BB7202339B00FB185B6848
:105480000093009A089B9B181B021B0A7B61012357
:1054900003937B7F05933B680D937B680E937B7A28
:1054A000013BDBB2049300230C93FF330193049B75
:1054B000FF2B58D17B7F059A9B1A5A1E9341DBB272
:1054C0000B93039B002B16D03B680793002302939A
:1054D0007E7FFF2E0AD028247443079B1C19A568E1
:1054E000009B9D4200D821E1ED1AA560059BB342C7
:1054F00001D0039B0B933B680E937B6812937B7ADE
:10550000013BDBB20693069BFF2B00D059E17B7F6A
:10551000059A934200D021E30C9B002B07D17B68B6
:1055200003937B7A013BDDB2FF2D00D087E200239D
:10553000BB770B9B002B08D07B7FFF2B00D0D3E2E7
:1055400005F0C2FD002800D1B861FB7F002B05D01B
:105550007C6A3B00012203210420A04717B0F0BD64
:105560000392009295E7049B0E9ADB00D3180293F6
:105570005B680F93029BDA78029B9E78964200D17B
:10558000CFE0302575430F9B02995D190978731C94
:10559000DBB2994200D1002302998B702B78032B48
:1055A000EAD9052B16D8282469780D9A4C4314198A
:1055B0006278A078121AD2B20692002A0AD0042B7E
:1055C0000DD16B68002B0AD1AB68002B07D1EB68BB
:1055D0001B0204D101212800FFF7D8FECAE7069B71
:1055E000012B00D093E03800FFF78BFE2B780600EC
:1055F000A060042B00D07FE07B69099305F07AFD61
:10560000099A0A90801A0002009B000AC01886427C
:105610003AD9301A63689C46002B12D0AB89002B14
:105620000FD0013B9BB207936B469B8BAB818445AC
:1056300030D3D34EE18B079B8B4248D86B469B8B74
:10564000A383AB8862691818A060EB880999D31806
:1056500063610A9A2000FFF77CFEA2692B899B18E0
:10566000A3616A89934245D99B1AA361AB7B002B46
:1056700000D0E3706B461B7923706B7801936378DD
:10568000013363700021A6E763699E1B30186061D7
:105690000020BFE7E38B0B930B9A079B9342C8D282
:1056A000666AB84971180B001A00B54B00219A427E
:1056B00003D9B54B0699F6186662636A266A0B9A97
:1056C0009E1B6144013A6662401AE283AFE7636A57
:1056D000226A9A18AB4BD318B34206D962620022F1
:1056E000624401318018E183A4E7A84BD2186262BA
:1056F000069AF5E70023B8E7A37863703A7F6B78E2
:105700009A42BFD1FF233B770023BB61BAE7042154
:105710003B00012208007C6AA047029B9E70012387
:105720000C93049B013BDBB20493C0E6029B5B1924
:105730000293BB699D4237D25B1BBB61A369002BFF
:1057400001D03E77BB6100222378A2607B7760683E
:10575000904232D0A38B0693894B9C46216A636AA0
:105760005B1888495918614522D9636200231B18C8
:10577000D218069B013B0693F0D2089BA260029AC6
:1057800079699A182000FFF7E4FDA38BE3830023D7
:10579000E3706B461B792370637801336370009B61
:1057A00001965B1B009393E6FF233B770023C4E73E
:1057B00076495B186362039BD9E7A378019E637007
:1057C000EDE7069B129ADB00D31807935B681393EF
:1057D000079B5B780393019BFF2B00D183E0282478
:1057E000019B5C430E9B1C19019B02932378019340
:1057F000002300933B6800211493FF23A28B2370A6
:10580000E38B0F91934202D99B1A9BB20F932823EB
:10581000029A534315933B68BA699C46159B6344AF
:1058200008939E687B7F0992FF220D930A92FF2BBB
:1058300006D028225A4362449068864200D9ABE0E1
:105840001D00089A92691092B018FF2D00D0B1E0A7
:10585000109A002A06D0099A964200D2C3E0FF2D82
:1058600000D081E1089A966013700D9A934200D09F
:10587000B1E06A46127A7A77FF2B05D0282253438B
:1058800063449A68921B9A600021A3780133637085
:10589000009B002B9FD01800FFF778FD9BE730237B
:1058A000039A5343139AD3180093039B0133DBB23B
:1058B0000393079B039A1B78934201D10023039320
:1058C000009B1B78032B0ED12824009B5B785C4344
:1058D00002930E9B1C196278A3789A420AD0012188
:1058E0000098FFF753FD079B039A9B789342D6D10C
:1058F000069B05E60025009B7969DB682000636054
:10590000009B1B6908932362009B9B8AA383009BD7
:105910009B69A361009BDB69E360009B1B6A2361B9
:10592000009B9B6865610893A360009B5A68FFF722
:1059300010FD01236562E583E3705BE76368002B7C
:1059400000D17AE0216A626A52180E4950180C4957
:10595000884210D962620022A1685B189B18E28B12
:10596000A3600132E28362690021934210D99B1A3D
:10597000A36061614FE70549521862620122EBE7BB
:10598000592B177F5A2B17FF4AA9D101B6562EFE65
:10599000D31A6361A1603EE79569361A002D07D1DD
:1059A0000999884200D20D1A0D93099513783EE7A4
:1059B0000A93F9E728226A4362449168119181426F
:1059C00007D29169002900D042E711991578401A51
:1059D0003BE7049D3CE728210D9A68464A4361460F
:1059E000007A505448E7029B0A9A934200D14BE751
:1059F0000A9BFF2BA2D01D0028266E43149B002279
:105A00009E19F38BB18B8B4201D95B1A9AB27368E2
:105A1000002B93D00F9B9A4290D8F278E3789A4269
:105A20008CD229003800FFF76CFCB378B06073703B
:105A30006B461B7901953370EDE6012128E7039B46
:105A4000EC001C19636804936378E2789A4202D1EF
:105A5000013DEDB268E530225343049AD3181A7819
:105A6000012A26D0022A2BD15A68D968944600917F
:105A700039689A68019161460978FF2904D0106855
:105A800006007869864224D07869797F1060002208
:105A9000FF290AD028204843019E301886680296C4
:105AA0008669002E1CD00298121860460170009979
:105AB0000A6000209A6A5862824201D0D96A9047EF
:105AC000637822780133DBB29A4200D100236370FD
:105AD000BAE728204143009A01981268415CD7E751
