:10000000D8190020D50C0000090D0000890B000054
:10001000890B0000890B0000890B0000890B000090
:10002000890B0000890B0000890B00009D0900006E
:10003000890B0000890B000041090000890B0000BA
:100040009D0C00000B8300009D0C00009D0C000027
:100050009D0C00009D0C00009D0C00009D0C0000FC
:100060009D0C00009D0C00009D0C00009D0C0000EC
:100070009D0C00009D0C00009D0C00009D0C0000DC
:100080009D0C00009D0C00009D0C00009D0C0000CC
:100090009D0C00009D0C00009D0C00009D0C0000BC
:1000A0009D0C00009D0C000000000000AD1700003A
:1000B00000000000FD0A000000000000FD0A000032
:1000C00000000000FD0A000000000000FD0A000022
:1000D00000000000FD0A000094240020B119000077
:1000E00000000000FD0A000000000000FD0A000002
:1000F00000000000FD0A000000000000FD0A0000F2
:1001000000000000C982000000000000FD0A00009D
:10011000000000000383000000000000FD0A000052
:1001200000000000FD0A000000000000FD0A0000C1
:1001300000000000B11E000000000000FD0A0000E9
:1001400000000000FD0A000000000000FD0A0000A1
:1001500000000000FD0A000000000000FD0A000091
:1001600000000000FD0A000000000000F98200000D
:1001700000000000FD0A000002B471464908490071
:10018000095649008E4402BC7047C04602B471460D
:1001900049084900095C49008E4402BC7047C046CA
:1001A00003B47146490840004900095E49008E4485
:1001B00003BC704703B47146490840004900095A1E
:1001C00049008E4403BC7047002934D0012300222B
:1001D00010B488422CD301242407A14204D28142C6
:1001E00002D209011B01F8E7E400A14204D28142D6
:1001F00002D249005B00F8E7884201D3401A1A4353
:100200004C08A04202D3001B5C0822438C08A04289
:1002100002D3001B9C082243CC08A04202D3001B3F
:10022000DC082243002803D01B0901D00909E3E7B9
:10023000101C10BC7047002801D00020C04307B438
:10024000024802A14018029003BDC046D900000038
:100250000029F0D003B5FFF7B9FF0EBC4243891A5D
:100260001847C046002941D010B4041C4C40A44695
:1002700001230022002900D54942002800D5404230
:1002800088422CD301242407A14204D2814202D205
:1002900009011B01F8E7E400A14204D2814202D225
:1002A00049005B00F8E7884201D3401A1A434C0822
:1002B000A04202D3001B5C0822438C08A04202D358
:1002C000001B9C082243CC08A04202D3001BDC0880
:1002D0002243002803D01B0901D00909E3E7101CC1
:1002E0006446002C00D5404210BC7047002806D060
:1002F00003DB0020C043400801E08020000607B473
:10030000024802A14018029003BDC0461900000037
:100310000029EBD003B5FFF7A7FF0EBC4243891AB3
:100320001847C0467047C046002B11D1002A0FD194
:10033000002900D1002802D00021C943081C07B4BD
:10034000024802A14018029003BDC046D9FFFFFF3A
:1003500003B4684601B5029800F054F8019B9E462C
:1003600002B00CBC7047C046F0B54F464646150477
:100370002D0CC0B42E000704140C3F0C9946030C3E
:100380007E435D43674363437F19340CE4199C4605
:10039000A54203D980235B029846C4444B4651438F
:1003A00043433604360C250C24046544A41959181B
:1003B000491920000CBC90469946F0BD10B50023A9
:1003C000002802D000F0EAF8431C180010BDC04617
:1003D000094A43081340C01A0300084A8008104025
:1003E00013401B181809C018054B03401802C01809
:1003F0000304C018000E7047555555553333333339
:100400000F0F0F0FF0B54D46564644465F46F0B409
:10041000924683B004000D0099468B422FD82CD011
:100420004946504600F0AEF829000600200000F0D2
:10043000A9F8331A9846203B9B4600D574E05346F2
:100440005A4693401F005346424693401E00AF4217
:1004500029D826D05B46A41BBD41002B00DA79E0E9
:10046000002200230092019301235A4693400193F6
:10047000012342469340009319E08242D0D90022E2
:100480000023009201930C9B002B01D01C605D6047
:100490000098019903B03CBC90469946A246AB46F1
:1004A000F0BDA342D6D90022002300920193434617
:1004B000002BE8D0FB0772081A4346467B080EE083
:1004C000AB4201D1A2420CD8A41A9D4101202419AB
:1004D0006D410021013E24184D41002E06D0AB4253
:1004E000EED9013E24196D41002EF8D15B460098EB
:1004F000019900196941002B22DB2B005A46D34099
:100500002A004446E2401C005B461500002B2CDB11
:1005100026009E40330026004746BE403200801A27
:10052000994100900191AEE7424620239B1A524622
:10053000DA40414613004A468A4017001F4382E7CB
:10054000424620239B1A2A0046469A402300F34045
:100550001343D5E74246202300219B1A0022009135
:1005600001920122DA40019282E7424620232600CE
:100570009B1ADE402F00B446974066463B0033434B
:10058000C9E7C04610B5002903D100F027F8203094
:1005900002E0081C00F022F810BDC04641420840AD
:1005A0001C2101231B04984201D3000C10391B0AA3
:1005B000984201D3000A08391B09984201D3000967
:1005C000043902A2105C401A7047C0461B1C1D1D56
:1005D0001E1E1E1E1F1F1F1F1F1F1F1F1C2101234A
:1005E0001B04984201D3000C10391B0A984201D316
:1005F000000A08391B09984201D30009043902A2F4
:10060000105C40187047C04604030202010101015A
:10061000000000000000000003000A781A70002AA1
:1006200000D1704701330131F7E703780A7893422C
:1006300002D1002B02D11A00981A70470130013103
:10064000F3E7002310B59A4205D0013A002A04D1FD
:10065000037808781B1A180010BD04780B789C42A8
:10066000F6D101300131F0E7030030B503254B40EE
:100670002B4219D003000024A2421BD130BD002A16
:10068000FCD00C78013A1C70013101331C002C4065
:10069000F5D1151B032D09D803241500A543032408
:1006A00049195B192240E6E70300EFE70D591D5198
:1006B0000434EEE70D5D1D550134DDE770B505002E
:1006C0000326CBB22C00354211D1C9B20E02314300
:1006D0000E0431431600032E0FD8032115008D435D
:1006E0006119032422408A18914209D170BD002A61
:1006F000FCD02B70013A0135E4E702C5043EEAE77D
:100700000B700131F0E7000010B500F043FFFA2252
:100710008021034B5200490200F0ECFE10BDC046A0
:1007200074AC000010B500F035FFFA22024B9200C5
:10073000012100F0DFFE10BD81AC000010B500F01B
:1007400029FFFA22024B9200012100F0D3FE10BDD6
:1007500083AC000010B500F01DFFFA22024B92009E
:10076000012100F0C7FE10BD85AC000010B500F0FF
:1007700011FFFA22024B9200012100F0BBFE10BDD6
:1007800087AC000010B50D4C930311D50C4800F058
:100790007BFC02230B4923700B780B4A2078DB008B
:1007A000D3181B5C0B70DB00D2185368984710BD40
:1007B000064800F069FC0123ECE7C0460C0000206D
:1007C00051AC00000D000020582100205CAC00005E
:1007D00070B5164808F076FF4368154C1D68112265
:1007E000222300212060A84720681A2243680021A4
:1007F0001D682223A8470F490F4B20684B600F4B01
:1008000001228B604368DB6898470D4808F05AFF67
:1008100020681122436800211B69984720681A222A
:10082000436800211B69984770BDC04667AC000053
:1008300010000020000000208507000000000204D6
:100840006EAC000030B5EFF3108072B61D490B7826
:10085000012B0FD11C4B1B681B070BD11B4BE02539
:100860001A68F02314001C402A421AD1184A126850
:100870001A4219D00B68DBB2012B0DD1124A126853
:10088000120709D1F021114A12680A40402A03D107
:100890000F4A12680A420FD0002800D162B6002029
:1008A00030BD302CE2D0E5E70A4A0B4B1A608022BB
:1008B0000A4B12021A60DDE7C1228021D200C9056D
:1008C0008B50E9E7E00F00F0E40F00F0E80F00F0D4
:1008D000EC0F00F0DFFF07C004050040186C00407B
:1008E000084881684A897F2A0AD8C069884207D0A7
:1008F00000B509F093FB01BC86460349034A0A6030
:1009000070470000A80B002004ED00E0000000107C
:10091000F0B5C02400220326FF25A40010002F00FC
:100920003040C0008740930804499B005B18195968
:100930000132B94319511A2AF0D1F0BD00E100E0AB
:1009400013498A6828201044EFF3098CF0C043460D
:100950004C4655465E466746F8C00E4F0E4E72B680
:10096000CA698A603E60906D00239365002800D1BB
:1009700062B6282410191030F8C89846A146AA4635
:10098000B346BC462438F0C88CF309887047000091
:10099000A80B002004ED00E00000000804207146D0
:1009A000014202D0EFF3098001D1EFF308808169A1
:1009B00002390978022900D092E700B500F01CF94D
:1009C00000BDC04605498A68906505490968D1653A
:1009D0000449054B0B6062B6D06D7047A80B002030
:1009E000ECB1000004ED00E0000000100E4B10B56B
:1009F0005A680400D205D20D032A0ED10B4800F02C
:100A000043FB09F0DDFAA2690100094800F03CFB54
:100A10002100002000F0F6F810BD06490F2A00DD85
:100A20000549103A0548F1E700ED00E0B7AC0000D9
:100A3000CFAC000089AC00009EAC000019AD0000F6
:100A400070470000030605D41F2318401E3B834057
:100A5000014A13607047C04600E100E0030609D474
:100A60001F2318401E3B8340034AD367BFF34F8FB9
:100A7000BFF36F8F7047C04604E100E04309054AA9
:100A80009B009B581F2210401E3A824010001840C5
:100A90007047C04600E100E043B270B58901002B09
:100AA00012DB144A9B0803259B009B18FF22284059
:100AB000A8401500C024854011408140A4001E5963
:100AC000AE433143195170BD03240F23C0B203401C
:100AD0002040A040FC342500214085408140083B57
:100AE000054A9B089B009B18DA69AA431143D96108
:100AF000E9E7C04600E100E000ED00E010B500F0DD
:100B000043F810BD10B5EFF3108472B6054B986929
:100B1000002803D000229A6108F0FCFD002C00D1CF
:100B200062B610BDA80B0020F8B517001E000C001F
:100B30000A9B09990422050009F058FD3900072293
:100B400001200023203961189143094AEB64824354
:100B50002B658A61069A0E604A60079A8A60089A35
:100B6000CA6080225204CA61A964AB65F8BDC04660
:100B700059A40000014910220A60704710ED00E0FE
:100B800062B630BF7047C04662B60420714601426B
:100B900002D0EFF3098001D1EFF3088000B5FFF731
:100BA00025FF00BD70B504000D00042809D00528FC
:100BB00016D00C48032C05D021000B4800F064FA35
:100BC00002E00A4800F060FA09F0FAF9AA690100A7
:100BD000074800F059FA2900200000F013F870BD12
:100BE0000448EFE72DAD000088AD000053AD0000D4
:100BF000ABAD00006DAD000010B501000068FFF75F
:100C0000D1FF10BD10B505280CD009F013FC002849
:100C10000BD009F00FFC0B49002800D10A490B4802
:100C200000F032FAFFF7ACFFFCE709F00DFC0028FA
:100C3000EFD1074C0748A16800F026FAA06800F041
:100C40000BF810BDE7AD0000EBAD0000FCAD0000FF
:100C5000A80B00201CAE000070B50500EFF3108457
:100C600072B609F05BFC0B4B9B689D420DD10A4BA1
:100C70005A68D20504D109F0D1F92000FFF7A2FE8D
:100C80008022596852050A435A60200009F02EF963
:100C900070BDC046A80B002000ED00E000B572B6A4
:100CA0000A4A9069002803D00021916108F032FDC2
:100CB00062B6EFF305801021401AC00004490144D8
:100CC00009C9984708BC9E460AE60000A80B002008
:100CD000A800000072B604480449401880F309884F
:100CE000022080F3148806E0D81A00208002000059
:100CF00030BFFDE7704710B5FFF7FCFF08F03AFD85
:100D000008F044FD08F06CFD10B5FFF7F1FFFFF7A8
:100D1000E7FD10BD002070470B6810B501330B6074
:100D2000014B1B68984710BD80210020F0B587B0AB
:100D300003930C9B070002910093002B01DC01231D
:100D4000009320230593039B012B01D12F3305939F
:100D50000A2301930023140001261F4D0493049BD2
:100D6000002B01D1A54226D2691C2000FFF72CFAE6
:100D700002993030B847012301360493019B691C66
:100D8000013B20000193FFF763FA28000C000A21C1
:100D9000FFF71AFA019B0500012BE0D12000029910
:100DA0003030B847039B032B03D1009B9C1B002CC6
:100DB0000DDC07B0F0BD009B019A9342DEDB039B84
:100DC000022BDBD802990598B8470136D6E702997D
:100DD0002020B847013CEAE7FFC99A3B0A6830B5D2
:100DE0008B68002A02D04C68A34202DB01338B607F
:100DF00030BD651EAB4203D18C600021D154F7E7B2
:100E00005C1C8C60D054F3E7014B18607047C046FF
:100E100080210020F0B51C0000238DB00593013B1C
:100E20000393002307001E00029107920493079B7F
:100E30001878002801D10DB0F0BD002E08D125286A
:100E400000D107E10299B847079B01330793EEE70A
:100E500064285DD018D839280AD831284CD22D28DA
:100E600039D030283AD0252808D10299B84765E012
:100E7000582800D187E0632800D1E6E002992520B8
:100E8000B847079B1878F0E7702872D006D8692811
:100E90003ED06C2838D06828F0D1D5E7752857D0D7
:100EA00014D87328EAD12668251D3400207800283C
:100EB00000D0C1E0049B032B00D0D4E0039BA41B13
:100EC0001C1B002C00DDBBE02C0037E078285AD03A
:100ED0007A28B9D0D2E703230493B5E7039B002B0C
:100EE0000DDA049B002B00D1BBE0049B303803904B
:100EF000002BA9D10233EFE7039B002BF5DB0A237C
:100F0000039A53431818F0E7059B013305939BE7B9
:100F1000059B012B14DC25680434002D06DA0299A8
:100F20002D20B847039B6D42013B03932A00039B8E
:100F30000093049B02993800FFF7F8FE002683E730
:100F400007342300072293431C001D680834E4E79C
:100F5000059B012B05DC22680434039B0093049B52
:100F6000E8E707342300072293431C001A6808347B
:100F7000F3E702993020B84702997820B847082350
:100F80000393073B0493059B012B16DC2368043471
:100F90000993082306930023082508930B93013D2A
:100FA0000998AB00D8400F23184012D10B9B002B9F
:100FB00001D1002D2CD130230FE00734230007226C
:100FC00093431C001B6808340993E2E70A9B0693CD
:100FD000E5E75723092800D8273BC0180299B847EE
:100FE000089B0B9601330893069B0A93002DEDD1C5
:100FF000049B2E00032B00D026E7039B5D00089B7B
:10100000ED1A002D9ADD02992020B847013DF8E73E
:10101000069B069A013B0A93039B9342E6DB049BE3
:10102000012B03D130200299B847DFE7049B022B44
:10103000DCD102992020F7E702990134B84735E75F
:1010400002992020B847013C3BE702992068251D02
:10105000B84739E701235B420596049603930126BE
:10106000F2E6012338E72C000600EDE607B50B0099
:10107000002102000191034801A9FFF7CBFE01986E
:101080000EBDC046190D00000FB407B504A901C973
:101090000191FFF7EBFF03B008BC04B01847000054
:1010A0000CB430B5002585B008AB04CB019002919B
:1010B000040001A9074800930395FFF7ABFE0398CE
:1010C000029B984200DA255405B030BC08BC02B03F
:1010D0001847C046DD0D000030B5002585B00190F1
:1010E0000291040001A905480395FFF793FE0398B8
:1010F000029B984200DA255405B030BDDD0D00009A
:101100007047000070B50400074D0A2804D1286814
:101110000D2143685B6898472868E1B243685B68C3
:101120009847200070BDC0461400002010B502484A
:10113000FFF76AFE10BDC0460511000010B5044857
:1011400008F0C0FA034B1860FFF7F0FF002010BD55
:1011500041AE00001400002010B50400043009F076
:101160003DFB2200002339326365013A537013704E
:1011700007223A3423789343237010BDF7B5020059
:1011800004008C46002301263C32092700215F43DE
:1011900011600D001D49C919019167460199485D0B
:1011A0000109795C0007000FC140314206D03000D0
:1011B000291D884001001068014311600135092D87
:1011C000EBD1106812493500814318000D3085407D
:1011D0000133294302C2032BD7D1230000223B3322
:1011E0001A70236D01330AD101225242D317A2642F
:1011F000E364201D0422002109F0D1FAF7BD08F0B4
:10120000CFFF226DD31712184B41F0E748AE000014
:10121000F01F000010B543680A001C68002101237C
:10122000A04710BD10B51B4808F04CFA1A4C0D2110
:101230002060FFF7EFFF0E212068FFF7EBFF0F2183
:101240002068FFF7E7FF04212068FFF7E3FF05218F
:101250002068FFF7DFFF06212068FFF7DBFF07218B
:101260002068FFF7D7FF08212068FFF7D3FF092187
:101270002068FFF7CFFF0A212068FFF7CBFF0B2183
:101280002068FFF7C7FF0C212068FFF7C3FF00208D
:1012900010BDC04667AC00008821002002003A3231
:1012A00012780300510702D00C4811070ED4190020
:1012B000393192060BD50A785B6D08489B5C203B60
:1012C000DAB25E2A02D805225343C01870470520BF
:1012D0000A784243586D8018F8E7C04663AE0000B4
:1012E000030001653A331B7810B59B060CD5436D9E
:1012F00006491B78203BDAB25E2A02D80522534306
:10130000C918FFF73BFF10BD416DFAE763AE00005F
:10131000043810B500680022436801215C68014B65
:10132000A04710BDF01F0000F0B5040026003736BE
:10133000051F337828680E3342689B00EB18576806
:1013400087B05B6800220121B84730780321013063
:10135000FEF7DEFF0F1E317000D091E0AB6C013361
:1013600003D1EB6C013300D18AE008F019FFEB6C7C
:101370008B4205DB00D083E0AB6C834200D37FE07F
:10138000210036310A78530700D197E05306DB0F6E
:1013900005335607DBB2760F00939E4258DA2023BE
:1013A0001340039308231A4001922800FFF776FFA9
:1013B000039B0290221F002B35D0019B002B23D0D2
:1013C000536D1A784A4B203AD1B25E2902D80521D2
:1013D0004A439B18009ADB5D921B9340029AD25DB0
:1013E0003241134304AABB540137052FDDD1072234
:1013F000363423780136164093431E43267004A9E1
:101400002800FFF7BBFE3BE023003533526D19780F
:10141000535C9C466046364B0028DBD0521852780D
:10142000203AD1B2D1E7019B002B01D0536DD1E717
:10143000230035331978013B1B78013B9C462C4B2C
:101440006145C7DA052301315943536D5B18C1E784
:101450002000082335301A4214D09A430A70202302
:101460000A78134012D003786C6DE45C63426341E8
:10147000DBB2002B16D0D3060ED42800FFF76CFE8B
:1014800007B0F0BD037801330370E8E73434067821
:101490002478A6425B41EBE7002303700A78083307
:1014A00013430B7007220B7893431A000123134355
:1014B0000B702800FFF7F2FE0100A1E721002023B6
:1014C0003531087813400130C0B20870002B0AD0C3
:1014D0006B6D185C43424341DBB2002BE9D0D3066D
:1014E000CBD50023E4E734342478A0425B41F3E712
:1014F00063AE000008B4FFB50400270009AD08CDB5
:101500005837009116000193FFF726FE2B00019A31
:10151000282138000395FFF7DFFD3B78002B2AD008
:1015200025002200002167653A3539322B78117089
:10153000009A6031D2030B43D20F503912018B4312
:1015400013432B706B461B88012B1BD0002B01D043
:10155000022B10D1002E12D006213000FEF782FEA1
:10156000206507222B780A499343023213432B70DC
:101570002000FFF703FEFFBC08BC01B01847502352
:101580002365EEE731002000FFF7AAFEF3E7C0462F
:1015900063AE0000004870478821002010B5EFF3CB
:1015A000108272B615490B78002B05D1002A00D1A4
:1015B00062B64520404213E0013BDBB20B70002BCA
:1015C00004D0002A00D162B61020F3E70C4B0120B2
:1015D0001C78002C05D00870002A0DD162B60C389A
:1015E00010BD1870002A00D162B6802201210020AF
:1015F000D20551601870F3E70B20DBE71A000020DA
:1016000019000020002210B510000121FFF744FA54
:101610000020FFF717FA002010BD000070B5EFF3AF
:10162000108372B6274A1078441C147000280BD01F
:10163000002B00D162B68022234BD205D358002064
:10164000DB0300D4443870BD204E3478002C06D023
:101650001070002B00D162B60B204042F3E701224C
:101660003270002B00D162B68024194DE4050029A8
:1016700024D00020FFF7F2F90023C1226B60920012
:101680000133A158A35023606B68002B12D00023B4
:101690006B600133194202D1C2229200A350C023D1
:1016A00001210C4A5B00D1500020FFF7CBF9002349
:1016B0003370C0E720BF40BF20BFE5E7012369606A
:1016C0002360F4E71A0000200C0400001900002039
:1016D000FC00004000E100E0F8B507000D00EFF36A
:1016E000108372B62D4A117800290CD0002B00D13E
:1016F00062B683238022DB00D205D3580020DB03AF
:1017000000D44438F8BD01211170002B00D162B61D
:101710000020FFF7A3F90022214C8023A260C12200
:101720000220DB05920099589850A322D2009D50C8
:1017300001229A60A268002A2CD00022A260023204
:10174000114202D1C22189005A50C0230126154AF4
:101750005B00D6500020FFF775F98023C2221820C5
:101760009200DB059850032100222940226162612A
:101770009142BED1A7221024D2009C50C1229200D7
:1017800098509E503800FFF749FF0028B1D1064B12
:101790005E60AEE720BF40BF20BFCBE7180000204F
:1017A000FC00004000E100E0FCE100E0F7B5244C63
:1017B0008023E268DB059446C122920099580122F9
:1017C0000A40204905005E5800926768A0682169B8
:1017D000626901926246002A01D00022E260002F75
:1017E00001D000276760009A002A06D0F20304D5D2
:1017F000C2260122B6009A511A61002801D00023A6
:10180000A360002908D0002128002161FFF7C6FE4F
:1018100080230122DB055A61019B002B0ED00021A1
:10182000C1238022616101249B00D205D45028008D
:10183000FFF7F4FE002801D1034B5C60F7BDC04602
:10184000FC0000400C040000FCE100E0036870B5FF
:101850009B6801259A681F2683680020DC682300A6
:10186000C3402B4208D003004533FF339B009B58F5
:101870001B0A33408B4203D001300428EFD11738C4
:1018800070BD30B515000268A2209268C0001468CF
:101890002258002902D1EA4001310A4000201A6092
:1018A00030BD000000688068006800290AD101315D
:1018B0009140002B04D0A123DB00C15000207047D1
:1018C000024BFAE7024A8350F8E7C0460C050000D5
:1018D0000405000010B58368002A08D01A680A6061
:1018E0005A681960002A00D15960002010BD18689C
:1018F0000028FAD081420FD15C680868002A06D11E
:101900001860A14200D1586000230B60EDE7106021
:10191000A142F9D15A60F7E702000068E8E7F8B59C
:1019200003680C009B6817009D688668002914D125
:101930001100FFF78BFF00280EDB01231A00BA40CD
:10194000B16883400A43B2600200403292005451B1
:10195000C12220009200AB50F8BD23204042FBE79B
:10196000F8B503680C009B6816009F68856800291D
:1019700010D11100FFF76AFF00280ADB01231A00CB
:10198000B240A96883409143C22220009200A9601E
:10199000BB50F8BD23204042FBE710B500220121D7
:1019A0000620FFF779F80620FFF74CF8002010BD5D
:1019B0000368F7B59B6804009B6801270193002327
:1019C0001A0085680198990041180800FC304668A3
:1019D000002E0AD000264660A220C00009581F2011
:1019E000090A01403800884002430133042BE9D141
:1019F000AE6806201640FFF731F82D68002D03D1A0
:101A00000620FFF71FF8F7BDAB683342F5D0320070
:101A1000290020006B689847EFE70000F0B506004A
:101A20001400026885B09268B568906817680390E2
:101A3000002902D02320404263E00322C020191372
:101A400011408C4699131140800218400291C02128
:101A5000019080208900194009324000814204D061
:101A6000354A89184A424A41920080210198490228
:101A7000884201D100210191604601218000844605
:101A80000B4245D00C2A3ED1A120A140C0003950C4
:101A900002992A48614489000858032101430A43F6
:101AA0002100C131FF318900CA510220184028D0DD
:101AB0009A06BFD55A0639D480275B0738D4BF02AF
:101AC000E868FEF785FC042834D030002100FFF7D9
:101AD000BDFEEE68002803DAF043FEF76FFC013824
:101AE00001231A0082401643F822240252011440B6
:101AF00045301C43FF30039B80002743EE60C750F6
:101B0000002005B0F0BD042AC2D1A1400C48BEE7B8
:101B100002990A4861448900095801980A43104310
:101B20002200C132FF329200D051BEE7C027C6E783
:101B30007F02C5E705207EE700FEFFFF70B00000D2
:101B40000C050000F0B587B00193036800929E6811
:101B5000826801980291B179131D002809D000987C
:101B6000019CA04205D01C00C8000430101884421B
:101B700005D10020814210D14B1EDBB21FE0029D37
:101B80002768BD4207D06568002D04D0009D176806
:101B9000BD4200D0B7E00834E9E708331C00083C38
:101BA0002468029DA54244D00130C0B2E2E7DD00C6
:101BB0005519AD685C1EE4B2002D04D02300FF2B44
:101BC000F5D10C20A0E08342FBD230794F4DC018F4
:101BD00080004019A22704900020049DFF00346873
:101BE000E85176795D007519EDB2AC4601260135F4
:101BF000AE4067460125BD40A1272E43444DFF005E
:101C00000396EE510126029D1037AE40A025ED054A
:101C1000EE51019F87420ED13E482E500020DB003E
:101C2000D318C90098605118914265D101236360AF
:101C300067E00300C9E7009F019DAF4204D1A120E6
:101C4000A025C000ED05E8E7A025324FED05EE51D7
:101C5000314D890060510C356051083D60519D0047
:101C600067193D006118FC3568640D00FC35686437
:101C700080250826AD006651009D05912E0C019D22
:101C8000F5402900A825ED007951009F0599F740FE
:101C90004F510121A226E1600299F6000D021F4971
:101CA000A3272943049DFF00A95161461D00184E3A
:101CB000C9008919A2265035AD006519F6008D516D
:101CC000124E9D00B446164E65448D5126004D3689
:101CD000FF36CE51134EDB008D510D490E4D039E44
:101CE0004E510121216000991160D218029B53606E
:101CF000019B936007B0F0BD08321368002B00D140
:101D000092E70020F6E716204042F3E7006000402B
:101D100000F001400C050000040500000300130062
:101D2000140500001C050000802000214004106004
:101D30005160002070470020704703689B681B6853
:101D40001A00FC32D068002806D00020D060A32200
:101D5000D2009B580B70704701204042FBE7000007
:101D60000368064A9B681B689950FC331A6A002A6C
:101D7000FCD0002208001A627047C0461C05000013
:101D8000036800209B681B681A00FC32926A82423A
:101D900003D09022D200985898500F2318407047D3
:101DA000F8B5036805009B6818481C6807F08AFCB2
:101DB000436806001F6802231822FF330021B8473A
:101DC000736830001F68002319221900B8471822D1
:101DD0000F4BEB21E2500F4B0132E250E122AB6896
:101DE00052021A602B6849049B6800201A680A4B4B
:101DF000D1500422243BE2502300FC331862D86007
:101E00000123A3602360054B6B60F8BD67AC000045
:101E10000C0500001405000024050000F0B00000CF
:101E2000A822084BD2009850074A9B58C01A0002BB
:101E3000000A064B0238984203D98022044B9202D2
:101E40005A6070470010014004050000FDFF7F004C
:101E5000FCE100E070B5114B114A124CD0582568D6
:101E6000401B0002000A822812D98321FEF7ACF938
:101E70000D4B1A68824200D90200832353435B1939
:101E80001B021B0A2360094B10001A6008F090F92E
:101E900020688330FFF7C4FF70BDC0460405000012
:101EA000001001404C000020480000203C2400208D
:101EB000002210B5024B5A64FFF7CCFF10BDC0469C
:101EC000FC100140074A10B50300904200D91300EE
:101ED0008320054A58431360044B1B68C018FFF762
:101EE0009FFF10BD23FA0000480000204C00002096
:101EF0000022074B10B580215A64C023054A5B00BD
:101F00008902D150FFF7A6FF0122034B1A6010BDD2
:101F1000FC10014000E100E04800002070B51A48C4
:101F200007F0D0FB00282BD00024012643680021B5
:101F30001B689847154B83221C60154B154D1E607E
:101F4000A123DB00EC503833EA508023D1225B021E
:101F50009200AB50403AAB500F4B80215C64C023E1
:101F60000E4A5B008902D150112022003100FEF799
:101F700093FD1120FEF766FD2000AE602E6070BD5F
:101F800001204042FBE7C04658B000004C00002052
:101F90004800002000100140FC10014000E100E07A
:101FA00070B5060088790D0007F072FA0E4B984262
:101FB00018D1280007F072FA280007F06FFA0B4CCE
:101FC000C00020184368002B0CD0280007F066FAE8
:101FD000C0000655280007F061FAC00024186068A8
:101FE00008F052F870BDC0460C25002050000020BB
:101FF00010B542090400064892007030801808F0BD
:1020000031FC1F231C4020411E3B184010BDC04620
:1020100010220020F7B50191012105004942134823
:1020200007F0C8FA0700083704000021380007F05D
:10203000C9FA00232000237507F030FA0C4EC000C7
:1020400030184580200007F029FA0023C000361818
:1020500073603800032107F0FDFA6B461B790570A9
:102060002D0A457083702000FEBDC0460C2500205F
:102070005000002070B50C0086B01500002903D177
:10208000FFF7C8FF041E2FD001220021684607F089
:10209000F1FF200007F002FA6B46144EC000301822
:1020A0004360200007F0D2FA11482100B43007F055
:1020B0008DFA1049684608F041F8200007F0EEF963
:1020C000C000805D002805D0200007F08DFA0520B3
:1020D000404202E0002D02D02C6006B070BD20000E
:1020E00007F082FA2800F8E73720F1E750000020D7
:1020F0001022002010270000F8B5144E06223700E9
:10210000083739000500FEF79CFA041E18D0062196
:102110000F48FFF77FFF041E14D006222900083065
:1021200007F09FFA210000220948FFF7A3FF041ED1
:1021300006D1062229003800FEF796FA0123F37132
:102140002000F8BD37246442FAE7C0461022002080
:102150000520000070B5022105001648FFF75AFF60
:10216000041E23D00221083007F074FA0600012D66
:1021700014D10A20FFF73CFF707021003570002257
:102180000C48FFF777FF041E06D10B487030012D75
:1021900007D1802108F072FB200070BD002343703E
:1021A000EBE78121494208F074FBF5E737246442EC
:1021B000F2E7C0460C2000001022002010B50820D5
:1021C000FFF716FF041E01D0002010BD0720FFF707
:1021D0000FFF0028F8D02000FFF7BCFFF5E7012330
:1021E00010B5062104000370C01801F0F1FA0028B0
:1021F00004D14023A2795B421343A37110BD0000B8
:10220000F0B587B004AA0021C548FFF733FF041ECC
:1022100000D035E1049B9B681B78002B06D1C14898
:10222000C14A01217030136008F01EFB049807F0CA
:10223000DBF904AA0021BD48FFF71CFF041E00D0F3
:102240001EE1B84D049B2800996808220131163020
:10225000FEF70AFA049807F0C7F9210004AAB44867
:10226000FFF708FF041E00D00AE1049883685A783B
:10227000AA73DA78997812020A432A821A79EA73E1
:102280001A7AD97912020A436A825A799B791B0217
:102290001343AB8207F0A8F9210004AAA548FFF771
:1022A000E9FE041E00D0EBE0049B06229968681C3E
:1022B0000131FEF7D9F904982C7007F095F9210047
:1022C00004AA9D48FFF7D6FE041E00D0D8E02800DF
:1022D000049B402299681E300131FEF7C5F904982D
:1022E00007F082F9AB7E5B0600D457E1210004AA17
:1022F0009248FFF7BFFE041E00D0C1E02800049BF7
:102300000822996878300131FEF7AEF9049807F099
:102310006BF9AB7E9B0600D49AE02B003A331B7816
:102320001B0700D5AFE008218548FFF773FE041EA8
:1023300000D193E00821401807F08CF92B004033BE
:102340001A7806231A40043B062A01D18133FF3351
:10235000002203701B0A43708270C27002714271C6
:102360008271C27121007648FFF784FE041E00D0FE
:1023700086E008217348FFF74DFE061E6ED0082147
:10238000083007F067F9802302274370603B047030
:102390008470047144718471C770C371220031006C
:1023A0006848FFF767FE041E6AD1010004AA664868
:1023B000FFF760FE002826D1049807F015F904AA5B
:1023C00021006248FFF756FE00281CD12800049B1C
:1023D0003A0099685F300131FEF746F9049807F03A
:1023E00003F904AA21005A48FFF744FE00280AD145
:1023F0002800049B5E30996801220131FEF734F910
:10240000049807F0F1F80722002102A8FEF756F918
:10241000072202A92800FEF714F9002857D14D4ED3
:102420003368002B60D12B00012460331B782342DA
:1024300000D097E02800FFF7D2FE041E20D13368B9
:10244000002B5AD05E682A0007230100B04754E0F1
:1024500002214148FFF7DEFD061E02D13724644207
:102460000EE00221083007F0F5F8012344700370F4
:10247000220031003848FFF7FDFD041E00D14CE773
:10248000200007B0F0BD04AA00213448FFF7F2FD98
:10249000041EF5D104988268531C597852780902B9
:1024A00011439A781C7912041143DA7812060A4310
:1024B000597909020C439979DB79090421431B06F8
:1024C0000B43290080310CC107F08EF82BE707225F
:1024D000234904A8FEF7C8F8072204A92800FEF73C
:1024E000B0F800289BD0CBE700211C682A00072306
:1024F0000800A047072800D095E72B78012B4BD187
:102500003F22AB799343C02B46D1681CFFF7F4FD03
:10251000041EB5D128000421703008F0AFF9AFE7F0
:10252000030C000010220020AC000020031000006B
:10253000011000000910000002100000032000003C
:1025400001200000010C000001FC000002FC000062
:1025500003FC0000D40C00206D0C00001C200000C7
:1025600030AC000001AA00210D48FFF783FD0028D0
:1025700000D05FE7019881684B78002B09D00231C9
:10258000681C06222C70FEF76FF8019807F02CF8F3
:10259000B3E707F029F84DE7162460E713245EE758
:1025A00009FC000010B5FFF72BFE041E07D10748F9
:1025B0000221703008F062F92000FFF7FFFD044BA4
:1025C0001B68002B01D02000984710BD102200206E
:1025D000A8000020F0B5057D87B00400012D3FD193
:1025E00087683B780E3B012B3FD862B6042002DFA0
:1025F00011214A4FA66870374942380008F049F95E
:102600003378002B08D1711C40224548FEF72CF886
:102610002900380008F032F9424B1D68002D05D121
:10262000200006F0E1FF002007B0F0BD0020327866
:102630002B68824200D1701C98476D68EEE73A4DD6
:10264000A2682B68002BEBD000201178814200D1CA
:10265000501C984700232B60E2E7FEF705F837E0AF
:1026600006F0C2FF16204042DEE7060008360221CF
:10267000300007F000F83B783E2BD1D1A768290045
:10268000300006F0F8FF3D78082DB1D0092DD6D0E6
:10269000022DC5D1300006F0F6FF0090009B002B04
:1026A000BED0A5680921300006F0E5FF2B7A691C31
:1026B000EB185B7A072201936B7804A8023B012B8D
:1026C000CBD8FDF7D1FF04AB1B7804AA023B1370F3
:1026D000164F3B68002B17D0300006F0DCFFA389B3
:1026E000029003932B7A0421A3816B462A785956D2
:1026F0003F68330004A8B8476B4622691B89D3188A
:10270000A3606B469B89A381297A3000013106F0D2
:10271000B2FF009B013BDBB20093BFE71022002019
:1027200064000020A400002060000020AC00002015
:10273000F8B5037D04008668012B02D062B6042040
:1027400002DF8389012BF9D933780E3B012BF5D8B1
:10275000050008350221280006F08DFF33780E2B86
:1027600005D00F2B19D0200006F03EFFE6E7A36846
:10277000032128001E7806F07EFFA3682100187848
:10278000FFF70EFC002E03D00A48883007F07CFCCF
:10279000200006F029FF0020F8BDA6680421777804
:1027A000280006F068FF30782100FFF7F9FB002FC2
:1027B000EED0E9E710220020094AC4321368002B4A
:1027C00008D18168002908D0C168002905D01060AF
:1027D0001800704745204042FBE71620FBE7C04643
:1027E0001022002070B50500054806F0E3FE041E27
:1027F00004D00021083006F0E5FE2575200070BDEC
:102800002C25002010B50100EFF3108272B60020D5
:102810000B4BA0331C681860824200D162B6002CBA
:1028200009D00123002120002375A181083006F082
:10283000C9FE200010BD0120FFF7D4FF0400F8E717
:102840001022002073B51400032205001860C31D78
:10285000601E80B2484393431C800E00281801324A
:102860000021FDF72BFF023C084BA4B29C4200D193
:1028700073BD601C70432B18801B2818042201A90B
:102880000193013CFDF7F0FEEEE7C046FFFF0000BC
:10289000F7B505680600002D11D00327EB1DBB43DB
:1028A0001C880422290001A8FDF7DEFE019B013CE3
:1028B000A4B2002B02D0DA1DBA4314803360280082
:1028C000FEBD0B6870B505000C001E1E03D0032270
:1028D000073393431E88280004222100FDF7C4FE1D
:1028E0000322EB1D013693431E80256070BD4A43D1
:1028F00080187047401A10B580B21100FDF764FCD3
:1029000080B210BD10B5064B8918013A92B29A42B6
:1029100000D110BD01390C7804700130F5E7C046D4
:10292000FFFF0000106008607047136818601368AC
:10293000596010607047884204D0002A01D0436873
:10294000136070470020FCE70B6883420AD0002A1E
:1029500004D0586810601A680A6001E0002BFAD1B0
:10296000180070470023FBE7F7B504243026013C2C
:10297000E4B2FF2C18D033006343A7000193042571
:102980000DE00C216943019B0848C918084B0A1D3A
:102990009A1859187B19DB00C018FFF7C3FF013DD7
:1029A000EDB2FF2DEDD1E2E7F7BDC046B00000204B
:1029B0003001002070B5104D0C243026002A0DD0B7
:1029C00023004E4343439B19EB181D7A5C7AAC42BB
:1029D00001D101341C7206F0CFFC70BD44434E435C
:1029E000A4192C19A27AE37A9342F6D10133A37287
:1029F00006F0EEFCF1E7C04630010020F8B5060015
:102A00000F001C00002A14D00121032263782578CE
:102A1000ED1A15402BD0002922D00120854207D085
:102A20001B18DBB223703900300006F0D1FC002007
:102A3000F8BD06F0BEFC0028E6D03900300006F0F4
:102A4000AAFC0028E0D00C23302273437A439B1861
:102A5000124AD3189A7AD97A511A4A1E9141D4E768
:102A60000233DBB22370E368A0689847DFE70029F0
:102A7000F9D00133DBB2302223700C237A43734345
:102A80000432D218054B21009A186068FFF74DFFF9
:102A90003000390006F09CFC2800C9E73001002016
:102AA00030231A00F0B5424389B005920022040099
:102AB0000426029203920093013EF6B2FF2E0BD140
:102AC000039B002B77D0029B002B74D11A002100AE
:102AD000200006F051FC6EE000230C250793009BBC
:102AE00075436343354FEB18F918D85907AA49685D
:102AF000FFF721FF059B0190ED187B190493019BC3
:102B0000002B1BD10C230099734361432B4A5B18A4
:102B1000D318997AD87A884202D0D97201230393C4
:102B20000C230099734361435B18D3181A7A597ABE
:102B30009142C1D05A7201230293BDE70321079B42
:102B40001F785A78BF1A0F40012F04D1013A5A70EA
:102B50009868DA6890470322079B1D785B78EDB28E
:102B6000EB1A1340012B0FD00C23009A73436243DE
:102B70009B18124A0499D31858680022FFF7E4FE04
:102B8000079B019A5D705A600C23009A734362435D
:102B90000A489B18C11807AA49681858FFF7CBFEC6
:102BA0000190012FABD1002E01D10028AAD0210025
:102BB000200006F00DFC09B0F0BDC0463001002039
:102BC00002004118002010B58A4200D110BD1478CF
:102BD000002C01D10132F7E7631E01301C40C0B266
:102BE000F6E72823F0B5457F00242A009C460668B6
:102BF000FF2A01D10020F0BD63465343F3181F782C
:102C00008A4204D09B681500E4183A00F0E7954228
:102C100000D147772822554319789868A9551B7821
:102C2000FF2B04D05343F3189A6812189A602018A7
:102C3000E1E7531A70B5846845691E0209D41B0286
:102C40001B0A1B19AB420ED95B1B00254561836033
:102C500070BD8B1A1B021B0A9C4201D9E31AF1E7D3
:102C6000ED1800232D1BED1A0023EFE703000022CF
:102C70001A709A6A10B508005962002A01D0D96A00
:102C8000904710BD0123F7B5867F0400C377002E5F
:102C900003D1437FFF2B01D1C677F7BD05F09AFE24
:102CA0006369677FC51A2D022B0A0093236801937D
:102CB000FF2F07D028235F43019B009AD9198B6807
:102CC0009A4217D2A27AE37A934205D10133DBB25A
:102CD000022B00D10023E372E37A656A02339B0082
:102CE000E3185E6000230122E37704212300032020
:102CF000A847D2E7009AF618D21A00928A784B7841
:102D00000F789B1ADBB2012BD2D1CB68013A8A70C3
:102D10001D1ECDD04B69CA8BF01A6369C018000222
:102D20000B69000A496AA847C2E70000F0B5C27FF4
:102D300097B00700002A00D080E001238377436921
:102D40000893837AC17A994200D179E00133DBB2EA
:102D5000022B00D11300BB7202339B00FB185B688F
:102D60000093009A089B9B181B021B0A7B6101239E
:102D700003937B7F05933B680D937B680E937B7A6F
:102D8000013BDBB2049300230C93FF330193049BBC
:102D9000FF2B58D17B7F059A9B1A5A1E9341DBB2B9
:102DA0000B93039B002B16D03B68079300230293E1
:102DB0007E7FFF2E0AD028247443079B1C19A56828
:102DC000009B9D4200D821E1ED1AA560059BB3420E
:102DD00001D0039B0B933B680E937B6812937B7A25
:102DE000013BDBB20693069BFF2B00D059E17B7FB2
:102DF000059A934200D021E30C9B002B07D17B68FE
:102E000003937B7A013BDDB2FF2D00D087E20023E4
:102E1000BB770B9B002B08D07B7FFF2B00D0D3E22E
:102E200005F0C2FD002800D1B861FB7F002B05D062
:102E30007C6A3B00012203210420A04717B0F0BDAB
:102E40000392009295E7049B0E9ADB00D31802933D
:102E50005B680F93029BDA78029B9E78964200D1C2
:102E6000CFE0302575430F9B02995D190978731CDB
:102E7000DBB2994200D1002302998B702B78032B8F
:102E8000EAD9052B16D8282469780D9A4C431419D1
:102E90006278A078121AD2B20692002A0AD0042BC5
:102EA0000DD16B68002B0AD1AB68002B07D1EB6802
:102EB0001B0204D101212800FFF7D8FECAE7069BB8
:102EC000012B00D093E03800FFF78BFE2B78060033
:102ED000A060042B00D07FE07B69099305F07AFDA8
:102EE000099A0A90801A0002009B000AC0188642C4
:102EF0003AD9301A63689C46002B12D0AB89002B5C
:102F00000FD0013B9BB207936B469B8BAB818445F3
:102F100030D3D34EE18B079B8B4248D86B469B8BBB
:102F2000A383AB8862691818A060EB880999D3184D
:102F300063610A9A2000FFF77CFEA2692B899B1827
:102F4000A3616A89934245D99B1AA361AB7B002B8D
:102F500000D0E3706B461B7923706B780193637824
:102F6000013363700021A6E763699E1B301860611E
:102F70000020BFE7E38B0B930B9A079B9342C8D2C9
:102F8000666AB84971180B001A00B54B00219A42C5
:102F900003D9B54B0699F6186662636A266A0B9ADE
:102FA0009E1B6144013A6662401AE283AFE7636A9E
:102FB000226A9A18AB4BD318B34206D96262002238
:102FC000624401318018E183A4E7A84BD218626201
:102FD000069AF5E70023B8E7A37863703A7F6B7829
:102FE0009A42BFD1FF233B770023BB61BAE704219C
:102FF0003B00012208007C6AA047029B9E700123CF
:103000000C93049B013BDBB20493C0E6029B5B196B
:103010000293BB699D4237D25B1BBB61A369002B46
:1030200001D03E77BB6100222378A2607B77606885
:10303000904232D0A38B0693894B9C46216A636AE7
:103040005B1888495918614522D9636200231B180F
:10305000D218069B013B0693F0D2089BA260029A0D
:1030600079699A182000FFF7E4FDA38BE38300231E
:10307000E3706B461B792370637801336370009BA8
:1030800001965B1B009393E6FF233B770023C4E785
:1030900076495B186362039BD9E7A378019E63704E
:1030A000EDE7069B129ADB00D31807935B68139336
:1030B000079B5B780393019BFF2B00D183E02824BF
:1030C000019B5C430E9B1C19019B02932378019387
:1030D000002300933B6800211493FF23A28B2370ED
:1030E000E38B0F91934202D99B1A9BB20F93282333
:1030F000029A534315933B68BA699C46159B6344F7
:1031000008939E687B7F0992FF220D930A92FF2B02
:1031100006D028225A4362449068864200D9ABE028
:103120001D00089A92691092B018FF2D00D0B1E0EE
:10313000109A002A06D0099A964200D2C3E0FF2DC9
:1031400000D081E1089A966013700D9A934200D0E6
:10315000B1E06A46127A7A77FF2B05D028225343D2
:1031600063449A68921B9A600021A37801336370CC
:10317000009B002B9FD01800FFF778FD9BE73023C2
:10318000039A5343139AD3180093039B0133DBB282
:103190000393079B039A1B78934201D10023039367
:1031A000009B1B78032B0ED12824009B5B785C438B
:1031B00002930E9B1C196278A3789A420AD00121CF
:1031C0000098FFF753FD079B039A9B789342D6D153
:1031D000069B05E60025009B7969DB68200063609B
:1031E000009B1B6908932362009B9B8AA383009B1F
:1031F0009B69A361009BDB69E360009B1B6A236101
:10320000009B9B6865610893A360009B5A68FFF769
:1032100010FD01236562E583E3705BE76368002BC3
:1032200000D17AE0216A626A52180E4950180C499E
:10323000884210D962620022A1685B189B18E28B59
:10324000A3600132E28362690021934210D99B1A84
:10325000A36061614FE70549521862620122EBE702
:10326000592B177F5A2B17FF4AA9D101B6562EFEAC
:10327000D31A6361A1603EE79569361A002D07D124
:103280000999884200D20D1A0D93099513783EE7EB
:103290000A93F9E728226A436244916811918142B6
:1032A00007D29169002900D042E711991578401A98
:1032B0003BE7049D3CE728210D9A68464A43614656
:1032C000007A505448E7029B0A9A934200D14BE798
:1032D0000A9BFF2BA2D01D0028266E43149B0022C0
:1032E0009E19F38BB18B8B4201D95B1A9AB273682A
:1032F000002B93D00F9B9A4290D8F278E3789A42B1
:103300008CD229003800FFF76CFCB378B060737082
:103310006B461B7901953370EDE6012128E7039B8D
:10332000EC001C19636804936378E2789A4202D136
:10333000013DEDB268E530225343049AD3181A7860
:10334000012A26D0022A2BD15A68D96894460091C6
:1033500039689A68019161460978FF2904D010689C
:1033600006007869864224D07869797F106000224F
:10337000FF290AD028204843019E3018866802960B
:103380008669002E1CD002981218604601700099C0
:103390000A6000209A6A5862824201D0D96A904736
:1033A000637822780133DBB29A4200D10023637044
:1033B000BAE728204143009A01981268415CD7E798
:1033C000029952180178D3E7059BFF2B07D105F02E
:1033D00001FB040005F0D8FA002800D17C61282305
:1033E0000A267A7F53433A68D3189B68009305F006
:1033F000F1FA7B69009AC41A2402240A03340500F6
:10340000944200D214001C192402240A2000BB6A32
:10341000984705F0DFFA401B0002000A641B2402F3
:103420000330240AA04200D8FFE4013E002EDED182
:1034300062B6042002DF0023BB77EDE40C9B002B77
:10344000F9D101230B93DAE4029BAB4200D043E7AE
:103450008AE6C046F7B506002C2708AC01CC7743B6
:103460002578174C01903A51E019302701720199E3
:10347000437241600A99013BDBB2FF2B13D101205B
:10348000002D0FD12B3070430B9A201802620C9A3A
:10349000437742620D9A0377826285614561857246
:1034A000C5722800FEBD0198DA008218380051600C
:1034B000127850438446AD1A6144EDB2DBE7C04652
:1034C000F00100202C235843054B10B51B185C6AF3
:1034D000002C03D0012203210220A04710BDC046CA
:1034E000F0010020F7B52C2778431E4F0BAC3F1896
:1034F00024887868CD0045190194EC782878661CFA
:10350000F6B2864280410640687884460120B44580
:1035100026D02F304443686804196360089B032059
:10352000A360099B6270E3600A9B207023610C9B7F
:103530000800A3616B469B88A3820D9BE3610E9BF1
:103540002362022363620F9BA362109BE362EE700F
:103550003B6A7D6A98473B0000220421A847606AC5
:10356000FEBDC046F0010020F0B52C2687B09C4679
:103570000CAB1B88704301930DAB1B88214E02934B
:103580000EAB1B88361803930FAB1B88CD0004933A
:1035900010AB1B78059373685D19EC782878631C71
:1035A000DBB2834280416F78034001209F4227D0E5
:1035B0002F30444368680427041962706246A28071
:1035C0006A4692882770E2806A4612890800228142
:1035D0006A46928962816A46128AA2816A46127D8F
:1035E000A27302226262119AA262129AE262EB70E4
:1035F000336A756A9847330000223900A847606A29
:1036000007B0F0BDF0010020F8B52C277843144F27
:10361000CD003F1878684519E8786C78461C8446D8
:103620002878F6B28642804106400120B44216D086
:103630006046302444436868041962700520022201
:10364000A362069B20706262E362EE7008003B6A30
:103650007D6A98473B0000220421A847606AF8BDB4
:10366000F0010020F7B52C277843184FCD003F1804
:10367000786801934519E8786C78461C8446287868
:10368000F6B28642804106400120B4421CD060461A
:103690003024FF2344436868041902206370019BAF
:1036A0006260A360089B2070E360099B6062A36274
:1036B0000A9B0800E362EE703B6A7D6A98473B0014
:1036C00000220421A847606AFEBDC046F001002028
:1036D000F7B52C277843154FCD003F187868019334
:1036E0004519E8786C78461C84462878F6B28642FC
:1036F000804106400120B44216D0634630245C432A
:103700006B681C192070019BFE306070FD38606290
:10371000A262E362EE7008003B6A7D6A98473B0054
:1037200000220421A847606AFEBDC046F0010020C7
:1037300070B52C246043054C2418236A0800656A80
:103740009847230000220421A84770BDF001002003
:1037500010B505F03FF910BD401A0002000A70478D
:10376000020010B508000023012A0BD8064C9A422B
:1037700000D1064C2300002804D006222100FCF7CB
:1037800073FF2300180010BD4E02002048020020E5
:1037900070B506000D0004F065FA041E02D00C247A
:1037A000200070BD04F072FA06221042F7D1290001
:1037B0000348002E00D10348FCF756FFF0E7C0464F
:1037C0004E02002048020020002303700B70704757
:1037D000F8B5012706000C007F42002C01D1002023
:1037E000F8BD094D3900280006F004F92000310029
:1037F00005F0D2F90400280006F05EF9002CEED0A6
:1038000020BF40BF20BFE8E7E824002010B50248F1
:10381000FEF7D2FF002010BD28B1000010B583894B
:103820000400002B0DD0037D002B0AD100F078F9A5
:10383000002801D0FEF77CFF200005F0D5FE002017
:1038400010BD16204042FBE737B501256D42290027
:10385000194806F0FBF9041E25D000F003FDC3B2A1
:103860000194022B22D80021012801D02900012037
:10387000FEF7B8FF041E03D00100019800F01EFC03
:10388000019B0021D88804F0CFFA0022019B01A8F7
:103890001A6004F065FA002C05D0A3892000002BE3
:1038A00007D0FEF797FE06F06FFBD0E762B6042064
:1038B00002DF05F099FEF6E7FC24002013B5012491
:1038C00064426B4601A8991C04F010FA0028F8D154
:1038D000019B002B06D004F085FC0199044806F0FA
:1038E0008EF9EEE72100034806F028FCE9E7C04620
:1038F000FC240020D024002010B5144886B004F029
:1039000015FD041E1FD100F0CDFC0A23E0225B420E
:10391000039352000E4B0F490594049402940194B2
:1039200000940D4806F0DAFD082380225B420393E1
:1039300005940494029401940094084BD200084921
:10394000084806F0CBFD200006B010BDD0240020B2
:10395000BD38000018100020380D00204938000044
:10396000D8110020D80C0020030A0870000C8870C1
:10397000000A4B70C870704770B508300D00022106
:10398000140005F067FE0570447070BD70B504004A
:1039900001200D004042FEF735FFEA1C2060D2B244
:1039A0000E21FFF7E9FF20680321083005F052FEE1
:1039B00001230370054B29001A785B7842708370ED
:1039C0002068083005F046FE70BDC0465402002055
:1039D00070B50400150001320E00D2B208343E2149
:1039E000FFF7CAFF0121200005F034FE2900067010
:1039F000200005F02FFE70BDF8B51400104A070036
:103A000052680E00920014D508250E4A12682A4208
:103A10000FD00B2204211800FFF7DAFF4470EC40AE
:103A2000077084700330002F04D1311D2A00FCF789
:103A30001BFEF8BD2A000021FCF740FEF9E7C04656
:103A4000D8220020E022002070B503788AB004005C
:103A50000E0007AD032B21D81800FCF797FB0219C5
:103A60001B1D11492800FCF7D7FD6278A379049249
:103A7000A27805950392E2781B2102922279300008
:103A8000019262790092094AFDF70AFB0AB070BD03
:103A90000749E7E70749E5E70749E3E7074A0A2156
:103AA0002800FDF7FDFAE0E743B100006CB100002B
:103AB0004AB1000051B100005BB1000065B10000E7
:103AC00010B583788AB09B0611D0C378DB070ED57A
:103AD000037801AC5B06DB0F23706B46011D0622E9
:103AE000581DFCF7C1FD03A92000FFF7ADFF0AB088
:103AF00010BD03005A7800781202024398781979B1
:103B000000040243D878000610435A7912020A438F
:103B1000997909040A43D9790906114370470000CD
:103B2000F0B5002699B00D9681890500022902D8CA
:103B3000002019B0F0BD8268C04C537810781B0289
:103B40000343238093788B42F2D828000321083066
:103B500005F091FD23889C05A40D9B0A042B59D0E8
:103B600007D8032B19D001210DA8FFF70FFF012360
:103B7000DAE0082B00D1BDE03F2BF4D1601E09280C
:103B8000F1D8FCF70DFBAD01C301D801F0FFF0FF48
:103B9000F101F0FFE301F6012802032C13D008D84D
:103BA000012CE0D1A868FFF7A4FFA54B186059606D
:103BB00003E02D2C15D0632CD5D101210DA8FFF7E2
:103BC000E5FE067024E001209E499D4B40421860AE
:103BD00059601F2000219C4B1860596003F0E0FFE2
:103BE000EBE7AB6804215C781A7824020DA8144333
:103BF0009E78FFF7CBFE31000500C21C200004F0C8
:103C000069F8431E98416C704000240A2870AC701B
:103C10000D988EE7601E0828A5D8FCF7ADFA0518A8
:103C200052A4A4A4A4A4600009210DA8FFF7AEFE2D
:103C30000023092203708370C3700F3B4371143358
:103C40008371063B42700271C3710372E0E7412148
:103C50000DA8FFF79BFE00210400017040220130F7
:103C6000FCF72CFD8023E2785B421A43E27040228D
:103C7000A17952420A43A2710422E17AE07B114306
:103C8000E17228210143E1730221207CA67E0143D9
:103C90002174E17D207F0A43E2753D2252421043A8
:103CA00020770820617FE57E0843092149422A43A5
:103CB00031436077A176E2760834E27F1343E377FD
:103CC000A6E709210DA8FFF761FE0021040001709D
:103CD00008220130FCF7F2FC6023637198E70721AA
:103CE0000DA8FFF753FE0100002008700131FFF717
:103CF00037FD8DE70A2C00D1E4E028D8052C00D14F
:103D000080E013D8022C5FD0032C69D0012C00D0A6
:103D100029E7A868FFF7EDFE4B4B186059600121B9
:103D20000DA8FFF733FE0023037071E7072C00D1C5
:103D300049E100D2A5E0082C00D1BDE0092C00D05B
:103D400011E7AB68591C187804F0D4FCE7E7122C93
:103D500070D010D8102C60D068D80F2C00D002E79B
:103D600002210DA8FFF712FE00230370040004F0E7
:103D70005DFD60704CE7182C68D015D8172C00D06A
:103D8000F1E6A868002301000EAA103104F062FFDA
:103D900011210DA8FFF7FAFD002310220370013056
:103DA0000EA9FCF761FC33E71C2C5AD04B2C00D039
:103DB000D9E603210DA8FFF7E9FD0023811C03705C
:103DC0000130FFF701FD23E704210DA8FFF7DEFD19
:103DD00000231B210370837002334170C37017E707
:103DE00009210DA8FFF7D2FD00210400017008226F
:103DF0000130FCF763FC0C2363703433A3703F3B4A
:103E0000E37005E7A9680120FFF7C2FC0400012167
:103E10000DA8FFF7BBFD0470FAE601210DA8FFF71E
:103E2000B5FD040004F004FD2070F1E6A86804F07C
:103E300015FDEBE7A86804F047FDE7E75402002012
:103E4000D8220020FF1F0000E022002009210DA839
:103E5000FFF79CFD0023082103700130FFF7B8FC39
:103E6000D6E609210DA8FFF791FD0025411C0400AD
:103E700005700320FFF778FD2800611DFFF774FD32
:103E8000C6E6A9684A7808781202024300200B7936
:103E90000A90099008900790069005908C7B0494F6
:103EA0004C7B0394CC1D02948C7901944979009148
:103EB000010004F0CDFAA9E7AB68591C187804F0AA
:103EC000C1FB2CE7AB68187804F050FC012104001A
:103ED0000DA8FFF75BFD002C00D172E60C2670E602
:103EE0000D210DA8FFF752FD022100230122417090
:103EF0000B2103708370C270037143718271C171B1
:103F0000037243728372C372037381E641210DA869
:103F1000FFF73CFD00210400017040220130FCF756
:103F2000CDFB592362785B42134363700323A2786D
:103F30001343A3706CE609210DA8FFF727FD0021AC
:103F4000082201700130FCF7B9FB61E627224E49D7
:103F50000EA8FCF789FB28210DA8FFF717FD002309
:103F60002722037001301BE7A9680020FFF710FC2F
:103F7000D5E6464E3368013305D1454B454A1B68AB
:103F80009BB293421FD00127434B1B683B421AD080
:103F900018210DA8FFF7FAFC0025040005704770F2
:103FA0003068A61C3100FFF7DFFC40222000384BB0
:103FB00052421B680830A3719BB21B0A1343E37182
:103FC00050322900BFE702210DA8FFF7DFFC0023D4
:103FD000037043701CE621210DA8FFF7D7FC0023D6
:103FE0002E4A037011680400431C013141D02C4F4C
:103FF000396801313DD02B4E3168013139D02A4D1D
:104000002968013135D010681900FFF7ADFC386818
:10401000611DFFF7A9FC210030680931FFF7A4FCFE
:10402000210028680D31FFF79FFC23001F4A113340
:10403000D16F013123D01E4FF96F01311FD01D4EBA
:10404000316801311BD01C4D2968013117D0D06F68
:104050001900FFF789FC2100F86F1531FFF784FC88
:10406000210030681931FFF77FFC210028681D31DD
:1040700004E7102200211800FCF720FBD5E71022EE
:10408000002118005FE7C0468FB10000A4000010B7
:10409000A8000010FFFF0000A0000010900000101A
:1040A00094000010980000109C0000100400001004
:1040B00008000010880000108C000010F0B5070008
:1040C000040000798DB00E000837012800D188E087
:1040D0000238032800D9BEE0FCF758F8024C4C58CF
:1040E00001220025042105AB5A7002329A70FC327D
:1040F0005A71DA70FD3A19719A711D70574B5B68ED
:104100009B0035D5564B1B68134231D00F23227AC2
:104110001A40637A012A01D09D1FEDB22A00E318EC
:104120009B7A0B325B425BB2D2B202213000019328
:10413000FFF74EFC012321000370237A05AA1B0719
:104140001B0FD35C06004370237A0A315B06DB0F3A
:10415000837006220330FCF787FA390075720A363D
:1041600008312A003000FCF77FFA6B461B79735543
:104170000DB0F0BD0F22237A1340072BF8D1637ADC
:10418000002BF5D03800FFF79BFCF1E72500334BFF
:104190000A355B689B0003D5314B1B685B030FD46A
:1041A000237A03AE5B06DB0F337002AB29000622D5
:1041B000581DFCF759FA05A93000FFF745FCD7E771
:1041C000082213213000FFF703FC00230370237A39
:1041D00006225B06DB0F437029000230FCF744FA2D
:1041E000C6E7E17AE58809290BD00C2910D0072908
:1041F00031D1237B0E2BBBD133002A0000211A20A2
:1042000003E033002A0039000020FFF7F5FBAFE799
:10421000124B1B681B05ABD508223000FFF7ACFB27
:1042200030000821083005F015FA00230370237BC5
:1042300045702D0AC3708570A37B627B1B021343FC
:1042400003711B0A4371237CE27B1B0213438371BE
:104250001B0AC3718CE762B6042002DFD82200205B
:10426000E02200200379012B12D00A2B18D801225A
:10427000110099400B00B021C90002200B420ED161
:104280003C2110000B420AD19B099843404206E0B2
:104290000323007A18400338431E984102307047C8
:1042A0000120F3E70120054B0549404218605960A1
:1042B0001F200021034B186059607047D82200204E
:1042C000FF1F0000E022002020BF40BF20BF70473A
:1042D00070B506000D0088B001AC1A220549200017
:1042E000FCF7C2F9A05D401B43425841C0B208B080
:1042F00070BDC04637AC000008607047002804D18C
:1043000080230A681B0613430B607047002803D103
:104310000B685B005B080B607047F0B50200461D40
:1043200001270020B24200D1F0BD04001578083406
:10433000E4B2A04201D10132F4E73D4203D00029AA
:10434000F2D00139C9B20130C0B26D08F1E7000006
:104350009B23362130B50D4A5B00FF31D35C545CA2
:10436000A3420CD3545C1B1BDBB20024984204D83C
:10437000535CFC32526B9B009C58200030BD9A2548
:104380006D00555D545C5B19EDE7C0465802002096
:10439000F8B5030007005C335D371B783D780400F7
:1043A00001209D4228D1637F00187F2B24D8230051
:1043B000012670331E700023E3662300A08C623355
:1043C0001880E28CFA215A80E38D890058437D23BE
:1043D0005843FBF747FF2300220003216633188070
:1043E0000020603213785E348B43334389190B43CA
:1043F000013D137026703D70F8BD0000F0B50C78DB
:1044000085B00190029103920025944239D0204E4C
:10441000E300FC36B26E9B5A0380B26EE300D31801
:10442000019A11881A88914229D1586801280DD91A
:10443000032102008A4327D0021D25D04279002A99
:1044400022D002790A40013A012A1DD80122AD1872
:104450005A60EDB2032302000D4F9A4304D0390095
:104460005931FF31FEF72DFAB4235B000134FB5CB8
:10447000E4B2A34200D10024039B9C42CDD1029B15
:104480001C70280005B0F0BD02225A60E2E7C04669
:10449000580200200A4B10B51A00FF32527B04006C
:1044A00082420BD98221FC33020049009868FEF752
:1044B0001EFA002802D0038CA34200D0002010BDB9
:1044C000580200200223F0B589B004000F000493C5
:1044D00005280FD0062800D190E000D88BE00738DF
:1044E00080B2FFF7D7FF002800D1DFE00368039315
:1044F00043688AE06E4B00205A699B6903920293DD
:1045000004AB00930A006B4B0321FFF77DF80228F0
:1045100069D0049B002B6AD1654DA87BC0B20028EE
:1045200069D10223634EAC73049304AB0093220061
:1045300033000321FFF768F8022800D167E0049BED
:104540005B4D002B48D12B7B9C4202D06B7B9C4265
:104550003DD102230022059305AB009303213300D4
:104560001000FFF751F8022807D10122110080182E
:10457000FEF720FA059B022B3DD00598002862D15A
:10458000022306932B7B002B35D006AB2873012228
:10459000009303213300FFF737F8022807D10122E7
:1045A00011008018FEF706FA069B022B23D006990D
:1045B00000293BD1039B029A5B005B089A4240D9D9
:1045C0003D4B0A000320FEF719FA002813D1AB7BFC
:1045D000002B01D1013304930023AB73049809B07D
:1045E000F0BDFFF771FE049B022BFAD091E7049B0C
:1045F000012B00D190E762B6042002DF2C4B1A0099
:10460000CC321268D0331B680392029384E76B7B31
:104610009C4204D1012203201100FEF7CBF9049B38
:10462000022B00D08BE7FFF74FFEF8E7069B012B2C
:10463000E1D10022204B11000320FEF7DFF9011E1B
:10464000D9D11E4BBDE7059C012CD4D1FF2F19D029
:104650000223079307AB00933A00330003210020A5
:10466000FEF7D2FF022807D1220021000130FEF719
:10467000A1F9079B022BBED0079B002B02D0079B02
:10468000012BB8D1EB7B002BA1D004220C4B0320D3
:104690009A6000221100FEF7B1F90028ABD1EB7B44
:1046A000002B00D193E7FFF70FFEF8E7012096E714
:1046B00058020020F942000018230020A8230020FF
:1046C00058230020F0B58FB01F0009920B1D172250
:1046D00000240893FF2306A95218079013703C602A
:1046E0000C9406930594022317250D9306ABED1841
:1046F0000DAB0293364B2A0001930CAB0093079944
:10470000099B0020FEF7AEFF022809D00D9B002B6D
:104710000AD062B6042002DF07990020FFF708F8EC
:104720000D9B022BF8D0F1E72A78FF2A4CD0062AFD
:10473000D9D9284B1900FF31497B07318A42D2DA97
:104740008221073AFC3392B249009868FEF7CFF80D
:104750000028C8D0437F7F2BC5D803680C9E4268D1
:10476000002B15DA5B005D088368934200D21300CA
:104770009E19761BC36804335D19069BFF2B0CD171
:10478000172306AA9B181B782C0006930596AAE708
:1047900015009A42EED21D00ECE705993000FEF7B5
:1047A000DBFF089BE3189842EAD9059B0A4A1819CF
:1047B00000210723FBF7D8FD084A0023FBF7B4FDCF
:1047C000803038600FB0F0BD069BFF2BEDD1F9E7CC
:1047D000F9420000580200208D49FD1A00CA9A3B98
:1047E00070B504780A786506ED0FD209002395426A
:1047F0000DD10F3308311C400E00851C012C08D050
:10480000062231002800FBF71CFF434243411800F9
:1048100070BD06222800FBF714FF0028F0D123000A
:10482000F5E7000010B5BA2176240B4A4900FF34A1
:10483000535C145D9C420DD1535CB4335B00D318C0
:10484000D880535C0133DBB2032B00D10023BA21A3
:104850004900535410BDC0465802002010B5054B06
:104860001B7C002B04D0012100220800FEF7A2F8D7
:1048700010BDC0465802002010B50C0006280AD909
:1048800082210B4B0738FC3382B249009868FEF74F
:104890002EF8206010BD052803D0062804D0002083
:1048A000F8E703481430F5E70148CC30F2E7C0469A
:1048B000580200200022094B10B51A70084B904294
:1048C00002D0012806D1103300221100FEF796F81D
:1048D000002802D062B6042002DF10BD5C04002074
:1048E000B823002070B50D0000210400080004F07A
:1048F00023FA2300A8331B780122DB060CD51F21E5
:10490000082004F067FA20002A00A930002104F0F2
:1049100075FC04F085FA70BD08201B2104F05AFADA
:104920002800F6E770B50D0000210400080004F02F
:1049300003FA2300A8331B7801229B060BD51F2105
:10494000082004F047FA20002900CA3004F094FC43
:1049500004F06EFA70BD08201B2104F03BFA280019
:10496000F6E7000070B5154E05003300DD331A7808
:1049700003780C00D209DB099A4206D00223DD3607
:104980003078000918400BD170BD30002900DE30AE
:1049900006220831FBF755FE0028EFD10120F3E78E
:1049A0002B7800207F2BEFD93F226B7B9343402B4A
:1049B000EAD18442F2D001302070E5E758020020AD
:1049C00062B6042002DF000030B5036889B0002B16
:1049D00019DA456884685B005B08AC4200D22C00A1
:1049E00006900A481B1B059000209BB20193009380
:1049F0000490030003900290FEF7B6FD0223984353
:104A000001D0FFF7DDFF09B030BDC0460D43000007
:104A1000030010B59C3302001868002801D1FFF78D
:104A2000CFFF128C1972DA800722B6211A71084A58
:104A30004900515C45321970FF321900FDF775FFCE
:104A4000002802D162B6042002DF03F067FC10BD2B
:104A50005802002070B59B213624154AFF344900C6
:104A6000135D515C994201D1FFF7AAFF1100135D5C
:104A7000FC31496B9B005958B6239A255B00D35CE7
:104A800008680B70135D6D000133555DDBB29D420C
:104A900000D1002313554532FF32FDF746FF0028B1
:104AA00002D162B6042002DF03F038FC70BDC046BC
:104AB0005802002010B50120FFF74AFC041E01D166
:104AC000FFF77EFF01235B42C3800733037110228F
:104AD00000210B30FBF7F2FD3C23E372FFF7BAFF36
:104AE00010BD000030B53F4C85B0002804D0A37B3A
:104AF000052B74D0FFF764FF237B052B02D0637B6B
:104B0000052B64D102230022374D029302AB0093A0
:104B100001212B001000FEF777FD02280ED002982D
:104B2000002818D0029801281AD1E37B002B4ED020
:104B300004222E4B9A600022110044E00122110051
:104B40001000FDF737FF029B022BE8D10121002066
:104B5000FEF7EEFDF7E702230393237B002B02D140
:104B600062B6042002DF012203AB20731100009320
:104B70002B00FEF749FD02280FD00399002919D018
:104B8000039C012CECD10022194B11002000FDF7F1
:104B900035FF011EE4D1174B13E001221100100074
:104BA000FDF708FF039B022BE7D101210020FEF750
:104BB000BFFDF7E76369A2695B005B089342EAD235
:104BC0000B4B0A000120FDF719FF0028C8D1002275
:104BD000094B11000120FDF711FF0028C0D105B0DD
:104BE00030BDC04658020020F94200004823002092
:104BF0000823002098230020E8220020F7B51C009D
:104C0000019205001700273101AA0120FFF75AFD84
:104C10002368002B1DD0802301981B04C61B1E4057
:104C200001D0FFF7CDFE3900FEF796FD0B4A0723B2
:104C30003100FBF799FB0023094AFBF775FB23685A
:104C400018182060002804DB06486843236898424F
:104C500000D3F7BD1B1A2360F8E7C0468D49FD1A43
:104C600000CA9A3BE204000037B5030004006C332D
:104C7000A26FE168808CFFF7C1FF6B46E06E0549CB
:104C80009D1DFBF7A1FA290028800222606FFBF727
:104C9000EBFC37BDE204000010B50400262809D063
:104CA00027280ED00220252C05D00A2C0BD8A01CBA
:104CB000400000E01A2004F053F8200004F058F8F7
:104CC00010BD5020F7E7E01C272CF1D9FFF778FE44
:104CD00070B52D4C23002200743375321B78127886
:104CE0009A4207D00133DBB2022B00D1002322000D
:104CF0007432137023002200C433C5321B7812783B
:104D00009A4207D00133DBB2022B00D100232200EC
:104D1000C43213702300272574331B785D43263576
:104D20006519280004F084F80F222B781340022B19
:104D300020D0072B1ED002239620237404F076F98E
:104D4000002004F0E1F8631DDB7F00205B075A0FB1
:104D5000D3B219000125294211D007210534013BA6
:104D60001340E27F0B408A4313432530E377FFF77C
:104D700093FF70BD0323237404F0D6F8E3E70130FA
:104D8000C0B24908E7E7C0465802002070B5B62413
:104D9000B4250F4A6400135D6D000133555DDBB22D
:104DA0009D4200D100236C25FF35555D9D4201D108
:104DB000FFF706FE1500165DFC35AD6EF60070536C
:104DC000105DC0002D186960135503F0A7FA70BD7F
:104DD00058020020F7B50190019B002B08D06A26ED
:104DE000B522234DFF365200AB5DAA5C9A4200D13A
:104DF000F7BD2B00AF5DFC335A6EFF00D71982213F
:104E000000227C689868226049003A88FDF76FFDAF
:104E1000030038881A8C824221D119001A00F83117
:104E20000868FC32002806D1EC330C6019680029B0
:104E300001D11C6011601368002B00D01C6014604D
:104E4000B422AB5D52000133AA5CDBB29A4200D1BE
:104E50000023AB55019E013EF3B20193BCE7032250
:104E60002379210093432371FFF790FFE8E7C046C1
:104E700058020020F7B50122040011000020FDF7C0
:104E800099FD0021228C394F394B07320093D2B261
:104E90003B000800FEF7B8FB0226B04302D062B622
:104EA000042002DF334D2B7C052B17D1238C2A7B6A
:104EB00007339A4212D1304B28730122009301002C
:104EC0003B00FEF7A1FBB043E9D12C4B020000935D
:104ED00001003B00FEF798FBB043E0D1260027001D
:104EE000EC36F03731683B68994204D02300F83340
:104EF0001B6899421AD13068002804D02300F83387
:104F00001B6898421CD1002322003B600327F43227
:104F10001360316800291CD101235B4223847E3356
:104F2000FF33EA58944200D1E950F7BD03220B79D0
:104F300093430B710B683360208CFFF727FFCDE79D
:104F40002900036851313360FF313B60FDF7B9FC44
:104F5000D1E722000B79F832BB430B710B68336049
:104F60001360208CFFF712FFD3E7C046B15000005A
:104F7000082300005802002019230000202300000D
:104F8000C0B2031F10B5012B01D9FFF719FD084A64
:104F9000137C002B06D0043B012B03D9107403F0C3
:104FA00063FF10BD03F082FF0028F8D0F9E7C04688
:104FB0005802002010B50B4B002806D01A780120AB
:104FC000511C1970002A0AD010BD1878002801D190
:104FD000FFF7F6FC0138C0B218700028F4D103F0D6
:104FE0009CF9F1E70804002010B50020FFF7E2FF6C
:104FF00010BD0000002210B5044B11001000FDF799
:10500000FDFC002801D0FFF7DBFC10BD7823002059
:10501000002210B5044B11001000FDF7EFFC002832
:1050200001D0FFF7CDFC10BDF822002010B50028FC
:1050300006D0044BC9B29B7B994201D0FFF7C0FC5C
:1050400010BDC0465802002010B5002805D0034B03
:105050009B7B052B01D0FFF7B3FC10BD580200204D
:1050600010B5084B012807D19A7B062A02D10022ED
:105070009A7310BDFFF7A4FC1B7B062BF9D162B617
:10508000042002DF5802002010B5084B012807D188
:105090009A7B052A02D100229A7310BDFFF790FC7B
:1050A0001B7B052BF9D162B6042002DF58020020D9
:1050B00010B5002801D0FFF783FC10BD70B50500C6
:1050C0000320FFF745F9002823D001235B42C3806A
:1050D000114BDD331B785A0719D05B075B0FDAB22F
:1050E000012A04D0042A03D062B6042002DF03237D
:1050F000447A037104190A347F26002D02D003F08C
:1051000027FF06402670FFF7A5FC002070BD022394
:10511000EEE70120FAE7C0465802002013B504006C
:105120000D4B019303F0F8FD002003F011FE0B4836
:1051300003F0D8FD0121200003F0FEFD640001A86A
:1051400003F02AFEE2B22521082003F043FE0449C1
:10515000044803F0B5FE13BDD6BE898EDD600000A5
:10516000555555005B0600000022064B10B5110096
:1051700098601000FDF742FC002801D0FFF720FCEA
:1051800010BDC04638230020F0B516008FB00B9339
:1051900014AB04CB34681B780A900C930B9B0D91D5
:1051A0001F68002C03DA3C00974200D21400BC4276
:1051B00000D86EE000204D4B069008934C4B0490B5
:1051C00007934C4B03900593E31B009302900A9BBB
:1051D000019001220100FEF785F90223984302D0D5
:1051E00062B6042002DF030002000100FFF702FFA5
:1051F00000200D9B404D0200AB60404B0490089393
:105200003B4B03900793179B02900693169B0190CC
:10521000059300940A9B0100FEF764F9022398436A
:10522000DED10520FFF7A0FF2B00FC33DB6F9F4290
:1052300020D00B9A13603368002B02DA5B005B0806
:105240003360FC353168EA6FA3B28A4200D20A00AB
:1052500000202B4992B206912549029305910192B3
:105260000092049003900C9A0100FEF77DF902234E
:105270009843B5D1FF20FFF7ADFD0C9A214B0020DC
:105280009A6001221100FDF7B9FB0028A8D10FB0E8
:10529000F0BDBC421ED200231A0019001800FFF70F
:1052A000B7FE0020184B3C1B0893114B0690079348
:1052B000164B0490059303900A9B02900190009472
:1052C00001220100FEF70EF90223984300D087E780
:1052D0003C008DE700231A0019001800FFF798FE24
:1052E00000231A001900180080E7C0468515000049
:1052F000B15000001150000058020020B21500000B
:10530000E2150000D82300209A150000F54F000098
:105310007FB50B4C257BEDB2002D01D0FFF750FB84
:1053200005262300220026730395064D019602955B
:10533000E469183314320094FFF726FF7FBDC0469E
:1053400058020020C155000007B50520FFF70CFFEB
:105350000021064B052200930800054BFEF754F987
:105360000223984301D0FFF72BFB07BDA6180000CE
:10537000E54A0000F8B5A4231F4D5B00EE5C123B2C
:10538000EC5C023B0134EB5CE4B2A34200D10024AC
:10539000002E14D03623FF33EB5C9C420FD017480D
:1053A000FDF776FA071E0AD028002530FF30FDF7FA
:1053B0006FFA002804D111493800FDF782FAF8BDD0
:1053C0009B232A0007605B00EB5CFC32526B9B0066
:1053D00098509B235B00EC54023B0134EB5CE4B23D
:1053E000A34200D10024A4225200AB5C013E013B49
:1053F000AB54F6B2CCE7C04658020020940300201C
:10540000F8B5334C23002000FF335A7BFC30002AD0
:1054100043D0230082210933FF3392B249008068D0
:10542000FDF710FA23009722210026002533FC36D1
:105430005200FE31FF33A25CC98D706AFDF702FA9B
:1054400025009A2327005B00FF35E25C3D376B7B2C
:10545000FF37D21808213B00F06BFDF7F3F923006A
:105460005133FF3302222421306DFDF7EBF9B422D2
:105470002300AE215200A25C5933013A4900B06DBD
:10548000FF3392B2615AFDF7DDF93800FDF700FAFB
:10549000002804D162B6042002DFC260C2E7220005
:1054A000210045324131FF31FF32FDF73BFA38230D
:1054B0000634E27F1343E377FF23EB752B766B769D
:1054C000AB76E03BEB7606332B77FFF753FFF8BD67
:1054D00058020020034B10B51868002143681B6870
:1054E000984710BD58020020034B10B518680021E2
:1054F00043685B68984710BD58020020F7B5032742
:10550000012400920193484008260022030A1D004E
:1055100052002540013E2A43F6B2D2B25B08002E6B
:10552000F5D1C3B20820120212B21D007600254048
:1055300001382E43C0B2F6B25B080028F5D1112322
:1055400016435E43013F8E19FFB2B0B2002FDBD18C
:1055500041400E0025213000FAF77AFE009AC8B2C9
:10556000C308D35C072202401341234205D10199AD
:1055700000987143090CFEF7D0FEFEBD70B5140013
:105580000E000500FEF7E4F82100FEF7E5F8C41C64
:105590000020092C10D9094B1B78834201D0FFF75A
:1055A00089F9280032000021FFF70EFAAB680120CC
:1055B000E418262C00D8AC6070BDC0465C04002006
:1055C000F8B5274C0500E27BD2B2002A02D062B6C1
:1055D000042002DF237BDBB2052BF8D10127A61DB7
:1055E0006060F07FE7734007400F22736373FFF73B
:1055F00095FD0720F37F611DDB0803401A00CB7F78
:1056000083431343CB77FFF763FB3F22F37F93433F
:1056100007D0380003F000F9821C4178007803F0CD
:10562000ADFC2900A2680931012003F007FD03F059
:10563000BFFD20002A0014300521FFF79FFF00283E
:1056400004D00423237403F00FFCF8BD0300054AC3
:105650000100FEF73DF802239843B8D1F5E7C046B4
:10566000580200205D480000030070B50400A83314
:105670001D78F0346AB24C33002A1BDB0200EC3296
:105680001268002A16D02D0714D40500F8352E68AC
:10569000B24201D116682E602568002D10D1156820
:1056A0000D601160216019600B68002B01D1FC3086
:1056B000016070BD2268002A02D10200EC32EEE7E0
:1056C0001A6814680C601160EDE70300A8331B78BA
:1056D00010B51B070FD50300F0331B68002B04D156
:1056E000EC3003680B60016010BDF43003681A6889
:1056F0000A601960F8E7FFF7B7FFF5E7F8B51F4F45
:10570000050038005130FF300E00FDF7C1F80400ED
:105710000120002C30D0FC37796932790800184B11
:105720008C3013437279383112021343B279120468
:105730001A430368DB03DB0B1340036020230A7862
:10574000200013430B70032322790021134323719C
:10575000092308226371E3710830FAF7AFFF2B00C9
:105760008C331B6828001A0A23721B0C6272A37206
:105770002100FFF7AAFF0020F8BDC0465802002014
:10578000D030FEFFF0B5754C91B00C900E911F001B
:10579000237B002B02D062B6042002DF3B8C073350
:1057A000DBB223737B7F7F2B09D9F96B531C4B43EF
:1057B000796C5B18396C7B648B4200D979643D004D
:1057C0003E003B8D5D35D2187B8C92B23A85D21863
:1057D00093B20A935C362A7833789A4200D17FE0FC
:1057E0000520FFF7C1FC3B005E3318780138032821
:1057F000D1D8FAF7DFFC04003B02A502D202BE2397
:105800005B00E258002A00D1E7503B0003266033DA
:105810000D931B78334000D1ACE020005130FF30B5
:10582000FDF736F8041E5BD00D9B1B789A07920F8C
:10583000012AB0D10D9AB3431370FD8C0A9B063533
:105840005D193B00ADB268331D80037944491E43A6
:105850000C2343710023C3713B00067170331B7826
:105860000372F86EFAF7B0FC21003B0080B2607260
:105870000931000A487062331A78E2725B78237348
:105880003B0064331A7862735B78A3733B00663322
:105890001A78E2735B7865742D0A2374A5740C9BE7
:1058A0003A68BB67002A0ADA7868BB68834200D28C
:1058B00003000C9852001B1852089B1ABB67294B17
:1058C000294A7967DA600122002011009F60FDF704
:1058D00095F8002800D05EE721003800FFF7C4FEED
:1058E0003C003D009934983522782B789A421ED09E
:1058F0000520FFF739FC19485130FF30FCF7C8FF8D
:10590000011E14D02B7823700323027913430371F3
:1059100002234371C3713B009A331B780372380032
:10592000FFF7A2FEFB8D012B00D88BE2BB863A8CE1
:105930007C7F07323B1DB968D2B20C487F2C00D85F
:105940000B480290019200913A0003970E990C982F
:10595000FFF71AFC0A9A01327A8462E158020020A9
:10596000E204000068230020694C0000995E0000FA
:10597000757900003A00683212880A998A1A96B23C
:105980001204ADD43A005C32127823732A70BE221E
:105990005200A1588F4200D1A3503D003C00623517
:1059A0002B88B98C6434994212D12288FB8C9A429C
:1059B0000ED1D44B59433B0066331888D24B584321
:1059C00040180138FAF74EFCFB8D80B283421BD0A1
:1059D0000220FEF7BDFC002800D1DCE63B8CC38032
:1059E000082303710023C3722B7803736B7843730E
:1059F000237883736378C3733B0066331A78027429
:105A00005B784374FFF726F83B68002B0BDA7A6863
:105A1000B868904200D210000C9A5B005B08101826
:105A20003B60C31A0C93BC8C2B887443A4B219003E
:105A300020000A93FAF7C8FB83B20A980D935843E3
:105A400080B2844200D3EEE02423001BAF4AFF3330
:105A5000C117FAF789FC0723AD4AFAF765FC0C9BDE
:105A60000002000AC3180C933B8D0D9A9B1BD318A0
:105A70003B857A683B680E929A4200D20E930A9B4D
:105A8000A04D5D437B7F7F2B00D8E0E0FB6BA14AFC
:105A90005E437B6CA0499E1BA04BFF335B7F5B008A
:105AA000985A3B0038331B78DB065B0F5B009B5A30
:105AB000C01868439A4BC018FAF786FB3A006B0887
:105AC000963BF8633B64703212788E4904004A4377
:105AD000FA6400220D98BA6560433618B34200D2CA
